0136008414999992015010100524+31000+061900FM-15+049099999V0201401N001019999999N999999999+00481-00431102241ADDMA1102131999999REMMET109MOBOB3 METAR XM18 //049 310619 010052Z AUTO 14002KT 05/M04 A3016 RMK      A02 SLP224 T00481043 PA1378 DA0555=
0136008414999992015010101524+31000+061900FM-15+049099999V0201601N002119999999N999999999+00441-00531102331ADDMA1102201999999REMMET109MOBOB3 METAR XM18 //049 310619 010152Z AUTO 16004KT 04/M05 A3018 RMK      A02 SLP233 T00441053 PA1359 DA0478=
0136008414999992015010102524+31000+061900FM-15+049099999V0201501N000519999999N999999999+00641-00461102401ADDMA1102271999999REMMET109MOBOB3 METAR XM18 //049 310619 010252Z AUTO 15001KT 06/M05 A3020 RMK      A02 SLP240 T00641046 PA1340 DA0701=
0136008414999992015010103524+31000+061900FM-15+049099999V0202001N001019999999N999999999+00971-00391102531ADDMA1102401999999REMMET109MOBOB3 METAR XM18 //049 310619 010352Z AUTO 20002KT 10/M04 A3024 RMK      A02 SLP253 T00971039 PA1301 DA1055=
0136008414999992015010104524+31000+061900FM-15+049099999V0202101N001019999999N999999999+01251-00291102571ADDMA1102511999999REMMET109MOBOB3 METAR XM18 //049 310619 010452Z AUTO 21002KT 13/M03 A3027 RMK      A02 SLP257 T01251029 PA1282 DA1369=
0136008414999992015010105524+31000+061900FM-15+049099999V0201801N001019999999N999999999+01531-00241102491ADDMA1102471999999REMMET109MOBOB3 METAR XM18 //049 310619 010552Z AUTO 18002KT 15/M02 A3026 RMK      A02 SLP249 T01531024 PA1292 DA1713=
0136008414999992015010106534+31000+061900FM-15+049099999V0201901N001019999999N999999999+01751-00251102381ADDMA1102341999999REMMET109MOBOB3 METAR XM18 //049 310619 010653Z AUTO 19002KT 18/M03 A3022 RMK      A02 SLP238 T01751025 PA1321 DA2005=
0136008414999992015010107524+31000+061900FM-15+049099999V0202501N000519999999N999999999+01911-00221102281ADDMA1102231999999REMMET109MOBOB3 METAR XM18 //049 310619 010752Z AUTO 25001KT 19/M02 A3019 RMK      A02 SLP228 T01911022 PA1350 DA2226=
0136008414999992015010108524+31000+061900FM-15+049099999V0201901N001019999999N999999999+01991-00211102191ADDMA1102131999999REMMET109MOBOB3 METAR XM18 //049 310619 010852Z AUTO 19002KT 20/M02 A3016 RMK      A02 SLP219 T01991021 PA1378 DA2354=
0136008414999992015010109524+31000+061900FM-15+049099999V0202401N000519999999N999999999+02031-00251102181ADDMA1102131999999REMMET109MOBOB3 METAR XM18 //049 310619 010952Z AUTO 24001KT 20/M03 A3016 RMK      A02 SLP218 T02031025 PA1378 DA2398=
0136008414999992015010110524+31000+061900FM-15+049099999V0200201N001019999999N999999999+02011-00241102141ADDMA1102101999999REMMET109MOBOB3 METAR XM18 //049 310619 011052Z AUTO 02002KT 20/M02 A3015 RMK      A02 SLP214 T02011024 PA1388 DA2388=
0136008414999992015010111524+31000+061900FM-15+049099999V0203401N000519999999N999999999+01821-00201102171ADDMA1102101999999REMMET109MOBOB3 METAR XM18 //049 310619 011152Z AUTO 34001KT 18/M02 A3015 RMK      A02 SLP217 T01821020 PA1388 DA2171=
0136008414999992015010112524+31000+061900FM-15+049099999V0209999C000019999999N999999999+01401-00211102241ADDMA1102131999999REMMET109MOBOB3 METAR XM18 //049 310619 011252Z AUTO 00000KT 14/M02 A3016 RMK      A02 SLP224 T01401021 PA1378 DA1669=
0136008414999992015010113524+31000+061900FM-15+049099999V0203001N000519999999N999999999+01231-00231102301ADDMA1102171999999REMMET109MOBOB3 METAR XM18 //049 310619 011352Z AUTO 30001KT 12/M02 A3017 RMK      A02 SLP230 T01231023 PA1369 DA1455=
0136008414999992015010114524+31000+061900FM-15+049099999V0209999C000019999999N999999999+01131-00211102291ADDMA1102171999999REMMET109MOBOB3 METAR XM18 //049 310619 011452Z AUTO 00000KT 11/M02 A3017 RMK      A02 SLP229 T01131021 PA1369 DA1338=
0136008414999992015010115524+31000+061900FM-15+049099999V0209999C000019999999N999999999+00921-00261102271ADDMA1102171999999REMMET109MOBOB3 METAR XM18 //049 310619 011552Z AUTO 00000KT 09/M03 A3017 RMK      A02 SLP227 T00921026 PA1369 DA1084=
0136008414999992015010116524+31000+061900FM-15+049099999V0203401N000519999999N999999999+00851-00281102221ADDMA1102131999999REMMET109MOBOB3 METAR XM18 //049 310619 011652Z AUTO 34001KT 09/M03 A3016 RMK      A02 SLP222 T00851028 PA1378 DA1011=
0136008414999992015010117524+31000+061900FM-15+049099999V0201301N000519999999N999999999+00861-00411102151ADDMA1102101999999REMMET109MOBOB3 METAR XM18 //049 310619 011752Z AUTO 13001KT 09/M04 A3015 RMK      A02 SLP215 T00861041 PA1388 DA1029=
0136008414999992015010118524+31000+061900FM-15+049099999V0201401N000519999999N999999999+00851-00561102131ADDMA1102101999999REMMET109MOBOB3 METAR XM18 //049 310619 011852Z AUTO 14001KT 09/M06 A3015 RMK      A02 SLP213 T00851056 PA1388 DA1011=
0136008414999992015010120524+31000+061900FM-15+049099999V0203301N000519999999N999999999+00541-00361102171ADDMA1102131999999REMMET109MOBOB3 METAR XM18 //049 310619 012052Z AUTO 33001KT 05/M04 A3016 RMK      A02 SLP217 T00541036 PA1378 DA0631=
0136008414999992015010121524+31000+061900FM-15+049099999V0202601N000519999999N999999999+00431-00411102181ADDMA1102131999999REMMET109MOBOB3 METAR XM18 //049 310619 012152Z AUTO 26001KT 04/M04 A3016 RMK      A02 SLP218 T00431041 PA1378 DA0494=
0136008414999992015010122524+31000+061900FM-15+049099999V0200301N000519999999N999999999+00401-00471102111ADDMA1102071999999REMMET109MOBOB3 METAR XM18 //049 310619 012252Z AUTO 03001KT 04/M05 A3014 RMK      A02 SLP211 T00401047 PA1398 DA0479=
0136008414999992015010123524+31000+061900FM-15+049099999V0203401N001519999999N999999999+00171-00561102161ADDMA1102071999999REMMET109MOBOB3 METAR XM18 //049 310619 012352Z AUTO 34003KT 02/M06 A3014 RMK      A02 SLP216 T00171056 PA1398 DA0191=
0136008414999992015010200524+31000+061900FM-15+049099999V0201001N000519999999N999999999+00221-00641102201ADDMA1102071999999REMMET109MOBOB3 METAR XM18 //049 310619 020052Z AUTO 10001KT 02/M06 A3014 RMK      A02 SLP220 T00221064 PA1398 DA0250=
0136008414999992015010201524+31000+061900FM-15+049099999V0209999C000019999999N999999999+00071-00611102271ADDMA1102101999999REMMET109MOBOB3 METAR XM18 //049 310619 020152Z AUTO 00000KT 01/M06 A3015 RMK      A02 SLP227 T00071061 PA1388 DA0053=
0136008414999992015010202524+31000+061900FM-15+049099999V0203001N000519999999N999999999+00161-00711102341ADDMA1102171999999REMMET109MOBOB3 METAR XM18 //049 310619 020252Z AUTO 30001KT 02/M07 A3017 RMK      A02 SLP234 T00161071 PA1369 DA0137=
0136008414999992015010203524+31000+061900FM-15+049099999V0209999C000019999999N999999999+00921-00491102421ADDMA1102301999999REMMET109MOBOB3 METAR XM18 //049 310619 020352Z AUTO 00000KT 09/M05 A3021 RMK      A02 SLP242 T00921049 PA1330 DA1026=
0136008414999992015010204524+31000+061900FM-15+049099999V0200501N001519999999N999999999+01251-00351102431ADDMA1102341999999REMMET109MOBOB3 METAR XM18 //049 310619 020452Z AUTO 05003KT 13/M03 A3022 RMK      A02 SLP243 T01251035 PA1321 DA1414=
0136008414999992015010205524+31000+061900FM-15+049099999V0200801N001519999999N999999999+01371-00431102351ADDMA1102271999999REMMET109MOBOB3 METAR XM18 //049 310619 020552Z AUTO 08003KT 14/M04 A3020 RMK      A02 SLP235 T01371043 PA1340 DA1576=
0136008414999992015010206524+31000+061900FM-15+049099999V0201101N001019999999N999999999+01581-00461102221ADDMA1102171999999REMMET109MOBOB3 METAR XM18 //049 310619 020652Z AUTO 11002KT 16/M05 A3017 RMK      A02 SLP222 T01581046 PA1369 DA1856=
0135008414999992015010207524+31000+061900FM-15+049099999V0201401N001019999999N999999999+01671-00461999999ADDMA1102071999999REMMET108MOBOB3 METAR XM18 //049 310619 020752Z AUTO 14002KT 17/M05 A3014 RMK      A02 SLPNO T01671046 PA1398 DA1997=
0136008414999992015010208524+31000+061900FM-15+049099999V0201201N000519999999N999999999+01821-00421102051ADDMA1102001999999REMMET109MOBOB3 METAR XM18 //049 310619 020852Z AUTO 12001KT 18/M04 A3012 RMK      A02 SLP205 T01821042 PA1417 DA2196=
0136008414999992015010209524+31000+061900FM-15+049099999V0201001N000519999999N999999999+01921-00381102011ADDMA1101961999999REMMET109MOBOB3 METAR XM18 //049 310619 020952Z AUTO 10001KT 19/M04 A3011 RMK      A02 SLP201 T01921038 PA1427 DA2325=
0136008414999992015010210524+31000+061900FM-15+049099999V0201101N001019999999N999999999+01871-00381102021ADDMA1101961999999REMMET109MOBOB3 METAR XM18 //049 310619 021052Z AUTO 11002KT 19/M04 A3011 RMK      A02 SLP202 T01871038 PA1427 DA2267=
0136008414999992015010211524+31000+061900FM-15+049099999V0201201N001019999999N999999999+01701-00401102061ADDMA1101961999999REMMET109MOBOB3 METAR XM18 //049 310619 021152Z AUTO 12002KT 17/M04 A3011 RMK      A02 SLP206 T01701040 PA1427 DA2070=
0136008414999992015010212524+31000+061900FM-15+049099999V0201301N000519999999N999999999+01441-00351102081ADDMA1101961999999REMMET109MOBOB3 METAR XM18 //049 310619 021252Z AUTO 13001KT 14/M04 A3011 RMK      A02 SLP208 T01441035 PA1427 DA1769=
0136008414999992015010213524+31000+061900FM-15+049099999V0209999C000019999999N999999999+01061-00411102181ADDMA1102001999999REMMET109MOBOB3 METAR XM18 //049 310619 021352Z AUTO 00000KT 11/M04 A3012 RMK      A02 SLP218 T01061041 PA1417 DA1305=
0136008414999992015010214524+31000+061900FM-15+049099999V0203201N000519999999N999999999+00961-00371102211ADDMA1102031999999REMMET109MOBOB3 METAR XM18 //049 310619 021452Z AUTO 32001KT 10/M04 A3013 RMK      A02 SLP221 T00961037 PA1407 DA1175=
0136008414999992015010215524+31000+061900FM-15+049099999V0209999C000019999999N999999999+00861-00361102181ADDMA1102071999999REMMET109MOBOB3 METAR XM18 //049 310619 021552Z AUTO 00000KT 09/M04 A3014 RMK      A02 SLP218 T00861036 PA1398 DA1043=
0136008414999992015010216524+31000+061900FM-15+049099999V0202801N000519999999N999999999+00951-00441102101ADDMA1102031999999REMMET109MOBOB3 METAR XM18 //049 310619 021652Z AUTO 28001KT 10/M04 A3013 RMK      A02 SLP210 T00951044 PA1407 DA1160=
0136008414999992015010217524+31000+061900FM-15+049099999V0201501N000519999999N999999999+00881-00441102061ADDMA1102001999999REMMET109MOBOB3 METAR XM18 //049 310619 021752Z AUTO 15001KT 09/M04 A3012 RMK      A02 SLP206 T00881044 PA1417 DA1087=
0136008414999992015010218524+31000+061900FM-15+049099999V0203301N000519999999N999999999+00671-00441102021ADDMA1101961999999REMMET109MOBOB3 METAR XM18 //049 310619 021852Z AUTO 33001KT 07/M04 A3011 RMK      A02 SLP202 T00671044 PA1427 DA0846=
0136008414999992015010219524+31000+061900FM-15+049099999V0203001N001019999999N999999999+00581-00451102021ADDMA1101961999999REMMET109MOBOB3 METAR XM18 //049 310619 021952Z AUTO 30002KT 06/M04 A3011 RMK      A02 SLP202 T00581045 PA1427 DA0736=
0136008414999992015010220524+31000+061900FM-15+049099999V0202301N000519999999N999999999+00671-00511102001ADDMA1101961999999REMMET109MOBOB3 METAR XM18 //049 310619 022052Z AUTO 23001KT 07/M05 A3011 RMK      A02 SLP200 T00671051 PA1427 DA0843=
0136008414999992015010221524+31000+061900FM-15+049099999V0202701N000519999999N999999999+00551-00411101961ADDMA1101931999999REMMET109MOBOB3 METAR XM18 //049 310619 022152Z AUTO 27001KT 06/M04 A3010 RMK      A02 SLP196 T00551041 PA1436 DA0713=
0136008414999992015010222524+31000+061900FM-15+049099999V0203501N001019999999N999999999+00481-00421101941ADDMA1101901999999REMMET109MOBOB3 METAR XM18 //049 310619 022252Z AUTO 35002KT 05/M04 A3009 RMK      A02 SLP194 T00481042 PA1446 DA0639=
0136008414999992015010223524+31000+061900FM-15+049099999V0200101N001019999999N999999999+00381-00601101901ADDMA1101831999999REMMET109MOBOB3 METAR XM18 //049 310619 022352Z AUTO 01002KT 04/M06 A3007 RMK      A02 SLP190 T00381060 PA1465 DA0533=
0136008414999992015010300524+31000+061900FM-15+049099999V0201201N001019999999N999999999+00411-00761101921ADDMA1101831999999REMMET109MOBOB3 METAR XM18 //049 310619 030052Z AUTO 12002KT 04/M08 A3007 RMK      A02 SLP192 T00411076 PA1465 DA0564=
0136008414999992015010301524+31000+061900FM-15+049099999V0209999C000019999999N999999999+00281-00801102051ADDMA1101901999999REMMET109MOBOB3 METAR XM18 //049 310619 030152Z AUTO 00000KT 03/M08 A3009 RMK      A02 SLP205 T00281080 PA1446 DA0378=
0136008414999992015010302524+31000+061900FM-15+049099999V0203401N001019999999N999999999+00301-00711102131ADDMA1101961999999REMMET109MOBOB3 METAR XM18 //049 310619 030252Z AUTO 34002KT 03/M07 A3011 RMK      A02 SLP213 T00301071 PA1427 DA0382=
0136008414999992015010303524+31000+061900FM-15+049099999V0200501N001019999999N999999999+00671-00681102211ADDMA1102071999999REMMET109MOBOB3 METAR XM18 //049 310619 030352Z AUTO 05002KT 07/M07 A3014 RMK      A02 SLP221 T00671068 PA1398 DA0800=
0136008414999992015010304524+31000+061900FM-15+049099999V0200501N001519999999N999999999+01071-00671102121ADDMA1102031999999REMMET109MOBOB3 METAR XM18 //049 310619 030452Z AUTO 05003KT 11/M07 A3013 RMK      A02 SLP212 T01071067 PA1407 DA1293=
0136008414999992015010305524+31000+061900FM-15+049099999V0201201N002119999999N999999999+01381-00731102021ADDMA1101961999999REMMET109MOBOB3 METAR XM18 //049 310619 030552Z AUTO 12004KT 14/M07 A3011 RMK      A02 SLP202 T01381073 PA1427 DA1682=
0136008414999992015010306524+31000+061900FM-15+049099999V0201401N001019999999N999999999+01691-00711101871ADDMA1101831999999REMMET109MOBOB3 METAR XM18 //049 310619 030652Z AUTO 14002KT 17/M07 A3007 RMK      A02 SLP187 T01691071 PA1465 DA2093=
0136008414999992015010307524+31000+061900FM-15+049099999V0201301N001519999999N999999999+01841-00721101721ADDMA1101661999999REMMET109MOBOB3 METAR XM18 //049 310619 030752Z AUTO 13003KT 18/M07 A3002 RMK      A02 SLP172 T01841072 PA1504 DA2314=
0136008414999992015010308524+31000+061900FM-15+049099999V0200801N002119999999N999999999+01971-00741101551ADDMA1101521999999REMMET109MOBOB3 METAR XM18 //049 310619 030852Z AUTO 08004KT 20/M07 A2998 RMK      A02 SLP155 T01971074 PA1542 DA2510=
0136008414999992015010309524+31000+061900FM-15+049099999V0200801N002119999999N999999999+02021-00731101491ADDMA1101461999999REMMET109MOBOB3 METAR XM18 //049 310619 030952Z AUTO 08004KT 20/M07 A2996 RMK      A02 SLP149 T02021073 PA1562 DA2591=
0136008414999992015010310524+31000+061900FM-15+049099999V0200501N002619999999N999999999+01961-00581101461ADDMA1101421999999REMMET109MOBOB3 METAR XM18 //049 310619 031052Z AUTO 05005KT 20/M06 A2995 RMK      A02 SLP146 T01961058 PA1571 DA2540=
0136008414999992015010311524+31000+061900FM-15+049099999V0200401N001519999999N999999999+01821-00611101521ADDMA1101461999999REMMET109MOBOB3 METAR XM18 //049 310619 031152Z AUTO 04003KT 18/M06 A2996 RMK      A02 SLP152 T01821061 PA1562 DA2366=
0136008414999992015010312524+31000+061900FM-15+049099999V0203201N001019999999N999999999+01571-00541101551ADDMA1101461999999REMMET109MOBOB3 METAR XM18 //049 310619 031252Z AUTO 32002KT 16/M05 A2996 RMK      A02 SLP155 T01571054 PA1562 DA2079=
0136008414999992015010313524+31000+061900FM-15+049099999V0203601N000519999999N999999999+01431-00531101581ADDMA1101461999999REMMET109MOBOB3 METAR XM18 //049 310619 031352Z AUTO 36001KT 14/M05 A2996 RMK      A02 SLP158 T01431053 PA1562 DA1916=
0136008414999992015010314524+31000+061900FM-15+049099999V0200201N000519999999N999999999+01371-00571101621ADDMA1101491999999REMMET109MOBOB3 METAR XM18 //049 310619 031452Z AUTO 02001KT 14/M06 A2997 RMK      A02 SLP162 T01371057 PA1552 DA1832=
0136008414999992015010315524+31000+061900FM-15+049099999V0203001N000519999999N999999999+01231-00591101561ADDMA1101461999999REMMET109MOBOB3 METAR XM18 //049 310619 031552Z AUTO 30001KT 12/M06 A2996 RMK      A02 SLP156 T01231059 PA1562 DA1678=
0136008414999992015010316524+31000+061900FM-15+049099999V0203401N001019999999N999999999+01121-00601101491ADDMA1101421999999REMMET109MOBOB3 METAR XM18 //049 310619 031652Z AUTO 34002KT 11/M06 A2995 RMK      A02 SLP149 T01121060 PA1571 DA1559=
0136008414999992015010317524+31000+061900FM-15+049099999V0203301N000519999999N999999999+00911-00711101481ADDMA1101421999999REMMET109MOBOB3 METAR XM18 //049 310619 031752Z AUTO 33001KT 09/M07 A2995 RMK      A02 SLP148 T00911071 PA1571 DA1304=
0136008414999992015010318524+31000+061900FM-15+049099999V0200301N000519999999N999999999+00921-00841101411ADDMA1101391999999REMMET109MOBOB3 METAR XM18 //049 310619 031852Z AUTO 03001KT 09/M08 A2994 RMK      A02 SLP141 T00921084 PA1581 DA1324=
0136008414999992015010319524+31000+061900FM-15+049099999V0200801N000519999999N999999999+00811-00791101371ADDMA1101351999999REMMET109MOBOB3 METAR XM18 //049 310619 031952Z AUTO 08001KT 08/M08 A2993 RMK      A02 SLP137 T00811079 PA1591 DA1205=
0136008414999992015010320524+31000+061900FM-15+049099999V0200601N000519999999N999999999+00761-00691101291ADDMA1101291999999REMMET109MOBOB3 METAR XM18 //049 310619 032052Z AUTO 06001KT 08/M07 A2991 RMK      A02 SLP129 T00761069 PA1610 DA1172=
0136008414999992015010321524+31000+061900FM-15+049099999V0200401N000519999999N999999999+00651-00751101301ADDMA1101291999999REMMET109MOBOB3 METAR XM18 //049 310619 032152Z AUTO 04001KT 07/M08 A2991 RMK      A02 SLP130 T00651075 PA1610 DA1037=
0136008414999992015010322524+31000+061900FM-15+049099999V0201301N001019999999N999999999+00661-00841101301ADDMA1101291999999REMMET109MOBOB3 METAR XM18 //049 310619 032252Z AUTO 13002KT 07/M08 A2991 RMK      A02 SLP130 T00661084 PA1610 DA1046=
0136008414999992015010323524+31000+061900FM-15+049099999V0201301N001019999999N999999999+00661-00901101321ADDMA1101291999999REMMET109MOBOB3 METAR XM18 //049 310619 032352Z AUTO 13002KT 07/M09 A2991 RMK      A02 SLP132 T00661090 PA1610 DA1044=
0136008414999992015010400524+31000+061900FM-15+049099999V0201701N000519999999N999999999+00671-00761101381ADDMA1101321999999REMMET109MOBOB3 METAR XM18 //049 310619 040052Z AUTO 17001KT 07/M08 A2992 RMK      A02 SLP138 T00671076 PA1601 DA1049=
0136008414999992015010401524+31000+061900FM-15+049099999V0201301N001019999999N999999999+00561-00831101441ADDMA1101351999999REMMET109MOBOB3 METAR XM18 //049 310619 040152Z AUTO 13002KT 06/M08 A2993 RMK      A02 SLP144 T00561083 PA1591 DA0901=
0136008414999992015010402524+31000+061900FM-15+049099999V0201501N001019999999N999999999+00641-00831101551ADDMA1101461999999REMMET109MOBOB3 METAR XM18 //049 310619 040252Z AUTO 15002KT 06/M08 A2996 RMK      A02 SLP155 T00641083 PA1562 DA0962=
0136008414999992015010403524+31000+061900FM-15+049099999V0201601N001019999999N999999999+00971-00801101631ADDMA1101561999999REMMET109MOBOB3 METAR XM18 //049 310619 040352Z AUTO 16002KT 10/M08 A2999 RMK      A02 SLP163 T00971080 PA1533 DA1325=
0136008414999992015010404524+31000+061900FM-15+049099999V0201501N002119999999N999999999+01171-00821101621ADDMA1101561999999REMMET109MOBOB3 METAR XM18 //049 310619 040452Z AUTO 15004KT 12/M08 A2999 RMK      A02 SLP162 T01171082 PA1533 DA1562=
0136008414999992015010405524+31000+061900FM-15+049099999V0201701N002119999999N999999999+01431-00781101581ADDMA1101521999999REMMET109MOBOB3 METAR XM18 //049 310619 040552Z AUTO 17004KT 14/M08 A2998 RMK      A02 SLP158 T01431078 PA1542 DA1882=
0136008414999992015010406524+31000+061900FM-15+049099999V0201901N001519999999N999999999+01711-00711101441ADDMA1101421999999REMMET109MOBOB3 METAR XM18 //049 310619 040652Z AUTO 19003KT 17/M07 A2995 RMK      A02 SLP144 T01711071 PA1571 DA2247=
0136008414999992015010407524+31000+061900FM-15+049099999V0201201N001019999999N999999999+01971-00671101361ADDMA1101351999999REMMET109MOBOB3 METAR XM18 //049 310619 040752Z AUTO 12002KT 20/M07 A2993 RMK      A02 SLP136 T01971067 PA1591 DA2572=
0136008414999992015010408524+31000+061900FM-15+049099999V0201201N000519999999N999999999+02071-00671101321ADDMA1101321999999REMMET109MOBOB3 METAR XM18 //049 310619 040852Z AUTO 12001KT 21/M07 A2992 RMK      A02 SLP132 T02071067 PA1601 DA2698=
0136008414999992015010409524+31000+061900FM-15+049099999V0200501N001019999999N999999999+02091-00731101291ADDMA1101291999999REMMET109MOBOB3 METAR XM18 //049 310619 040952Z AUTO 05002KT 21/M07 A2991 RMK      A02 SLP129 T02091073 PA1610 DA2731=
0136008414999992015010410524+31000+061900FM-15+049099999V0200401N001519999999N999999999+02021-00751101261ADDMA1101251999999REMMET109MOBOB3 METAR XM18 //049 310619 041052Z AUTO 04003KT 20/M08 A2990 RMK      A02 SLP126 T02021075 PA1620 DA2662=
0136008414999992015010411524+31000+061900FM-15+049099999V0209999C000019999999N999999999+01861-00571101281ADDMA1101251999999REMMET109MOBOB3 METAR XM18 //049 310619 041152Z AUTO 00000KT 19/M06 A2990 RMK      A02 SLP128 T01861057 PA1620 DA2486=
0136008414999992015010412524+31000+061900FM-15+049099999V0202601N001019999999N999999999+01661-00581101371ADDMA1101321999999REMMET109MOBOB3 METAR XM18 //049 310619 041252Z AUTO 26002KT 17/M06 A2992 RMK      A02 SLP137 T01661058 PA1601 DA2230=
0136008414999992015010413524+31000+061900FM-15+049099999V0202801N000519999999N999999999+01481-00521101471ADDMA1101391999999REMMET109MOBOB3 METAR XM18 //049 310619 041352Z AUTO 28001KT 15/M05 A2994 RMK      A02 SLP147 T01481052 PA1581 DA1999=
0136008414999992015010414524+31000+061900FM-15+049099999V0202601N000519999999N999999999+01311-00531101511ADDMA1101421999999REMMET109MOBOB3 METAR XM18 //049 310619 041452Z AUTO 26001KT 13/M05 A2995 RMK      A02 SLP151 T01311053 PA1571 DA1787=
0136008414999992015010415524+31000+061900FM-15+049099999V0203601N000519999999N999999999+01081-00451101501ADDMA1101421999999REMMET109MOBOB3 METAR XM18 //049 310619 041552Z AUTO 36001KT 11/M04 A2995 RMK      A02 SLP150 T01081045 PA1571 DA1518=
0136008414999992015010416524+31000+061900FM-15+049099999V0209999C000019999999N999999999+01071-00461101481ADDMA1101421999999REMMET109MOBOB3 METAR XM18 //049 310619 041652Z AUTO 00000KT 11/M05 A2995 RMK      A02 SLP148 T01071046 PA1571 DA1505=
0136008414999992015010417524+31000+061900FM-15+049099999V0203501N000519999999N999999999+00921-00551101471ADDMA1101421999999REMMET109MOBOB3 METAR XM18 //049 310619 041752Z AUTO 35001KT 09/M05 A2995 RMK      A02 SLP147 T00921055 PA1571 DA1323=
0136008414999992015010418524+31000+061900FM-15+049099999V0201401N000519999999N999999999+00891-00621101381ADDMA1101351999999REMMET109MOBOB3 METAR XM18 //049 310619 041852Z AUTO 14001KT 09/M06 A2993 RMK      A02 SLP138 T00891062 PA1591 DA1308=
0136008414999992015010420524+31000+061900FM-15+049099999V0209999C000019999999N999999999+00631-00521101331ADDMA1101321999999REMMET109MOBOB3 METAR XM18 //049 310619 042052Z AUTO 00000KT 06/M05 A2992 RMK      A02 SLP133 T00631052 PA1601 DA1010=
0136008414999992015010421524+31000+061900FM-15+049099999V0202701N001019999999N999999999+00661-00531101321ADDMA1101321999999REMMET109MOBOB3 METAR XM18 //049 310619 042152Z AUTO 27002KT 07/M05 A2992 RMK      A02 SLP132 T00661053 PA1601 DA1046=
0136008414999992015010422524+31000+061900FM-15+049099999V0203101N000519999999N999999999+00551-00701101271ADDMA1101251999999REMMET109MOBOB3 METAR XM18 //049 310619 042252Z AUTO 31001KT 06/M07 A2990 RMK      A02 SLP127 T00551070 PA1620 DA0929=
0136008414999992015010423524+31000+061900FM-15+049099999V0203501N000519999999N999999999+00441-00701101341ADDMA1101291999999REMMET109MOBOB3 METAR XM18 //049 310619 042352Z AUTO 35001KT 04/M07 A2991 RMK      A02 SLP134 T00441070 PA1610 DA0783=
0136008414999992015010500524+31000+061900FM-15+049099999V0203001N000519999999N999999999+00391-00891101401ADDMA1101321999999REMMET109MOBOB3 METAR XM18 //049 310619 050052Z AUTO 30001KT 04/M09 A2992 RMK      A02 SLP140 T00391089 PA1601 DA0703=
0136008414999992015010501524+31000+061900FM-15+049099999V0201201N000519999999N999999999+00471-00851101481ADDMA1101391999999REMMET109MOBOB3 METAR XM18 //049 310619 050152Z AUTO 12001KT 05/M08 A2994 RMK      A02 SLP148 T00471085 PA1581 DA0778=
0136008414999992015010502524+31000+061900FM-15+049099999V0201301N001019999999N999999999+00561-00701101561ADDMA1101461999999REMMET109MOBOB3 METAR XM18 //049 310619 050252Z AUTO 13002KT 06/M07 A2996 RMK      A02 SLP156 T00561070 PA1562 DA0869=
0136008414999992015010503524+31000+061900FM-15+049099999V0201201N002119999999N999999999+00811-00571101631ADDMA1101521999999REMMET109MOBOB3 METAR XM18 //049 310619 050352Z AUTO 12004KT 08/M06 A2998 RMK      A02 SLP163 T00811057 PA1542 DA1153=
0136008414999992015010504524+31000+061900FM-15+049099999V0201001N001019999999N999999999+01311-00481101651ADDMA1101591999999REMMET109MOBOB3 METAR XM18 //049 310619 050452Z AUTO 10002KT 13/M05 A3000 RMK      A02 SLP165 T01311048 PA1523 DA1729=
0136008414999992015010505524+31000+061900FM-15+049099999V0201701N001019999999N999999999+01591-00371101561ADDMA1101521999999REMMET109MOBOB3 METAR XM18 //049 310619 050552Z AUTO 17002KT 16/M04 A2998 RMK      A02 SLP156 T01591037 PA1542 DA2086=
0136008414999992015010506524+31000+061900FM-15+049099999V0202101N000519999999N999999999+01891-00431101431ADDMA1101421999999REMMET109MOBOB3 METAR XM18 //049 310619 050652Z AUTO 21001KT 19/M04 A2995 RMK      A02 SLP143 T01891043 PA1571 DA2466=
0135008414999992015010507524+31000+061900FM-15+049099999V0202301N000519999999N999999999+02101-00381999999ADDMA1101351999999REMMET108MOBOB3 METAR XM18 //049 310619 050752Z AUTO 23001KT 21/M04 A2993 RMK      A02 SLPNO T02101038 PA1591 DA2733=
0136008414999992015010508524+31000+061900FM-15+049099999V0202001N001019999999N999999999+02211-00411101311ADDMA1101321999999REMMET109MOBOB3 METAR XM18 //049 310619 050852Z AUTO 20002KT 22/M04 A2992 RMK      A02 SLP131 T02211041 PA1601 DA2868=
0136008414999992015010509524+31000+061900FM-15+049099999V0200201N001019999999N999999999+02331-00331101261ADDMA1101291999999REMMET109MOBOB3 METAR XM18 //049 310619 050952Z AUTO 02002KT 23/M03 A2991 RMK      A02 SLP126 T02331033 PA1610 DA3020=
0136008414999992015010510524+31000+061900FM-15+049099999V0200501N001519999999N999999999+02291-00341101281ADDMA1101291999999REMMET109MOBOB3 METAR XM18 //049 310619 051052Z AUTO 05003KT 23/M03 A2991 RMK      A02 SLP128 T02291034 PA1610 DA2974=
0136008414999992015010511524+31000+061900FM-15+049099999V0203501N001019999999N999999999+02151-00321101341ADDMA1101321999999REMMET109MOBOB3 METAR XM18 //049 310619 051152Z AUTO 35002KT 22/M03 A2992 RMK      A02 SLP134 T02151032 PA1601 DA2804=
0136008414999992015010512524+31000+061900FM-15+049099999V0203101N000519999999N999999999+01751-00221101491ADDMA1101421999999REMMET109MOBOB3 METAR XM18 //049 310619 051252Z AUTO 31001KT 18/M02 A2995 RMK      A02 SLP149 T01751022 PA1571 DA2315=
0136008414999992015010513524+31000+061900FM-15+049099999V0203501N000519999999N999999999+01561-00421101541ADDMA1101461999999REMMET109MOBOB3 METAR XM18 //049 310619 051352Z AUTO 35001KT 16/M04 A2996 RMK      A02 SLP154 T01561042 PA1562 DA2073=
0136008414999992015010514524+31000+061900FM-15+049099999V0203301N002119999999N999999999+01391-00491101661ADDMA1101561999999REMMET109MOBOB3 METAR XM18 //049 310619 051452Z AUTO 33004KT 14/M05 A2999 RMK      A02 SLP166 T01391049 PA1533 DA1835=
0136008414999992015010515524+31000+061900FM-15+049099999V0203201N002119999999N999999999+01371-00551101671ADDMA1101591999999REMMET109MOBOB3 METAR XM18 //049 310619 051552Z AUTO 32004KT 14/M05 A3000 RMK      A02 SLP167 T01371055 PA1523 DA1797=
0136008414999992015010516524+31000+061900FM-15+049099999V0203301N003119999999N999999999+01371-00551101651ADDMA1101631999999REMMET109MOBOB3 METAR XM18 //049 310619 051652Z AUTO 33006KT 14/M05 A3001 RMK      A02 SLP165 T01371055 PA1513 DA1785=
0136008414999992015010517524+31000+061900FM-15+049099999V0202901N001519999999N999999999+01171-00541101651ADDMA1101631999999REMMET109MOBOB3 METAR XM18 //049 310619 051752Z AUTO 29003KT 12/M05 A3001 RMK      A02 SLP165 T01171054 PA1513 DA1549=
0136008414999992015010518524+31000+061900FM-15+049099999V0202901N001519999999N999999999+01051-00571101661ADDMA1101661999999REMMET109MOBOB3 METAR XM18 //049 310619 051852Z AUTO 29003KT 11/M06 A3002 RMK      A02 SLP166 T01051057 PA1504 DA1393=
0136008414999992015010519524+31000+061900FM-15+049099999V0202901N001519999999N999999999+01001-00551101681ADDMA1101691999999REMMET109MOBOB3 METAR XM18 //049 310619 051952Z AUTO 29003KT 10/M05 A3003 RMK      A02 SLP168 T01001055 PA1494 DA1322=
0136008414999992015010520524+31000+061900FM-15+049099999V0200101N001519999999N999999999+00941-00481101711ADDMA1101761999999REMMET109MOBOB3 METAR XM18 //049 310619 052052Z AUTO 01003KT 09/M05 A3005 RMK      A02 SLP171 T00941048 PA1484 DA1241=
0136008414999992015010521524+31000+061900FM-15+049099999V0202901N001019999999N999999999+00851-00501101711ADDMA1101761999999REMMET109MOBOB3 METAR XM18 //049 310619 052152Z AUTO 29002KT 09/M05 A3005 RMK      A02 SLP171 T00851050 PA1484 DA1132=
0136008414999992015010522524+31000+061900FM-15+049099999V0203001N002119999999N999999999+00891-00491101671ADDMA1101691999999REMMET109MOBOB3 METAR XM18 //049 310619 052252Z AUTO 30004KT 09/M05 A3003 RMK      A02 SLP167 T00891049 PA1494 DA1193=
0136008414999992015010523524+31000+061900FM-15+049099999V0203001N002119999999N999999999+00911-00511101721ADDMA1101761999999REMMET109MOBOB3 METAR XM18 //049 310619 052352Z AUTO 30004KT 09/M05 A3005 RMK      A02 SLP172 T00911051 PA1484 DA1204=
0136008414999992015010600524+31000+061900FM-15+049099999V0202901N001519999999N999999999+00901-00471101841ADDMA1101831999999REMMET109MOBOB3 METAR XM18 //049 310619 060052Z AUTO 29003KT 09/M05 A3007 RMK      A02 SLP184 T00901047 PA1465 DA1170=
0136008414999992015010601524+31000+061900FM-15+049099999V0203101N001519999999N999999999+00751-00451101981ADDMA1101931999999REMMET109MOBOB3 METAR XM18 //049 310619 060152Z AUTO 31003KT 08/M04 A3010 RMK      A02 SLP198 T00751045 PA1436 DA0954=
0136008414999992015010602524+31000+061900FM-15+049099999V0200101N000519999999N999999999+00761-00471102101ADDMA1102031999999REMMET109MOBOB3 METAR XM18 //049 310619 060252Z AUTO 01001KT 08/M05 A3013 RMK      A02 SLP210 T00761047 PA1407 DA0929=
0136008414999992015010603524+31000+061900FM-15+049099999V0202901N001019999999N999999999+01021-00341102191ADDMA1102131999999REMMET109MOBOB3 METAR XM18 //049 310619 060352Z AUTO 29002KT 10/M03 A3016 RMK      A02 SLP219 T01021034 PA1378 DA1212=
0136008414999992015010604524+31000+061900FM-15+049099999V0203101N001019999999N999999999+01381-00371102151ADDMA1102131999999REMMET109MOBOB3 METAR XM18 //049 310619 060452Z AUTO 31002KT 14/M04 A3016 RMK      A02 SLP215 T01381037 PA1378 DA1638=
0136008414999992015010605524+31000+061900FM-15+049099999V0203201N002619999999N999999999+01681-00261102101ADDMA1102101999999REMMET109MOBOB3 METAR XM18 //049 310619 060552Z AUTO 32005KT 17/M03 A3015 RMK      A02 SLP210 T01681026 PA1388 DA2006=
0136008414999992015010606524+31000+061900FM-15+049099999V0203201N002119999999N999999999+01861-00321101991ADDMA1102001999999REMMET109MOBOB3 METAR XM18 //049 310619 060652Z AUTO 32004KT 19/M03 A3012 RMK      A02 SLP199 T01861032 PA1417 DA2247=
0136008414999992015010607524+31000+061900FM-15+049099999V0203201N002119999999N999999999+02031-00331101901ADDMA1101931999999REMMET109MOBOB3 METAR XM18 //049 310619 060752Z AUTO 32004KT 20/M03 A3010 RMK      A02 SLP190 T02031033 PA1436 DA2465=
0136008414999992015010608524+31000+061900FM-15+049099999V0203401N001519999999N999999999+02151-00371101861ADDMA1101901999999REMMET109MOBOB3 METAR XM18 //049 310619 060852Z AUTO 34003KT 22/M04 A3009 RMK      A02 SLP186 T02151037 PA1446 DA2612=
0136008414999992015010609524+31000+061900FM-15+049099999V0203501N002119999999N999999999+02211-00431101831ADDMA1101861999999REMMET109MOBOB3 METAR XM18 //049 310619 060952Z AUTO 35004KT 22/M04 A3008 RMK      A02 SLP183 T02211043 PA1455 DA2690=
0136008414999992015010610524+31000+061900FM-15+049099999V0200101N001519999999N999999999+02191-00441101831ADDMA1101861999999REMMET109MOBOB3 METAR XM18 //049 310619 061052Z AUTO 01003KT 22/M04 A3008 RMK      A02 SLP183 T02191044 PA1455 DA2666=
0136008414999992015010611524+31000+061900FM-15+049099999V0203101N000519999999N999999999+02041-00321101881ADDMA1101901999999REMMET109MOBOB3 METAR XM18 //049 310619 061152Z AUTO 31001KT 20/M03 A3009 RMK      A02 SLP188 T02041032 PA1446 DA2489=
0136008414999992015010612524+31000+061900FM-15+049099999V0202701N001019999999N999999999+01761-00311101911ADDMA1101901999999REMMET109MOBOB3 METAR XM18 //049 310619 061252Z AUTO 27002KT 18/M03 A3009 RMK      A02 SLP191 T01761031 PA1446 DA2167=
0136008414999992015010613524+31000+061900FM-15+049099999V0209999C000019999999N999999999+01421-00351101961ADDMA1101901999999REMMET109MOBOB3 METAR XM18 //049 310619 061352Z AUTO 00000KT 14/M03 A3009 RMK      A02 SLP196 T01421035 PA1446 DA1769=
0136008414999992015010614524+31000+061900FM-15+049099999V0209999C000019999999N999999999+01311-00351101971ADDMA1101901999999REMMET109MOBOB3 METAR XM18 //049 310619 061452Z AUTO 00000KT 13/M03 A3009 RMK      A02 SLP197 T01311035 PA1446 DA1640=
0136008414999992015010615524+31000+061900FM-15+049099999V0209999C000019999999N999999999+01351-00341101971ADDMA1101931999999REMMET109MOBOB3 METAR XM18 //049 310619 061552Z AUTO 00000KT 14/M03 A3010 RMK      A02 SLP197 T01351034 PA1436 DA1675=
0136008414999992015010616524+31000+061900FM-15+049099999V0201301N001019999999N999999999+01321-00381101901ADDMA1101901999999REMMET109MOBOB3 METAR XM18 //049 310619 061652Z AUTO 13002KT 13/M04 A3009 RMK      A02 SLP190 T01321038 PA1446 DA1650=
0136008414999992015010617524+31000+061900FM-15+049099999V0202401N001019999999N999999999+01191-00301101921ADDMA1101931999999REMMET109MOBOB3 METAR XM18 //049 310619 061752Z AUTO 24002KT 12/M03 A3010 RMK      A02 SLP192 T01191030 PA1436 DA1488=
0136008414999992015010618524+31000+061900FM-15+049099999V0202701N000519999999N999999999+01061-00321101881ADDMA1101901999999REMMET109MOBOB3 METAR XM18 //049 310619 061852Z AUTO 27001KT 11/M03 A3009 RMK      A02 SLP188 T01061032 PA1446 DA1344=
0136008414999992015010619524+31000+061900FM-15+049099999V0203501N001019999999N999999999+00941-00361101871ADDMA1101901999999REMMET109MOBOB3 METAR XM18 //049 310619 061952Z AUTO 35002KT 09/M04 A3009 RMK      A02 SLP187 T00941036 PA1446 DA1199=
0136008414999992015010620524+31000+061900FM-15+049099999V0202601N001019999999N999999999+00921-00271101861ADDMA1101901999999REMMET109MOBOB3 METAR XM18 //049 310619 062052Z AUTO 26002KT 09/M03 A3009 RMK      A02 SLP186 T00921027 PA1446 DA1179=
0136008414999992015010621524+31000+061900FM-15+049099999V0201101N000519999999N999999999+00901-00281101821ADDMA1101861999999REMMET109MOBOB3 METAR XM18 //049 310619 062152Z AUTO 11001KT 09/M03 A3008 RMK      A02 SLP182 T00901028 PA1455 DA1167=
0136008414999992015010622524+31000+061900FM-15+049099999V0201301N000519999999N999999999+00731-00291101841ADDMA1101861999999REMMET109MOBOB3 METAR XM18 //049 310619 062252Z AUTO 13001KT 07/M03 A3008 RMK      A02 SLP184 T00731029 PA1455 DA0962=
0136008414999992015010623524+31000+061900FM-15+049099999V0201401N000519999999N999999999+00731-00381101861ADDMA1101861999999REMMET109MOBOB3 METAR XM18 //049 310619 062352Z AUTO 14001KT 07/M04 A3008 RMK      A02 SLP186 T00731038 PA1455 DA0957=
0136008414999992015010700524+31000+061900FM-15+049099999V0201201N000519999999N999999999+00701-00441101931ADDMA1101901999999REMMET109MOBOB3 METAR XM18 //049 310619 070052Z AUTO 12001KT 07/M04 A3009 RMK      A02 SLP193 T00701044 PA1446 DA0906=
0136008414999992015010701524+31000+061900FM-15+049099999V0201601N000519999999N999999999+00701-00461102031ADDMA1101961999999REMMET109MOBOB3 METAR XM18 //049 310619 070152Z AUTO 16001KT 07/M05 A3011 RMK      A02 SLP203 T00701046 PA1427 DA0881=
0136008414999992015010702524+31000+061900FM-15+049099999V0202001N000519999999N999999999+00851-00541102101ADDMA1102031999999REMMET109MOBOB3 METAR XM18 //049 310619 070252Z AUTO 20001KT 09/M05 A3013 RMK      A02 SLP210 T00851054 PA1407 DA1035=
0136008414999992015010703524+31000+061900FM-15+049099999V0201901N001519999999N999999999+01081-00421102151ADDMA1102101999999REMMET109MOBOB3 METAR XM18 //049 310619 070352Z AUTO 19003KT 11/M04 A3015 RMK      A02 SLP215 T01081042 PA1388 DA1292=
0136008414999992015010704524+31000+061900FM-15+049099999V0201801N001019999999N999999999+01471-00351102141ADDMA1102131999999REMMET109MOBOB3 METAR XM18 //049 310619 070452Z AUTO 18002KT 15/M03 A3016 RMK      A02 SLP214 T01471035 PA1378 DA1745=
0136008414999992015010705524+31000+061900FM-15+049099999V0202001N001019999999N999999999+01711-00371102021ADDMA1102031999999REMMET109MOBOB3 METAR XM18 //049 310619 070552Z AUTO 20002KT 17/M04 A3013 RMK      A02 SLP202 T01711037 PA1407 DA2059=
0136008414999992015010706524+31000+061900FM-15+049099999V0201701N000519999999N999999999+01971-00381101901ADDMA1101931999999REMMET109MOBOB3 METAR XM18 //049 310619 070652Z AUTO 17001KT 20/M04 A3010 RMK      A02 SLP190 T01971038 PA1436 DA2394=
0136008414999992015010707524+31000+061900FM-15+049099999V0201301N000519999999N999999999+02111-00351101791ADDMA1101831999999REMMET109MOBOB3 METAR XM18 //049 310619 070752Z AUTO 13001KT 21/M04 A3007 RMK      A02 SLP179 T02111035 PA1465 DA2591=
0136008414999992015010708524+31000+061900FM-15+049099999V0201101N001019999999N999999999+02191-00361101721ADDMA1101761999999REMMET109MOBOB3 METAR XM18 //049 310619 070852Z AUTO 11002KT 22/M04 A3005 RMK      A02 SLP172 T02191036 PA1484 DA2706=
0136008414999992015010710524+31000+061900FM-15+049099999V0201101N001019999999N999999999+02171-00391101701ADDMA1101691999999REMMET109MOBOB3 METAR XM18 //049 310619 071052Z AUTO 11002KT 22/M04 A3003 RMK      A02 SLP170 T02171039 PA1494 DA2693=
0136008414999992015010711524+31000+061900FM-15+049099999V0200201N000519999999N999999999+02031-00311101721ADDMA1101691999999REMMET109MOBOB3 METAR XM18 //049 310619 071152Z AUTO 02001KT 20/M03 A3003 RMK      A02 SLP172 T02031031 PA1494 DA2538=
0136008414999992015010712524+31000+061900FM-15+049099999V0203201N000519999999N999999999+01611-00251101761ADDMA1101691999999REMMET109MOBOB3 METAR XM18 //049 310619 071252Z AUTO 32001KT 16/M02 A3003 RMK      A02 SLP176 T01611025 PA1494 DA2056=
0136008414999992015010713524+31000+061900FM-15+049099999V0202601N000519999999N999999999+01411-00281101781ADDMA1101691999999REMMET109MOBOB3 METAR XM18 //049 310619 071352Z AUTO 26001KT 14/M03 A3003 RMK      A02 SLP178 T01411028 PA1494 DA1820=
0136008414999992015010714524+31000+061900FM-15+049099999V0209999C000019999999N999999999+01401-00331101701ADDMA1101631999999REMMET109MOBOB3 METAR XM18 //049 310619 071452Z AUTO 00000KT 14/M03 A3001 RMK      A02 SLP170 T01401033 PA1513 DA1830=
0136008414999992015010715524+31000+061900FM-15+049099999V0203201N000519999999N999999999+01171-00331101701ADDMA1101631999999REMMET109MOBOB3 METAR XM18 //049 310619 071552Z AUTO 32001KT 12/M03 A3001 RMK      A02 SLP170 T01171033 PA1513 DA1558=
0136008414999992015010716524+31000+061900FM-15+049099999V0201401N000519999999N999999999+01251-00411101611ADDMA1101591999999REMMET109MOBOB3 METAR XM18 //049 310619 071652Z AUTO 14001KT 13/M04 A3000 RMK      A02 SLP161 T01251041 PA1523 DA1661=
0136008414999992015010717524+31000+061900FM-15+049099999V0200501N000519999999N999999999+01021-00441101611ADDMA1101591999999REMMET109MOBOB3 METAR XM18 //049 310619 071752Z AUTO 05001KT 10/M04 A3000 RMK      A02 SLP161 T01021044 PA1523 DA1387=
0136008414999992015010718524+31000+061900FM-15+049099999V0209999C000019999999N999999999+00901-00411101561ADDMA1101561999999REMMET109MOBOB3 METAR XM18 //049 310619 071852Z AUTO 00000KT 09/M04 A2999 RMK      A02 SLP156 T00901041 PA1533 DA1256=
0136008414999992015010719524+31000+061900FM-15+049099999V0200101N000519999999N999999999+00751-00401101491ADDMA1101491999999REMMET109MOBOB3 METAR XM18 //049 310619 071952Z AUTO 01001KT 08/M04 A2997 RMK      A02 SLP149 T00751040 PA1552 DA1101=
0136008414999992015010720524+31000+061900FM-15+049099999V0203401N001019999999N999999999+00561-00401101471ADDMA1101461999999REMMET109MOBOB3 METAR XM18 //049 310619 072052Z AUTO 34002KT 06/M04 A2996 RMK      A02 SLP147 T00561040 PA1562 DA0882=
0135008414999992015010721524+31000+061900FM-15+049099999V0203201N001019999999N999999999+00421-00561999999ADDMA1101421999999REMMET108MOBOB3 METAR XM18 //049 310619 072152Z AUTO 32002KT 04/M06 A2995 RMK      A02 SLPNO T00421056 PA1571 DA0716=
0136008414999992015010722524+31000+061900FM-15+049099999V0203101N000519999999N999999999+00551-00681101401ADDMA1101391999999REMMET109MOBOB3 METAR XM18 //049 310619 072252Z AUTO 31001KT 06/M07 A2994 RMK      A02 SLP140 T00551068 PA1581 DA0882=
0136008414999992015010723524+31000+061900FM-15+049099999V0200501N001519999999N999999999+00661-00511101401ADDMA1101391999999REMMET109MOBOB3 METAR XM18 //049 310619 072352Z AUTO 05003KT 07/M05 A2994 RMK      A02 SLP140 T00661051 PA1581 DA1022=
0136008414999992015010800524+31000+061900FM-15+049099999V0200801N001519999999N999999999+00671-00471101481ADDMA1101421999999REMMET109MOBOB3 METAR XM18 //049 310619 080052Z AUTO 08003KT 07/M05 A2995 RMK      A02 SLP148 T00671047 PA1571 DA1024=
0136008414999992015010801524+31000+061900FM-15+049099999V0200401N000519999999N999999999+00661-00561101571ADDMA1101491999999REMMET109MOBOB3 METAR XM18 //049 310619 080152Z AUTO 04001KT 07/M06 A2997 RMK      A02 SLP157 T00661056 PA1552 DA0984=
0136008414999992015010802524+31000+061900FM-15+049099999V0201301N000519999999N999999999+00691-00531101641ADDMA1101561999999REMMET109MOBOB3 METAR XM18 //049 310619 080252Z AUTO 13001KT 07/M05 A2999 RMK      A02 SLP164 T00691053 PA1533 DA0998=
0136008414999992015010803524+31000+061900FM-15+049099999V0200801N001019999999N999999999+01051-00521101671ADDMA1101591999999REMMET109MOBOB3 METAR XM18 //049 310619 080352Z AUTO 08002KT 11/M05 A3000 RMK      A02 SLP167 T01051052 PA1523 DA1419=
0136008414999992015010804524+31000+061900FM-15+049099999V0200701N002119999999N999999999+01371-00521101621ADDMA1101591999999REMMET109MOBOB3 METAR XM18 //049 310619 080452Z AUTO 07004KT 14/M05 A3000 RMK      A02 SLP162 T01371052 PA1523 DA1798=
0136008414999992015010805524+31000+061900FM-15+049099999V0200801N001519999999N999999999+01681-00451101471ADDMA1101461999999REMMET109MOBOB3 METAR XM18 //049 310619 080552Z AUTO 08003KT 17/M04 A2996 RMK      A02 SLP147 T01681045 PA1562 DA2211=
0136008414999992015010806524+31000+061900FM-15+049099999V0201101N001519999999N999999999+01951-00441101311ADDMA1101321999999REMMET109MOBOB3 METAR XM18 //049 310619 080652Z AUTO 11003KT 20/M04 A2992 RMK      A02 SLP131 T01951044 PA1601 DA2570=
0136008414999992015010807524+31000+061900FM-15+049099999V0201101N001019999999N999999999+02101-00391101201ADDMA1101221999999REMMET109MOBOB3 METAR XM18 //049 310619 080752Z AUTO 11002KT 21/M04 A2989 RMK      A02 SLP120 T02101039 PA1630 DA2780=
0136008414999992015010808524+31000+061900FM-15+049099999V0200301N000519999999N999999999+02231-00311101101ADDMA1101121999999REMMET109MOBOB3 METAR XM18 //049 310619 080852Z AUTO 03001KT 22/M03 A2986 RMK      A02 SLP110 T02231031 PA1659 DA2967=
0136008414999992015010809524+31000+061900FM-15+049099999V0200301N001019999999N999999999+02281-00321101081ADDMA1101081999999REMMET109MOBOB3 METAR XM18 //049 310619 080952Z AUTO 03002KT 23/M03 A2985 RMK      A02 SLP108 T02281032 PA1668 DA3035=
0136008414999992015010810524+31000+061900FM-15+049099999V0209999C000019999999N999999999+02221-00341101031ADDMA1101051999999REMMET109MOBOB3 METAR XM18 //049 310619 081052Z AUTO 00000KT 22/M03 A2984 RMK      A02 SLP103 T02221034 PA1678 DA2978=
0136008414999992015010811524+31000+061900FM-15+049099999V0203001N001019999999N999999999+02051-00341101041ADDMA1101051999999REMMET109MOBOB3 METAR XM18 //049 310619 081152Z AUTO 30002KT 21/M03 A2984 RMK      A02 SLP104 T02051034 PA1678 DA2785=
0136008414999992015010812524+31000+061900FM-15+049099999V0203301N000519999999N999999999+01731-00191101071ADDMA1101051999999REMMET109MOBOB3 METAR XM18 //049 310619 081252Z AUTO 33001KT 17/M02 A2984 RMK      A02 SLP107 T01731019 PA1678 DA2425=
0136008414999992015010813524+31000+061900FM-15+049099999V0203301N000519999999N999999999+01601-00251101121ADDMA1101081999999REMMET109MOBOB3 METAR XM18 //049 310619 081352Z AUTO 33001KT 16/M02 A2985 RMK      A02 SLP112 T01601025 PA1668 DA2259=
0136008414999992015010814524+31000+061900FM-15+049099999V0202801N000519999999N999999999+01441-00331101131ADDMA1101081999999REMMET109MOBOB3 METAR XM18 //049 310619 081452Z AUTO 28001KT 14/M03 A2985 RMK      A02 SLP113 T01441033 PA1668 DA2068=
0136008414999992015010815524+31000+061900FM-15+049099999V0202701N001519999999N999999999+01361-00311101111ADDMA1101081999999REMMET109MOBOB3 METAR XM18 //049 310619 081552Z AUTO 27003KT 14/M03 A2985 RMK      A02 SLP111 T01361031 PA1668 DA1975=
0136008414999992015010816524+31000+061900FM-15+049099999V0202801N003119999999N999999999+01321-00391101081ADDMA1101081999999REMMET109MOBOB3 METAR XM18 //049 310619 081652Z AUTO 28006KT 13/M04 A2985 RMK      A02 SLP108 T01321039 PA1668 DA1925=
0136008414999992015010817524+31000+061900FM-15+049099999V0202901N001519999999N999999999+01181-00411101061ADDMA1101081999999REMMET109MOBOB3 METAR XM18 //049 310619 081752Z AUTO 29003KT 12/M04 A2985 RMK      A02 SLP106 T01181041 PA1668 DA1758=
0136008414999992015010818524+31000+061900FM-15+049099999V0202701N001519999999N999999999+01101-00441101111ADDMA1101151999999REMMET109MOBOB3 METAR XM18 //049 310619 081852Z AUTO 27003KT 11/M04 A2987 RMK      A02 SLP111 T01101044 PA1649 DA1638=
0136008414999992015010819524+31000+061900FM-15+049099999V0202701N000519999999N999999999+00971-00461101111ADDMA1101151999999REMMET109MOBOB3 METAR XM18 //049 310619 081952Z AUTO 27001KT 10/M05 A2987 RMK      A02 SLP111 T00971046 PA1649 DA1482=
0136008414999992015010820524+31000+061900FM-15+049099999V0203401N000519999999N999999999+00901-00491101071ADDMA1101121999999REMMET109MOBOB3 METAR XM18 //049 310619 082052Z AUTO 34001KT 09/M05 A2986 RMK      A02 SLP107 T00901049 PA1659 DA1409=
0136008414999992015010821524+31000+061900FM-15+049099999V0209999C000019999999N999999999+00851-00491101101ADDMA1101151999999REMMET109MOBOB3 METAR XM18 //049 310619 082152Z AUTO 00000KT 09/M05 A2987 RMK      A02 SLP110 T00851049 PA1649 DA1337=
0136008414999992015010822524+31000+061900FM-15+049099999V0202101N000519999999N999999999+00931-00421101171ADDMA1101221999999REMMET109MOBOB3 METAR XM18 //049 310619 082252Z AUTO 21001KT 09/M04 A2989 RMK      A02 SLP117 T00931042 PA1630 DA1412=
0136008414999992015010823524+31000+061900FM-15+049099999V0203301N000519999999N999999999+00671-00311101291ADDMA1101291999999REMMET109MOBOB3 METAR XM18 //049 310619 082352Z AUTO 33001KT 07/M03 A2991 RMK      A02 SLP129 T00671031 PA1610 DA1080=
0136008414999992015010900524+31000+061900FM-15+049099999V0209999C000019999999N999999999+00581-00331101401ADDMA1101351999999REMMET109MOBOB3 METAR XM18 //049 310619 090052Z AUTO 00000KT 06/M03 A2993 RMK      A02 SLP140 T00581033 PA1591 DA0946=
0136008414999992015010901524+31000+061900FM-15+049099999V0201701N001019999999N999999999+00871-00271101491ADDMA1101461999999REMMET109MOBOB3 METAR XM18 //049 310619 090152Z AUTO 17002KT 09/M03 A2996 RMK      A02 SLP149 T00871027 PA1562 DA1263=
0136008414999992015010902524+31000+061900FM-15+049099999V0201601N000519999999N999999999+01021-00301101571ADDMA1101521999999REMMET109MOBOB3 METAR XM18 //049 310619 090252Z AUTO 16001KT 10/M03 A2998 RMK      A02 SLP157 T01021030 PA1542 DA1417=
0136008414999992015010903524+31000+061900FM-15+049099999V0209999C000019999999N999999999+01221-00241101701ADDMA1101661999999REMMET109MOBOB3 METAR XM18 //049 310619 090352Z AUTO 00000KT 12/M02 A3002 RMK      A02 SLP170 T01221024 PA1504 DA1610=
0136008414999992015010904524+31000+061900FM-15+049099999V0209999C000019999999N999999999+01601-00151101661ADDMA1101661999999REMMET109MOBOB3 METAR XM18 //049 310619 090452Z AUTO 00000KT 16/M02 A3002 RMK      A02 SLP166 T01601015 PA1504 DA2061=
0136008414999992015010905524+31000+061900FM-15+049099999V0202201N001519999999N999999999+01771-00101101661ADDMA1101661999999REMMET109MOBOB3 METAR XM18 //049 310619 090552Z AUTO 22003KT 18/M01 A3002 RMK      A02 SLP166 T01771010 PA1504 DA2261=
0136008414999992015010906524+31000+061900FM-15+049099999V0203301N003619999999N999999999+02041-00381101611ADDMA1101631999999REMMET109MOBOB3 METAR XM18 //049 310619 090652Z AUTO 33007KT 20/M04 A3001 RMK      A02 SLP161 T02041038 PA1513 DA2569=
0136008414999992015010908524+31000+061900FM-15+049099999V0203401N003619999999N999999999+02141-00611101471ADDMA1101491999999REMMET109MOBOB3 METAR XM18 //049 310619 090852Z AUTO 34007KT 21/M06 A2997 RMK      A02 SLP147 T02141061 PA1552 DA2721=
0136008414999992015010909524+31000+061900FM-15+049099999V0203501N003119999999N999999999+02231-00571101471ADDMA1101491999999REMMET109MOBOB3 METAR XM18 //049 310619 090952Z AUTO 35006KT 22/M06 A2997 RMK      A02 SLP147 T02231057 PA1552 DA2825=
0136008414999992015010910524+31000+061900FM-15+049099999V0203601N002619999999N999999999+02231-00341101461ADDMA1101491999999REMMET109MOBOB3 METAR XM18 //049 310619 091052Z AUTO 36005KT 22/M03 A2997 RMK      A02 SLP146 T02231034 PA1552 DA2835=
0136008414999992015010911524+31000+061900FM-15+049099999V0200201N002119999999N999999999+02031-00161101501ADDMA1101491999999REMMET109MOBOB3 METAR XM18 //049 310619 091152Z AUTO 02004KT 20/M02 A2997 RMK      A02 SLP150 T02031016 PA1552 DA2616=
0136008414999992015010912524+31000+061900FM-15+049099999V0203501N000519999999N999999999+01811-00351101541ADDMA1101491999999REMMET109MOBOB3 METAR XM18 //049 310619 091252Z AUTO 35001KT 18/M04 A2997 RMK      A02 SLP154 T01811035 PA1552 DA2354=
0136008414999992015010913524+31000+061900FM-15+049099999V0202801N001519999999N999999999+01621-00421101601ADDMA1101561999999REMMET109MOBOB3 METAR XM18 //049 310619 091352Z AUTO 28003KT 16/M04 A2999 RMK      A02 SLP160 T01621042 PA1533 DA2107=
0136008414999992015010914524+31000+061900FM-15+049099999V0203101N002619999999N999999999+01421-00191101601ADDMA1101561999999REMMET109MOBOB3 METAR XM18 //049 310619 091452Z AUTO 31005KT 14/M02 A2999 RMK      A02 SLP160 T01421019 PA1533 DA1884=
0136008414999992015010915524+31000+061900FM-15+049099999V0203101N002619999999N999999999+01331-00131101631ADDMA1101591999999REMMET109MOBOB3 METAR XM18 //049 310619 091552Z AUTO 31005KT 13/M01 A3000 RMK      A02 SLP163 T01331013 PA1523 DA1770=
0136008414999992015010916524+31000+061900FM-15+049099999V0203001N002119999999N999999999+01211-00131101641ADDMA1101631999999REMMET109MOBOB3 METAR XM18 //049 310619 091652Z AUTO 30004KT 12/M01 A3001 RMK      A02 SLP164 T01211013 PA1513 DA1616=
0136008414999992015010917524+31000+061900FM-15+049099999V0203101N002119999999N999999999+01111-00111101591ADDMA1101591999999REMMET109MOBOB3 METAR XM18 //049 310619 091752Z AUTO 31004KT 11/M01 A3000 RMK      A02 SLP159 T01111011 PA1523 DA1510=
0136008414999992015010918524+31000+061900FM-15+049099999V0203201N002119999999N999999999+01001-00091101581ADDMA1101591999999REMMET109MOBOB3 METAR XM18 //049 310619 091852Z AUTO 32004KT 10/M01 A3000 RMK      A02 SLP158 T01001009 PA1523 DA1381=
0135008414999992015010919524+31000+061900FM-15+049099999V0203301N002119999999N999999999+00911-00091999999ADDMA1101561999999REMMET108MOBOB3 METAR XM18 //049 310619 091952Z AUTO 33004KT 09/M01 A2999 RMK      A02 SLPNO T00911009 PA1533 DA1285=
0136008414999992015010920524+31000+061900FM-15+049099999V0203301N002619999999N999999999+00841-00111101551ADDMA1101561999999REMMET109MOBOB3 METAR XM18 //049 310619 092052Z AUTO 33005KT 08/M01 A2999 RMK      A02 SLP155 T00841011 PA1533 DA1200=
0136008414999992015010921524+31000+061900FM-15+049099999V0203301N002119999999N999999999+00731-00141101481ADDMA1101491999999REMMET109MOBOB3 METAR XM18 //049 310619 092152Z AUTO 33004KT 07/M01 A2997 RMK      A02 SLP148 T00731014 PA1552 DA1089=
0136008414999992015010922524+31000+061900FM-15+049099999V0202801N000519999999N999999999+00671-00141101521ADDMA1101521999999REMMET109MOBOB3 METAR XM18 //049 310619 092252Z AUTO 28001KT 07/M01 A2998 RMK      A02 SLP152 T00671014 PA1542 DA1005=
0136008414999992015010923524+31000+061900FM-15+049099999V0202901N001019999999N999999999+00651-00141101541ADDMA1101521999999REMMET109MOBOB3 METAR XM18 //049 310619 092352Z AUTO 29002KT 07/M01 A2998 RMK      A02 SLP154 T00651014 PA1542 DA0980=
0136008414999992015011000524+31000+061900FM-15+049099999V0202901N001519999999N999999999+00581-00151101611ADDMA1101561999999REMMET109MOBOB3 METAR XM18 //049 310619 100052Z AUTO 29003KT 06/M02 A2999 RMK      A02 SLP161 T00581015 PA1533 DA0882=
0136008414999992015011001524+31000+061900FM-15+049099999V0202701N001019999999N999999999+00521-00151101671ADDMA1101591999999REMMET109MOBOB3 METAR XM18 //049 310619 100152Z AUTO 27002KT 05/M02 A3000 RMK      A02 SLP167 T00521015 PA1523 DA0797=
0136008414999992015011002524+31000+061900FM-15+049099999V0202701N001519999999N999999999+00541-00151101801ADDMA1101691999999REMMET109MOBOB3 METAR XM18 //049 310619 100252Z AUTO 27003KT 05/M01 A3003 RMK      A02 SLP180 T00541015 PA1494 DA0786=
0136008414999992015011003524+31000+061900FM-15+049099999V0203201N001519999999N999999999+00771-00091101891ADDMA1101831999999REMMET109MOBOB3 METAR XM18 //049 310619 100352Z AUTO 32003KT 08/M01 A3007 RMK      A02 SLP189 T00771009 PA1465 DA1032=
0136008414999992015011004524+31000+061900FM-15+049099999V0203301N000519999999N999999999+01071-00071101911ADDMA1101861999999REMMET109MOBOB3 METAR XM18 //049 310619 100452Z AUTO 33001KT 11/M01 A3008 RMK      A02 SLP191 T01071007 PA1455 DA1382=
0136008414999992015011005524+31000+061900FM-15+049099999V0200801N000519999999N999999999+01351-00071101781ADDMA1101761999999REMMET109MOBOB3 METAR XM18 //049 310619 100552Z AUTO 08001KT 14/M01 A3005 RMK      A02 SLP178 T01351007 PA1484 DA1749=
0136008414999992015011006524+31000+061900FM-15+049099999V0200901N001519999999N999999999+01501-00131101631ADDMA1101591999999REMMET109MOBOB3 METAR XM18 //049 310619 100652Z AUTO 09003KT 15/M01 A3000 RMK      A02 SLP163 T01501013 PA1523 DA1969=
0136008414999992015011007524+31000+061900FM-15+049099999V0201101N001019999999N999999999+01721-00121101511ADDMA1101491999999REMMET109MOBOB3 METAR XM18 //049 310619 100752Z AUTO 11002KT 17/M01 A2997 RMK      A02 SLP151 T01721012 PA1552 DA2262=
0136008414999992015011008524+31000+061900FM-15+049099999V0201201N002619999999N999999999+01791-00181101401ADDMA1101391999999REMMET109MOBOB3 METAR XM18 //049 310619 100852Z AUTO 12005KT 18/M02 A2994 RMK      A02 SLP140 T01791018 PA1581 DA2375=
0136008414999992015011010524+31000+061900FM-15+049099999V0200901N001519999999N999999999+01931-00201101301ADDMA1101291999999REMMET109MOBOB3 METAR XM18 //049 310619 101052Z AUTO 09003KT 19/M02 A2991 RMK      A02 SLP130 T01931020 PA1610 DA2571=
0136008414999992015011011524+31000+061900FM-15+049099999V0209999C000019999999N999999999+01801-00101101311ADDMA1101291999999REMMET109MOBOB3 METAR XM18 //049 310619 101152Z AUTO 00000KT 18/M01 A2991 RMK      A02 SLP131 T01801010 PA1610 DA2427=
0136008414999992015011012524+31000+061900FM-15+049099999V0202901N000519999999N999999999+01571-00051101381ADDMA1101321999999REMMET109MOBOB3 METAR XM18 //049 310619 101252Z AUTO 29001KT 16/M01 A2992 RMK      A02 SLP138 T01571005 PA1601 DA2151=
0136008414999992015011013524+31000+061900FM-15+049099999V0201501N000519999999N999999999+01501-00081101471ADDMA1101391999999REMMET109MOBOB3 METAR XM18 //049 310619 101352Z AUTO 15001KT 15/M01 A2994 RMK      A02 SLP147 T01501008 PA1581 DA2044=
0136008414999992015011014524+31000+061900FM-15+049099999V0203001N001019999999N999999999+01581-00071101461ADDMA1101391999999REMMET109MOBOB3 METAR XM18 //049 310619 101452Z AUTO 30002KT 16/M01 A2994 RMK      A02 SLP146 T01581007 PA1581 DA2138=
0136008414999992015011015524+31000+061900FM-15+049099999V0203301N000519999999N999999999+01301-00081101461ADDMA1101391999999REMMET109MOBOB3 METAR XM18 //049 310619 101552Z AUTO 33001KT 13/M01 A2994 RMK      A02 SLP146 T01301008 PA1581 DA1809=
0136008414999992015011016524+31000+061900FM-15+049099999V0203501N001519999999N999999999+01301-00021101391ADDMA1101351999999REMMET109MOBOB3 METAR XM18 //049 310619 101652Z AUTO 35003KT 13/M00 A2993 RMK      A02 SLP139 T01301002 PA1591 DA1824=
0136008414999992015011017524+31000+061900FM-15+049099999V0201601N001019999999N999999999+01511-00071101311ADDMA1101321999999REMMET109MOBOB3 METAR XM18 //049 310619 101752Z AUTO 16002KT 15/M01 A2992 RMK      A02 SLP131 T01511007 PA1601 DA2080=
0136008414999992015011018524+31000+061900FM-15+049099999V0201401N001019999999N999999999+01461-00061101301ADDMA1101321999999REMMET109MOBOB3 METAR XM18 //049 310619 101852Z AUTO 14002KT 15/M01 A2992 RMK      A02 SLP130 T01461006 PA1601 DA2022=
0136008414999992015011019524+31000+061900FM-15+049099999V0203301N001519999999N999999999+00981-00051101321ADDMA1101321999999REMMET109MOBOB3 METAR XM18 //049 310619 101952Z AUTO 33003KT 10/M00 A2992 RMK      A02 SLP132 T00981005 PA1601 DA1455=
0136008414999992015011020524+31000+061900FM-15+049099999V0209999C000019999999N999999999+00971-00141101361ADDMA1101351999999REMMET109MOBOB3 METAR XM18 //049 310619 102052Z AUTO 00000KT 10/M01 A2993 RMK      A02 SLP136 T00971014 PA1591 DA1426=
0135008414999992015011021524+31000+061900FM-15+049099999V0201001N000519999999N999999999+00951-00121999999ADDMA1101391999999REMMET108MOBOB3 METAR XM18 //049 310619 102152Z AUTO 10001KT 10/M01 A2994 RMK      A02 SLPNO T00951012 PA1581 DA1391=
0136008414999992015011022524+31000+061900FM-15+049099999V0203501N000519999999N999999999+01001-00071101411ADDMA1101421999999REMMET109MOBOB3 METAR XM18 //049 310619 102252Z AUTO 35001KT 10/M01 A2995 RMK      A02 SLP141 T01001007 PA1571 DA1442=
0136008414999992015011023524+31000+061900FM-15+049099999V0203301N001019999999N999999999+00911-00141101471ADDMA1101461999999REMMET109MOBOB3 METAR XM18 //049 310619 102352Z AUTO 33002KT 09/M01 A2996 RMK      A02 SLP147 T00911014 PA1562 DA1318=
0136008414999992015011100524+31000+061900FM-15+049099999V0201401N001019999999N999999999+01011-00141101521ADDMA1101491999999REMMET109MOBOB3 METAR XM18 //049 310619 110052Z AUTO 14002KT 10/M01 A2997 RMK      A02 SLP152 T01011014 PA1552 DA1426=
0136008414999992015011101524+31000+061900FM-15+049099999V0201101N001019999999N999999999+00961-00101101601ADDMA1101561999999REMMET109MOBOB3 METAR XM18 //049 310619 110152Z AUTO 11002KT 10/M01 A2999 RMK      A02 SLP160 T00961010 PA1533 DA1344=
0136008414999992015011102524+31000+061900FM-15+049099999V0201401N001019999999N999999999+01181-00071101681ADDMA1101661999999REMMET109MOBOB3 METAR XM18 //049 310619 110252Z AUTO 14002KT 12/M01 A3002 RMK      A02 SLP168 T01181007 PA1504 DA1572=
0135008414999992015011103524+31000+061900FM-15+049099999V0200701N001019999999N999999999+01531+00041101811ADDMA1101831999999REMMET108MOBOB3 METAR XM18 //049 310619 110352Z AUTO 07002KT 15/00 A3007 RMK      A02 SLP181 T01530004 PA1465 DA1942=
0135008414999992015011104524+31000+061900FM-15+049099999V0203501N001519999999N999999999+01701+00111101871ADDMA1101901999999REMMET108MOBOB3 METAR XM18 //049 310619 110452Z AUTO 35003KT 17/01 A3009 RMK      A02 SLP187 T01700011 PA1446 DA2121=
0135008414999992015011105524+31000+061900FM-15+049099999V0203101N001019999999N999999999+01921+00171101791ADDMA1101861999999REMMET108MOBOB3 METAR XM18 //049 310619 110552Z AUTO 31002KT 19/02 A3008 RMK      A02 SLP179 T01920017 PA1455 DA2391=
0135008414999992015011106524+31000+061900FM-15+049099999V0203201N003119999999N999999999+02131+00071101661ADDMA1101761999999REMMET108MOBOB3 METAR XM18 //049 310619 110652Z AUTO 32006KT 21/01 A3005 RMK      A02 SLP166 T02130007 PA1484 DA2660=
0135008414999992015011107524+31000+061900FM-15+049099999V0203501N003619999999N999999999+02151+00011101641ADDMA1101661999999REMMET108MOBOB3 METAR XM18 //049 310619 110752Z AUTO 35007KT 22/00 A3002 RMK      A02 SLP164 T02150001 PA1504 DA2703=
0135008414999992015011108524+31000+061900FM-15+049099999V0200101N003119999999N999999999+02311+00081101551ADDMA1101591999999REMMET108MOBOB3 METAR XM18 //049 310619 110852Z AUTO 01006KT 23/01 A3000 RMK      A02 SLP155 T02310008 PA1523 DA2913=
0135008414999992015011109524+31000+061900FM-15+049099999V0200501N002619999999N999999999+02351+00171101551ADDMA1101591999999REMMET108MOBOB3 METAR XM18 //049 310619 110952Z AUTO 05005KT 24/02 A3000 RMK      A02 SLP155 T02350017 PA1523 DA2964=
0135008414999992015011110524+31000+061900FM-15+049099999V0200401N002119999999N999999999+02321+00211101551ADDMA1101591999999REMMET108MOBOB3 METAR XM18 //049 310619 111052Z AUTO 04004KT 23/02 A3000 RMK      A02 SLP155 T02320021 PA1523 DA2932=
0135008414999992015011111524+31000+061900FM-15+049099999V0200401N001519999999N999999999+02181+00271101601ADDMA1101631999999REMMET108MOBOB3 METAR XM18 //049 310619 111152Z AUTO 04003KT 22/03 A3001 RMK      A02 SLP160 T02180027 PA1513 DA2766=
0135008414999992015011112524+31000+061900FM-15+049099999V0200301N001519999999N999999999+01951+00171101651ADDMA1101661999999REMMET108MOBOB3 METAR XM18 //049 310619 111252Z AUTO 03003KT 20/02 A3002 RMK      A02 SLP165 T01950017 PA1504 DA2485=
0135008414999992015011113524+31000+061900FM-15+049099999V0203301N001019999999N999999999+01631+00101101691ADDMA1101661999999REMMET108MOBOB3 METAR XM18 //049 310619 111352Z AUTO 33002KT 16/01 A3002 RMK      A02 SLP169 T01630010 PA1504 DA2111=
0135008414999992015011114524+31000+061900FM-15+049099999V0203301N003119999999N999999999+01591+00261101671ADDMA1101661999999REMMET108MOBOB3 METAR XM18 //049 310619 111452Z AUTO 33006KT 16/03 A3002 RMK      A02 SLP167 T01590026 PA1504 DA2075=
0135008414999992015011115524+31000+061900FM-15+049099999V0203401N003119999999N999999999+01501+00201101681ADDMA1101691999999REMMET108MOBOB3 METAR XM18 //049 310619 111552Z AUTO 34006KT 15/02 A3003 RMK      A02 SLP168 T01500020 PA1494 DA1953=
0135008414999992015011116524+31000+061900FM-15+049099999V0203201N002619999999N999999999+01411+00151101681ADDMA1101691999999REMMET108MOBOB3 METAR XM18 //049 310619 111652Z AUTO 32005KT 14/01 A3003 RMK      A02 SLP168 T01410015 PA1494 DA1845=
0135008414999992015011117524+31000+061900FM-15+049099999V0203301N002619999999N999999999+01371+00121101621ADDMA1101661999999REMMET108MOBOB3 METAR XM18 //049 310619 111752Z AUTO 33005KT 14/01 A3002 RMK      A02 SLP162 T01370012 PA1504 DA1808=
0135008414999992015011118524+31000+061900FM-15+049099999V0203201N003119999999N999999999+01311+00111101611ADDMA1101661999999REMMET108MOBOB3 METAR XM18 //049 310619 111852Z AUTO 32006KT 13/01 A3002 RMK      A02 SLP161 T01310011 PA1504 DA1736=
0135008414999992015011119524+31000+061900FM-15+049099999V0203301N002119999999N999999999+01211+00111101541ADDMA1101591999999REMMET108MOBOB3 METAR XM18 //049 310619 111952Z AUTO 33004KT 12/01 A3000 RMK      A02 SLP154 T01210011 PA1523 DA1642=
0135008414999992015011120524+31000+061900FM-15+049099999V0203201N001519999999N999999999+01181+00121101531ADDMA1101591999999REMMET108MOBOB3 METAR XM18 //049 310619 112052Z AUTO 32003KT 12/01 A3000 RMK      A02 SLP153 T01180012 PA1523 DA1607=
0135008414999992015011121524+31000+061900FM-15+049099999V0203001N001019999999N999999999+01171+00111101491ADDMA1101561999999REMMET108MOBOB3 METAR XM18 //049 310619 112152Z AUTO 30002KT 12/01 A2999 RMK      A02 SLP149 T01170011 PA1533 DA1607=
0135008414999992015011122524+31000+061900FM-15+049099999V0203101N001519999999N999999999+01041+00081101471ADDMA1101521999999REMMET108MOBOB3 METAR XM18 //049 310619 112252Z AUTO 31003KT 10/01 A2998 RMK      A02 SLP147 T01040008 PA1542 DA1462=
0135008414999992015011123524+31000+061900FM-15+049099999V0203101N002119999999N999999999+01021+00081101521ADDMA1101561999999REMMET108MOBOB3 METAR XM18 //049 310619 112352Z AUTO 31004KT 10/01 A2999 RMK      A02 SLP152 T01020008 PA1533 DA1426=
0135008414999992015011200524+31000+061900FM-15+049099999V0202901N002119999999N999999999+00911+00061101561ADDMA1101561999999REMMET108MOBOB3 METAR XM18 //049 310619 120052Z AUTO 29004KT 09/01 A2999 RMK      A02 SLP156 T00910006 PA1533 DA1294=
0135008414999992015011201524+31000+061900FM-15+049099999V0202801N001019999999N999999999+00871+00061101701ADDMA1101661999999REMMET108MOBOB3 METAR XM18 //049 310619 120152Z AUTO 28002KT 09/01 A3002 RMK      A02 SLP170 T00870006 PA1504 DA1210=
0135008414999992015011202524+31000+061900FM-15+049099999V0203001N001519999999N999999999+00911+00091101741ADDMA1101691999999REMMET108MOBOB3 METAR XM18 //049 310619 120252Z AUTO 30003KT 09/01 A3003 RMK      A02 SLP174 T00910009 PA1494 DA1248=
0135008414999992015011203524+31000+061900FM-15+049099999V0202701N001019999999N999999999+01131+00151101831ADDMA1101831999999REMMET108MOBOB3 METAR XM18 //049 310619 120352Z AUTO 27002KT 11/02 A3007 RMK      A02 SLP183 T01130015 PA1465 DA1478=
0135008414999992015011204524+31000+061900FM-15+049099999V0203001N001519999999N999999999+01441+00231101811ADDMA1101831999999REMMET108MOBOB3 METAR XM18 //049 310619 120452Z AUTO 30003KT 14/02 A3007 RMK      A02 SLP181 T01440023 PA1465 DA1849=
0135008414999992015011205524+31000+061900FM-15+049099999V0203101N002619999999N999999999+01681+00251101721ADDMA1101761999999REMMET108MOBOB3 METAR XM18 //049 310619 120552Z AUTO 31005KT 17/02 A3005 RMK      A02 SLP172 T01680025 PA1484 DA2155=
0135008414999992015011206524+31000+061900FM-15+049099999V0203001N002619999999N999999999+01871+00251101631ADDMA1101661999999REMMET108MOBOB3 METAR XM18 //049 310619 120652Z AUTO 30005KT 19/03 A3002 RMK      A02 SLP163 T01870025 PA1504 DA2399=
0135008414999992015011207524+31000+061900FM-15+049099999V0202901N003119999999N999999999+02031+00311101591ADDMA1101631999999REMMET108MOBOB3 METAR XM18 //049 310619 120752Z AUTO 29006KT 20/03 A3001 RMK      A02 SLP159 T02030031 PA1513 DA2598=
0135008414999992015011208524+31000+061900FM-15+049099999V0202901N002619999999N999999999+02111+00331101551ADDMA1101591999999REMMET108MOBOB3 METAR XM18 //049 310619 120852Z AUTO 29005KT 21/03 A3000 RMK      A02 SLP155 T02110033 PA1523 DA2702=
0135008414999992015011209524+31000+061900FM-15+049099999V0203101N002619999999N999999999+02131+00331101511ADDMA1101561999999REMMET108MOBOB3 METAR XM18 //049 310619 120952Z AUTO 31005KT 21/03 A2999 RMK      A02 SLP151 T02130033 PA1533 DA2737=
0135008414999992015011210524+31000+061900FM-15+049099999V0203301N003619999999N999999999+02061+00231101601ADDMA1101631999999REMMET108MOBOB3 METAR XM18 //049 310619 121052Z AUTO 33007KT 21/02 A3001 RMK      A02 SLP160 T02060023 PA1513 DA2627=
0135008414999992015011211524+31000+061900FM-15+049099999V0203101N002619999999N999999999+01931+00001101691ADDMA1101691999999REMMET108MOBOB3 METAR XM18 //049 310619 121152Z AUTO 31005KT 19/00 A3003 RMK      A02 SLP169 T01930000 PA1494 DA2439=
0135008414999992015011212524+31000+061900FM-15+049099999V0203001N003119999999N999999999+01731+00041101831ADDMA1101831999999REMMET108MOBOB3 METAR XM18 //049 310619 121252Z AUTO 30006KT 17/00 A3007 RMK      A02 SLP183 T01730004 PA1465 DA2175=
0147008414999992015011213524+31000+061900FM-15+049099999V0203101N004119999999N999999999+01611-00121101961ADDMA1101931999999OC100931REMMET112MOBOB3 METAR XM18 //049 310619 121352Z AUTO 31008G18KT 16/M01 A3010      RMK A02 SLP196 T01611012 PA1436 DA1991=
0147008414999992015011214524+31000+061900FM-15+049099999V0203101N003619999999N999999999+01461-00141102081ADDMA1102031999999OC100721REMMET112MOBOB3 METAR XM18 //049 310619 121452Z AUTO 31007G14KT 15/M01 A3013      RMK A02 SLP208 T01461014 PA1407 DA1779=
0147008414999992015011215524+31000+061900FM-15+049099999V0203201N003619999999N999999999+01391-00161102171ADDMA1102131999999OC100671REMMET112MOBOB3 METAR XM18 //049 310619 121552Z AUTO 32007G13KT 14/M02 A3016      RMK A02 SLP217 T01391016 PA1378 DA1660=
0136008414999992015011216524+31000+061900FM-15+049099999V0203101N002619999999N999999999+01281-00161102181ADDMA1102171999999REMMET109MOBOB3 METAR XM18 //049 310619 121652Z AUTO 31005KT 13/M02 A3017 RMK      A02 SLP218 T01281016 PA1369 DA1519=
0147008414999992015011217524+31000+061900FM-15+049099999V0203001N003619999999N999999999+01211-00211102171ADDMA1102171999999OC100721REMMET112MOBOB3 METAR XM18 //049 310619 121752Z AUTO 30007G14KT 12/M02 A3017      RMK A02 SLP217 T01211021 PA1369 DA1433=
0147008414999992015011218524+31000+061900FM-15+049099999V0202901N003619999999N999999999+01131-00261102231ADDMA1102231999999OC100671REMMET112MOBOB3 METAR XM18 //049 310619 121852Z AUTO 29007G13KT 11/M03 A3019      RMK A02 SLP223 T01131026 PA1350 DA1312=
0147008414999992015011219524+31000+061900FM-15+049099999V0203001N004119999999N999999999+01021-00281102221ADDMA1102231999999OC100721REMMET112MOBOB3 METAR XM18 //049 310619 121952Z AUTO 30008G14KT 10/M03 A3019      RMK A02 SLP222 T01021028 PA1350 DA1179=
0147008414999992015011220524+31000+061900FM-15+049099999V0203001N003619999999N999999999+00911-00291102261ADDMA1102271999999OC100671REMMET112MOBOB3 METAR XM18 //049 310619 122052Z AUTO 30007G13KT 09/M03 A3020      RMK A02 SLP226 T00911029 PA1340 DA1035=
0147008414999992015011221524+31000+061900FM-15+049099999V0202901N005119999999N999999999+00851-00241102271ADDMA1102271999999OC100881REMMET112MOBOB3 METAR XM18 //049 310619 122152Z AUTO 29010G17KT 09/M02 A3020      RMK A02 SLP227 T00851024 PA1340 DA0966=
0147008414999992015011222524+31000+061900FM-15+049099999V0203001N004119999999N999999999+00821-00161102281ADDMA1102271999999OC100771REMMET112MOBOB3 METAR XM18 //049 310619 122252Z AUTO 30008G15KT 08/M02 A3020      RMK A02 SLP228 T00821016 PA1340 DA0933=
0147008414999992015011223524+31000+061900FM-15+049099999V0203101N003619999999N999999999+00811-00191102361ADDMA1102341999999OC100771REMMET112MOBOB3 METAR XM18 //049 310619 122352Z AUTO 31007G15KT 08/M02 A3022      RMK A02 SLP236 T00811019 PA1321 DA0896=
0136008414999992015011300524+31000+061900FM-15+049099999V0203001N003119999999N999999999+00761-00191102461ADDMA1102401999999REMMET109MOBOB3 METAR XM18 //049 310619 130052Z AUTO 30006KT 08/M02 A3024 RMK      A02 SLP246 T00761019 PA1301 DA0812=
0147008414999992015011301524+31000+061900FM-15+049099999V0202901N004619999999N999999999+00781-00191102541ADDMA1102511999999OC100821REMMET112MOBOB3 METAR XM18 //049 310619 130152Z AUTO 29009G16KT 08/M02 A3027      RMK A02 SLP254 T00781019 PA1282 DA0812=
0147008414999992015011302524+31000+061900FM-15+049099999V0202901N004119999999N999999999+00811-00201102631ADDMA1102571999999OC100671REMMET112MOBOB3 METAR XM18 //049 310619 130252Z AUTO 29008G13KT 08/M02 A3029      RMK A02 SLP263 T00811020 PA1263 DA0824=
0147008414999992015011303524+31000+061900FM-15+049099999V0202801N004619999999N999999999+00951-00181102731ADDMA1102671999999OC100821REMMET112MOBOB3 METAR XM18 //049 310619 130352Z AUTO 28009G16KT 10/M02 A3032      RMK A02 SLP273 T00951018 PA1234 DA0958=
0147008414999992015011304524+31000+061900FM-15+049099999V0203001N005719999999N999999999+01171-00301102721ADDMA1102671999999OC101131REMMET112MOBOB3 METAR XM18 //049 310619 130452Z AUTO 30011G22KT 12/M03 A3032      RMK A02 SLP272 T01171030 PA1234 DA1215=
0147008414999992015011305524+31000+061900FM-15+049099999V0203001N006719999999N999999999+01301-00381102681ADDMA1102641999999OC101081REMMET112MOBOB3 METAR XM18 //049 310619 130552Z AUTO 30013G21KT 13/M04 A3031      RMK A02 SLP268 T01301038 PA1244 DA1377=
0147008414999992015011306524+31000+061900FM-15+049099999V0203101N006219999999N999999999+01421-00481102531ADDMA1102511999999OC101081REMMET112MOBOB3 METAR XM18 //049 310619 130652Z AUTO 31012G21KT 14/M05 A3027      RMK A02 SLP253 T01421048 PA1282 DA1561=
0147008414999992015011307524+31000+061900FM-15+049099999V0203201N006219999999N999999999+01531-00641102391ADDMA1102341999999OC101181REMMET112MOBOB3 METAR XM18 //049 310619 130752Z AUTO 32012G23KT 15/M06 A3022      RMK A02 SLP239 T01531064 PA1321 DA1731=
0147008414999992015011308524+31000+061900FM-15+049099999V0203201N005119999999N999999999+01631-00751102281ADDMA1102231999999OC100981REMMET112MOBOB3 METAR XM18 //049 310619 130852Z AUTO 32010G19KT 16/M08 A3019      RMK A02 SLP228 T01631075 PA1350 DA1879=
0147008414999992015011310524+31000+061900FM-15+049099999V0203001N004119999999N999999999+01621-00841102291ADDMA1102231999999OC100881REMMET112MOBOB3 METAR XM18 //049 310619 131052Z AUTO 30008G17KT 16/M08 A3019      RMK A02 SLP229 T01621084 PA1350 DA1865=
0147008414999992015011311524+31000+061900FM-15+049099999V0203101N004119999999N999999999+01531-01051102341ADDMA1102271999999OC100721REMMET112MOBOB3 METAR XM18 //049 310619 131152Z AUTO 31008G14KT 15/M11 A3020      RMK A02 SLP234 T01531105 PA1340 DA1741=
0136008414999992015011312524+31000+061900FM-15+049099999V0202901N003119999999N999999999+01301-01061102371ADDMA1102271999999REMMET109MOBOB3 METAR XM18 //049 310619 131252Z AUTO 29006KT 13/M11 A3020 RMK      A02 SLP237 T01301106 PA1340 DA1471=
0147008414999992015011313524+31000+061900FM-15+049099999V0203201N005119999999N999999999+01251-01041102411ADDMA1102301999999OC100821REMMET112MOBOB3 METAR XM18 //049 310619 131352Z AUTO 32010G16KT 13/M10 A3021      RMK A02 SLP241 T01251104 PA1330 DA1400=
0136008414999992015011314534+31000+061900FM-15+049099999V0202901N003619999999N999999999+01161-01021102491ADDMA1102371999999REMMET109MOBOB3 METAR XM18 //049 310619 131453Z AUTO 29007KT 12/M10 A3023 RMK      A02 SLP249 T01161102 PA1311 DA1270=
0136008414999992015011315524+31000+061900FM-15+049099999V0202901N003619999999N999999999+01031-00961102481ADDMA1102371999999REMMET109MOBOB3 METAR XM18 //049 310619 131552Z AUTO 29007KT 10/M10 A3023 RMK      A02 SLP248 T01031096 PA1311 DA1117=
0136008414999992015011316534+31000+061900FM-15+049099999V0202901N003619999999N999999999+00931-01021102471ADDMA1102371999999REMMET109MOBOB3 METAR XM18 //049 310619 131653Z AUTO 29007KT 09/M10 A3023 RMK      A02 SLP247 T00931102 PA1311 DA0995=
0136008414999992015011317544+31000+061900FM-15+049099999V0203001N003119999999N999999999+00811-01051102431ADDMA1102341999999REMMET109MOBOB3 METAR XM18 //049 310619 131754Z AUTO 30006KT 08/M11 A3022 RMK      A02 SLP243 T00811105 PA1321 DA0862=
0136008414999992015011318524+31000+061900FM-15+049099999V0203101N001519999999N999999999+00731-01071102431ADDMA1102341999999REMMET109MOBOB3 METAR XM18 //049 310619 131852Z AUTO 31003KT 07/M11 A3022 RMK      A02 SLP243 T00731107 PA1321 DA0764=
0136008414999992015011319524+31000+061900FM-15+049099999V0202701N002119999999N999999999+00611-01041102471ADDMA1102371999999REMMET109MOBOB3 METAR XM18 //049 310619 131952Z AUTO 27004KT 06/M10 A3023 RMK      A02 SLP247 T00611104 PA1311 DA0607=
0136008414999992015011320554+31000+061900FM-15+049099999V0203001N001519999999N999999999+00581-01011102461ADDMA1102371999999REMMET109MOBOB3 METAR XM18 //049 310619 132055Z AUTO 30003KT 06/M10 A3023 RMK      A02 SLP246 T00581101 PA1311 DA0572=
0135008414999992015011321524+31000+061900FM-15+049099999V0203301N002619999999N999999999+00511-00961999999ADDMA1102341999999REMMET108MOBOB3 METAR XM18 //049 310619 132152Z AUTO 33005KT 05/M10 A3022 RMK      A02 SLPNO T00511096 PA1321 DA0500=
0136008414999992015011322524+31000+061900FM-15+049099999V0202901N003619999999N999999999+00531-00901102391ADDMA1102301999999REMMET109MOBOB3 METAR XM18 //049 310619 132252Z AUTO 29007KT 05/M09 A3021 RMK      A02 SLP239 T00531090 PA1330 DA0538=
0136008414999992015011323524+31000+061900FM-15+049099999V0202901N003619999999N999999999+00511-00891102441ADDMA1102341999999REMMET109MOBOB3 METAR XM18 //049 310619 132352Z AUTO 29007KT 05/M09 A3022 RMK      A02 SLP244 T00511089 PA1321 DA0502=
0136008414999992015011400524+31000+061900FM-15+049099999V0202801N002119999999N999999999+00381-00911102551ADDMA1102401999999REMMET109MOBOB3 METAR XM18 //049 310619 140052Z AUTO 28004KT 04/M09 A3024 RMK      A02 SLP255 T00381091 PA1301 DA0318=
0136008414999992015011401524+31000+061900FM-15+049099999V0203001N002119999999N999999999+00361-00871102601ADDMA1102471999999REMMET109MOBOB3 METAR XM18 //049 310619 140152Z AUTO 30004KT 04/M09 A3026 RMK      A02 SLP260 T00361087 PA1292 DA0283=
0136008414999992015011402564+31000+061900FM-15+049099999V0203001N002119999999N999999999+00441-00801102671ADDMA1102541999999REMMET109MOBOB3 METAR XM18 //049 310619 140256Z AUTO 30004KT 04/M08 A3028 RMK      A02 SLP267 T00441080 PA1273 DA0360=
0147008414999992015011403534+31000+061900FM-15+049099999V0203201N004619999999N999999999+00911-00751102701ADDMA1102611999999OC100821REMMET112MOBOB3 METAR XM18 //049 310619 140353Z AUTO 32009G16KT 09/M08 A3030      RMK A02 SLP270 T00911075 PA1253 DA0908=
0147008414999992015011404534+31000+061900FM-15+049099999V0203201N004619999999N999999999+01131-00761102731ADDMA1102641999999OC100821REMMET112MOBOB3 METAR XM18 //049 310619 140453Z AUTO 32009G16KT 11/M08 A3031      RMK A02 SLP273 T01131076 PA1244 DA1160=
0147008414999992015011405524+31000+061900FM-15+049099999V0203301N004119999999N999999999+01361-00781102681ADDMA1102611999999OC100721REMMET112MOBOB3 METAR XM18 //049 310619 140552Z AUTO 33008G14KT 14/M08 A3030      RMK A02 SLP268 T01361078 PA1253 DA1443=
0147008414999992015011406524+31000+061900FM-15+049099999V0203101N003619999999N999999999+01551-00811102521ADDMA1102471999999OC100671REMMET112MOBOB3 METAR XM18 //049 310619 140652Z AUTO 31007G13KT 16/M08 A3026      RMK A02 SLP252 T01551081 PA1292 DA1713=
0147008414999992015011407524+31000+061900FM-15+049099999V0203101N003619999999N999999999+01721-00861102451ADDMA1102371999999OC100771REMMET112MOBOB3 METAR XM18 //049 310619 140752Z AUTO 31007G15KT 17/M09 A3023      RMK A02 SLP245 T01721086 PA1311 DA1933=
0147008414999992015011408524+31000+061900FM-15+049099999V0203301N004119999999N999999999+01831-00911102371ADDMA1102301999999OC100721REMMET112MOBOB3 METAR XM18 //049 310619 140852Z AUTO 33008G14KT 18/M09 A3021      RMK A02 SLP237 T01831091 PA1330 DA2082=
0147008414999992015011409524+31000+061900FM-15+049099999V0203301N004119999999N999999999+01881-01031102331ADDMA1102271999999OC100721REMMET112MOBOB3 METAR XM18 //049 310619 140952Z AUTO 33008G14KT 19/M10 A3020      RMK A02 SLP233 T01881103 PA1340 DA2148=
0136008414999992015011410524+31000+061900FM-15+049099999V0203101N003619999999N999999999+01851-00981102331ADDMA1102271999999REMMET109MOBOB3 METAR XM18 //049 310619 141052Z AUTO 31007KT 19/M10 A3020 RMK      A02 SLP233 T01851098 PA1340 DA2115=
0136008414999992015011411524+31000+061900FM-15+049099999V0203201N002619999999N999999999+01701-01101102421ADDMA1102341999999REMMET109MOBOB3 METAR XM18 //049 310619 141152Z AUTO 32005KT 17/M11 A3022 RMK      A02 SLP242 T01701110 PA1321 DA1914=
0136008414999992015011412524+31000+061900FM-15+049099999V0203201N002619999999N999999999+01451-01041102461ADDMA1102341999999REMMET109MOBOB3 METAR XM18 //049 310619 141252Z AUTO 32005KT 15/M10 A3022 RMK      A02 SLP246 T01451104 PA1321 DA1624=
0136008414999992015011413524+31000+061900FM-15+049099999V0203001N002119999999N999999999+01231-01031102561ADDMA1102401999999REMMET109MOBOB3 METAR XM18 //049 310619 141352Z AUTO 30004KT 12/M10 A3024 RMK      A02 SLP256 T01231103 PA1301 DA1341=
0136008414999992015011414524+31000+061900FM-15+049099999V0203101N002619999999N999999999+01171-00931102561ADDMA1102401999999REMMET109MOBOB3 METAR XM18 //049 310619 141452Z AUTO 31005KT 12/M09 A3024 RMK      A02 SLP256 T01171093 PA1301 DA1273=
0136008414999992015011415524+31000+061900FM-15+049099999V0203001N002119999999N999999999+01071-00931102561ADDMA1102471999999REMMET109MOBOB3 METAR XM18 //049 310619 141552Z AUTO 30004KT 11/M09 A3026 RMK      A02 SLP256 T01071093 PA1292 DA1142=
0136008414999992015011416524+31000+061900FM-15+049099999V0202901N003619999999N999999999+01011-00901102571ADDMA1102511999999REMMET109MOBOB3 METAR XM18 //049 310619 141652Z AUTO 29007KT 10/M09 A3027 RMK      A02 SLP257 T01011090 PA1282 DA1059=
0147008414999992015011417524+31000+061900FM-15+049099999V0203001N004119999999N999999999+00961-00711102521ADDMA1102471999999OC100721REMMET112MOBOB3 METAR XM18 //049 310619 141752Z AUTO 30008G14KT 10/M07 A3026      RMK A02 SLP252 T00961071 PA1292 DA1017=
0147008414999992015011418524+31000+061900FM-15+049099999V0203101N004119999999N999999999+00891-00601102511ADDMA1102471999999OC100721REMMET112MOBOB3 METAR XM18 //049 310619 141852Z AUTO 31008G14KT 09/M06 A3026      RMK A02 SLP251 T00891060 PA1292 DA0938=
0147008414999992015011419524+31000+061900FM-15+049099999V0202901N004619999999N999999999+00881-00331102491ADDMA1102471999999OC100721REMMET112MOBOB3 METAR XM18 //049 310619 141952Z AUTO 29009G14KT 09/M03 A3026      RMK A02 SLP249 T00881033 PA1292 DA0937=
0147008414999992015011420524+31000+061900FM-15+049099999V0203001N004119999999N999999999+00831-00341102481ADDMA1102471999999OC100671REMMET112MOBOB3 METAR XM18 //049 310619 142052Z AUTO 30008G13KT 08/M03 A3026      RMK A02 SLP248 T00831034 PA1292 DA0877=
0147008414999992015011421524+31000+061900FM-15+049099999V0202901N003619999999N999999999+00761-00371102451ADDMA1102401999999OC100671REMMET112MOBOB3 METAR XM18 //049 310619 142152Z AUTO 29007G13KT 08/M04 A3024      RMK A02 SLP245 T00761037 PA1301 DA0803=
0136008414999992015011422524+31000+061900FM-15+049099999V0203001N003119999999N999999999+00611-00361102471ADDMA1102401999999REMMET109MOBOB3 METAR XM18 //049 310619 142252Z AUTO 30006KT 06/M04 A3024 RMK      A02 SLP247 T00611036 PA1301 DA0621=
0136008414999992015011423524+31000+061900FM-15+049099999V0202901N003619999999N999999999+00561-00371102491ADDMA1102401999999REMMET109MOBOB3 METAR XM18 //049 310619 142352Z AUTO 29007KT 06/M04 A3024 RMK      A02 SLP249 T00561037 PA1301 DA0560=
0136008414999992015011500524+31000+061900FM-15+049099999V0202901N002619999999N999999999+00521-00351102591ADDMA1102511999999REMMET109MOBOB3 METAR XM18 //049 310619 150052Z AUTO 29005KT 05/M04 A3027 RMK      A02 SLP259 T00521035 PA1282 DA0488=
0136008414999992015011501524+31000+061900FM-15+049099999V0202801N002119999999N999999999+00451-00351102731ADDMA1102611999999REMMET109MOBOB3 METAR XM18 //049 310619 150152Z AUTO 28004KT 05/M04 A3030 RMK      A02 SLP273 T00451035 PA1253 DA0366=
0136008414999992015011502524+31000+061900FM-15+049099999V0202901N002619999999N999999999+00491-00311102771ADDMA1102641999999REMMET109MOBOB3 METAR XM18 //049 310619 150252Z AUTO 29005KT 05/M03 A3031 RMK      A02 SLP277 T00491031 PA1244 DA0405=
0136008414999992015011503524+31000+061900FM-15+049099999V0203001N003619999999N999999999+00691-00241102831ADDMA1102711999999REMMET109MOBOB3 METAR XM18 //049 310619 150352Z AUTO 30007KT 07/M02 A3033 RMK      A02 SLP283 T00691024 PA1225 DA0629=
0136008414999992015011504524+31000+061900FM-15+049099999V0203201N003119999999N999999999+00971-00241102801ADDMA1102711999999REMMET109MOBOB3 METAR XM18 //049 310619 150452Z AUTO 32006KT 10/M02 A3033 RMK      A02 SLP280 T00971024 PA1225 DA0967=
0136008414999992015011505524+31000+061900FM-15+049099999V0202901N002619999999N999999999+01151-00291102751ADDMA1102671999999REMMET109MOBOB3 METAR XM18 //049 310619 150552Z AUTO 29005KT 12/M03 A3032 RMK      A02 SLP275 T01151029 PA1234 DA1191=
0136008414999992015011506524+31000+061900FM-15+049099999V0203001N002619999999N999999999+01351-00381102631ADDMA1102571999999REMMET109MOBOB3 METAR XM18 //049 310619 150652Z AUTO 30005KT 14/M04 A3029 RMK      A02 SLP263 T01351038 PA1263 DA1460=
0136008414999992015011507524+31000+061900FM-15+049099999V0203101N002619999999N999999999+01491-00521102511ADDMA1102471999999REMMET109MOBOB3 METAR XM18 //049 310619 150752Z AUTO 31005KT 15/M05 A3026 RMK      A02 SLP251 T01491052 PA1292 DA1654=
0136008414999992015011508524+31000+061900FM-15+049099999V0203401N002119999999N999999999+01621-00411102431ADDMA1102371999999REMMET109MOBOB3 METAR XM18 //049 310619 150852Z AUTO 34004KT 16/M04 A3023 RMK      A02 SLP243 T01621041 PA1311 DA1834=
0136008414999992015011509524+31000+061900FM-15+049099999V0203301N002619999999N999999999+01701-00541102391ADDMA1102341999999REMMET109MOBOB3 METAR XM18 //049 310619 150952Z AUTO 33005KT 17/M05 A3022 RMK      A02 SLP239 T01701054 PA1321 DA1934=
0136008414999992015011510524+31000+061900FM-15+049099999V0203401N002619999999N999999999+01711-00631102371ADDMA1102301999999REMMET109MOBOB3 METAR XM18 //049 310619 151052Z AUTO 34005KT 17/M06 A3021 RMK      A02 SLP237 T01711063 PA1330 DA1953=
0136008414999992015011511524+31000+061900FM-15+049099999V0203201N001519999999N999999999+01631-00741102391ADDMA1102301999999REMMET109MOBOB3 METAR XM18 //049 310619 151152Z AUTO 32003KT 16/M07 A3021 RMK      A02 SLP239 T01631074 PA1330 DA1856=
0136008414999992015011512524+31000+061900FM-15+049099999V0201101N000519999999N999999999+01281-00721102431ADDMA1102301999999REMMET109MOBOB3 METAR XM18 //049 310619 151252Z AUTO 11001KT 13/M07 A3021 RMK      A02 SLP243 T01281072 PA1330 DA1446=
0136008414999992015011513524+31000+061900FM-15+049099999V0201301N000519999999N999999999+01241-00761102481ADDMA1102341999999REMMET109MOBOB3 METAR XM18 //049 310619 151352Z AUTO 13001KT 12/M08 A3022 RMK      A02 SLP248 T01241076 PA1321 DA1385=
0136008414999992015011514524+31000+061900FM-15+049099999V0201301N001019999999N999999999+01111-00861102491ADDMA1102341999999REMMET109MOBOB3 METAR XM18 //049 310619 151452Z AUTO 13002KT 11/M09 A3022 RMK      A02 SLP249 T01111086 PA1321 DA1227=
0136008414999992015011515524+31000+061900FM-15+049099999V0201301N001019999999N999999999+01031-00861102481ADDMA1102341999999REMMET109MOBOB3 METAR XM18 //049 310619 151552Z AUTO 13002KT 10/M09 A3022 RMK      A02 SLP248 T01031086 PA1321 DA1132=
0136008414999992015011516534+31000+061900FM-15+049099999V0202501N000519999999N999999999+00901-00851102461ADDMA1102341999999REMMET109MOBOB3 METAR XM18 //049 310619 151653Z AUTO 25001KT 09/M08 A3022 RMK      A02 SLP246 T00901085 PA1321 DA0976=
0136008414999992015011517524+31000+061900FM-15+049099999V0203301N000519999999N999999999+00611-00821102471ADDMA1102341999999REMMET109MOBOB3 METAR XM18 //049 310619 151752Z AUTO 33001KT 06/M08 A3022 RMK      A02 SLP247 T00611082 PA1321 DA0626=
0136008414999992015011518524+31000+061900FM-15+049099999V0202701N001019999999N999999999+00701-00651102401ADDMA1102301999999REMMET109MOBOB3 METAR XM18 //049 310619 151852Z AUTO 27002KT 07/M07 A3021 RMK      A02 SLP240 T00701065 PA1330 DA0754=
0136008414999992015011519524+31000+061900FM-15+049099999V0203601N000519999999N999999999+00561-00621102371ADDMA1102271999999REMMET109MOBOB3 METAR XM18 //049 310619 151952Z AUTO 36001KT 06/M06 A3020 RMK      A02 SLP237 T00561062 PA1340 DA0597=
0136008414999992015011520524+31000+061900FM-15+049099999V0209999C000019999999N999999999+00411-00611102331ADDMA1102231999999REMMET109MOBOB3 METAR XM18 //049 310619 152052Z AUTO 00000KT 04/M06 A3019 RMK      A02 SLP233 T00411061 PA1350 DA0425=
0136008414999992015011521524+31000+061900FM-15+049099999V0209999C000019999999N999999999+00181-00801102311ADDMA1102201999999REMMET109MOBOB3 METAR XM18 //049 310619 152152Z AUTO 00000KT 02/M08 A3018 RMK      A02 SLP231 T00181080 PA1359 DA0146=
0136008414999992015011522524+31000+061900FM-15+049099999V0201301N001019999999N999999999+00321-00961102231ADDMA1102131999999REMMET109MOBOB3 METAR XM18 //049 310619 152252Z AUTO 13002KT 03/M10 A3016 RMK      A02 SLP223 T00321096 PA1378 DA0338=
0136008414999992015011523524+31000+061900FM-15+049099999V0209999C000019999999N999999999+00201-00901102281ADDMA1102171999999REMMET109MOBOB3 METAR XM18 //049 310619 152352Z AUTO 00000KT 02/M09 A3017 RMK      A02 SLP228 T00201090 PA1369 DA0180=
0136008414999992015011600524+31000+061900FM-15+049099999V0209999C000019999999N999999999+00011-00981102381ADDMA1102201999999REMMET109MOBOB3 METAR XM18 //049 310619 160052Z AUTO 00000KT 00/M10 A3018 RMK      A02 SLP238 T00011098 PA1359 DA-072=
0136008414999992015011601524+31000+061900FM-15+049099999V0201401N001519999999N999999999+00281-00841102391ADDMA1102231999999REMMET109MOBOB3 METAR XM18 //049 310619 160152Z AUTO 14003KT 03/M08 A3019 RMK      A02 SLP239 T00281084 PA1350 DA0257=
0136008414999992015011602524+31000+061900FM-15+049099999V0201401N001519999999N999999999+00351-00861102501ADDMA1102341999999REMMET109MOBOB3 METAR XM18 //049 310619 160252Z AUTO 14003KT 04/M09 A3022 RMK      A02 SLP250 T00351086 PA1321 DA0306=
0136008414999992015011603524+31000+061900FM-15+049099999V0201301N001019999999N999999999+00641-00741102551ADDMA1102401999999REMMET109MOBOB3 METAR XM18 //049 310619 160352Z AUTO 13002KT 06/M07 A3024 RMK      A02 SLP255 T00641074 PA1301 DA0642=
0136008414999992015011604524+31000+061900FM-15+049099999V0201201N001019999999N999999999+00911-00641102571ADDMA1102471999999REMMET109MOBOB3 METAR XM18 //049 310619 160452Z AUTO 12002KT 09/M06 A3026 RMK      A02 SLP257 T00911064 PA1292 DA0960=
0136008414999992015011605524+31000+061900FM-15+049099999V0201901N000519999999N999999999+01251-00641102501ADDMA1102371999999REMMET109MOBOB3 METAR XM18 //049 310619 160552Z AUTO 19001KT 13/M06 A3023 RMK      A02 SLP250 T01251064 PA1311 DA1390=
0136008414999992015011606524+31000+061900FM-15+049099999V0201101N000519999999N999999999+01401-00581102331ADDMA1102231999999REMMET109MOBOB3 METAR XM18 //049 310619 160652Z AUTO 11001KT 14/M06 A3019 RMK      A02 SLP233 T01401058 PA1350 DA1617=
0136008414999992015011607524+31000+061900FM-15+049099999V0200201N001019999999N999999999+01491-00601102221ADDMA1102131999999REMMET109MOBOB3 METAR XM18 //049 310619 160752Z AUTO 02002KT 15/M06 A3016 RMK      A02 SLP222 T01491060 PA1378 DA1757=
0136008414999992015011608524+31000+061900FM-15+049099999V0200301N001519999999N999999999+01611-00601102121ADDMA1102031999999REMMET109MOBOB3 METAR XM18 //049 310619 160852Z AUTO 03003KT 16/M06 A3013 RMK      A02 SLP212 T01611060 PA1407 DA1933=
0136008414999992015011610524+31000+061900FM-15+049099999V0200401N000519999999N999999999+01701-00761102051ADDMA1101961999999REMMET109MOBOB3 METAR XM18 //049 310619 161052Z AUTO 04001KT 17/M08 A3011 RMK      A02 SLP205 T01701076 PA1427 DA2056=
0136008414999992015011611524+31000+061900FM-15+049099999V0200901N000519999999N999999999+01581-00851102071ADDMA1101961999999REMMET109MOBOB3 METAR XM18 //049 310619 161152Z AUTO 09001KT 16/M08 A3011 RMK      A02 SLP207 T01581085 PA1427 DA1913=
0136008414999992015011612524+31000+061900FM-15+049099999V0200801N001019999999N999999999+01401-00741102081ADDMA1101931999999REMMET109MOBOB3 METAR XM18 //049 310619 161252Z AUTO 08002KT 14/M07 A3010 RMK      A02 SLP208 T01401074 PA1436 DA1717=
0136008414999992015011613524+31000+061900FM-15+049099999V0202801N001019999999N999999999+01191-00551102141ADDMA1102001999999REMMET109MOBOB3 METAR XM18 //049 310619 161352Z AUTO 28002KT 12/M06 A3012 RMK      A02 SLP214 T01191055 PA1417 DA1453=
0136008414999992015011614524+31000+061900FM-15+049099999V0202701N001019999999N999999999+01051-00661102151ADDMA1102001999999REMMET109MOBOB3 METAR XM18 //049 310619 161452Z AUTO 27002KT 11/M07 A3012 RMK      A02 SLP215 T01051066 PA1417 DA1282=
0136008414999992015011615524+31000+061900FM-15+049099999V0202601N000519999999N999999999+00971-00671102161ADDMA1102031999999REMMET109MOBOB3 METAR XM18 //049 310619 161552Z AUTO 26001KT 10/M07 A3013 RMK      A02 SLP216 T00971067 PA1407 DA1174=
0136008414999992015011616524+31000+061900FM-15+049099999V0209999C000019999999N999999999+00871-00681102071ADDMA1101961999999REMMET109MOBOB3 METAR XM18 //049 310619 161652Z AUTO 00000KT 09/M07 A3011 RMK      A02 SLP207 T00871068 PA1427 DA1078=
0136008414999992015011617524+31000+061900FM-15+049099999V0201201N000519999999N999999999+00791-00671102051ADDMA1101961999999REMMET109MOBOB3 METAR XM18 //049 310619 161752Z AUTO 12001KT 08/M07 A3011 RMK      A02 SLP205 T00791067 PA1427 DA0982=
0136008414999992015011618524+31000+061900FM-15+049099999V0203201N000519999999N999999999+00591-00611102051ADDMA1101961999999REMMET109MOBOB3 METAR XM18 //049 310619 161852Z AUTO 32001KT 06/M06 A3011 RMK      A02 SLP205 T00591061 PA1427 DA0741=
0136008414999992015011619524+31000+061900FM-15+049099999V0203301N000519999999N999999999+00511-00641102051ADDMA1101961999999REMMET109MOBOB3 METAR XM18 //049 310619 161952Z AUTO 33001KT 05/M06 A3011 RMK      A02 SLP205 T00511064 PA1427 DA0643=
0136008414999992015011620524+31000+061900FM-15+049099999V0202801N000519999999N999999999+00431-00701102051ADDMA1101961999999REMMET109MOBOB3 METAR XM18 //049 310619 162052Z AUTO 28001KT 04/M07 A3011 RMK      A02 SLP205 T00431070 PA1427 DA0542=
0135008414999992015011621524+31000+061900FM-15+049099999V0209999C000019999999N999999999+00421-00781999999ADDMA1101931999999REMMET108MOBOB3 METAR XM18 //049 310619 162152Z AUTO 00000KT 04/M08 A3010 RMK      A02 SLPNO T00421078 PA1436 DA0539=
0136008414999992015011622524+31000+061900FM-15+049099999V0209999C000019999999N999999999+00461-00851101961ADDMA1101901999999REMMET109MOBOB3 METAR XM18 //049 310619 162252Z AUTO 00000KT 05/M09 A3009 RMK      A02 SLP196 T00461085 PA1446 DA0598=
0136008414999992015011623524+31000+061900FM-15+049099999V0202701N000519999999N999999999+00381-00701101981ADDMA1101901999999REMMET109MOBOB3 METAR XM18 //049 310619 162352Z AUTO 27001KT 04/M07 A3009 RMK      A02 SLP198 T00381070 PA1446 DA0505=
0136008414999992015011700524+31000+061900FM-15+049099999V0202401N000519999999N999999999+00331-00701102041ADDMA1101931999999REMMET109MOBOB3 METAR XM18 //049 310619 170052Z AUTO 24001KT 03/M07 A3010 RMK      A02 SLP204 T00331070 PA1436 DA0431=
0136008414999992015011701524+31000+061900FM-15+049099999V0202901N000519999999N999999999+00281-00731102141ADDMA1102001999999REMMET109MOBOB3 METAR XM18 //049 310619 170152Z AUTO 29001KT 03/M07 A3012 RMK      A02 SLP214 T00281073 PA1417 DA0345=
0136008414999992015011702524+31000+061900FM-15+049099999V0203301N001019999999N999999999+00291-00821102191ADDMA1102031999999REMMET109MOBOB3 METAR XM18 //049 310619 170252Z AUTO 33002KT 03/M08 A3013 RMK      A02 SLP219 T00291082 PA1407 DA0342=
0136008414999992015011703524+31000+061900FM-15+049099999V0202701N000519999999N999999999+00591-00821102281ADDMA1102131999999REMMET109MOBOB3 METAR XM18 //049 310619 170352Z AUTO 27001KT 06/M08 A3016 RMK      A02 SLP228 T00591082 PA1378 DA0674=
0136008414999992015011704524+31000+061900FM-15+049099999V0202601N000519999999N999999999+01111-00791102271ADDMA1102171999999REMMET109MOBOB3 METAR XM18 //049 310619 170452Z AUTO 26001KT 11/M08 A3017 RMK      A02 SLP227 T01111079 PA1369 DA1289=
0136008414999992015011705524+31000+061900FM-15+049099999V0209999C000019999999N999999999+01461-00701102171ADDMA1102101999999REMMET109MOBOB3 METAR XM18 //049 310619 170552Z AUTO 00000KT 15/M07 A3015 RMK      A02 SLP217 T01461070 PA1388 DA1730=
0136008414999992015011706524+31000+061900FM-15+049099999V0209999C000019999999N999999999+01721-00741102051ADDMA1102001999999REMMET109MOBOB3 METAR XM18 //049 310619 170652Z AUTO 00000KT 17/M07 A3012 RMK      A02 SLP205 T01721074 PA1417 DA2067=
0136008414999992015011707524+31000+061900FM-15+049099999V0203601N000519999999N999999999+01891-00811101901ADDMA1101861999999REMMET109MOBOB3 METAR XM18 //049 310619 170752Z AUTO 36001KT 19/M08 A3008 RMK      A02 SLP190 T01891081 PA1455 DA2309=
0136008414999992015011708524+31000+061900FM-15+049099999V0203201N000519999999N999999999+02031-00831101821ADDMA1101791999999REMMET109MOBOB3 METAR XM18 //049 310619 170852Z AUTO 32001KT 20/M08 A3006 RMK      A02 SLP182 T02031083 PA1475 DA2492=
0136008414999992015011709524+31000+061900FM-15+049099999V0200701N001019999999N999999999+02031-00961101721ADDMA1101661999999REMMET109MOBOB3 METAR XM18 //049 310619 170952Z AUTO 07002KT 20/M10 A3002 RMK      A02 SLP172 T02031096 PA1504 DA2524=
0136008414999992015011710524+31000+061900FM-15+049099999V0200101N001019999999N999999999+02051-01041101711ADDMA1101661999999REMMET109MOBOB3 METAR XM18 //049 310619 171052Z AUTO 01002KT 21/M10 A3002 RMK      A02 SLP171 T02051104 PA1504 DA2544=
0136008414999992015011711524+31000+061900FM-15+049099999V0200801N001519999999N999999999+01901-00961101701ADDMA1101631999999REMMET109MOBOB3 METAR XM18 //049 310619 171152Z AUTO 08003KT 19/M10 A3001 RMK      A02 SLP170 T01901096 PA1513 DA2387=
0136008414999992015011712524+31000+061900FM-15+049099999V0201101N000519999999N999999999+01631-01091101771ADDMA1101661999999REMMET109MOBOB3 METAR XM18 //049 310619 171252Z AUTO 11001KT 16/M11 A3002 RMK      A02 SLP177 T01631109 PA1504 DA2059=
0136008414999992015011713524+31000+061900FM-15+049099999V0202801N000519999999N999999999+01311-00851101811ADDMA1101661999999REMMET109MOBOB3 METAR XM18 //049 310619 171352Z AUTO 28001KT 13/M08 A3002 RMK      A02 SLP181 T01311085 PA1504 DA1691=
0136008414999992015011714524+31000+061900FM-15+049099999V0202201N000519999999N999999999+01191-00801101821ADDMA1101661999999REMMET109MOBOB3 METAR XM18 //049 310619 171452Z AUTO 22001KT 12/M08 A3002 RMK      A02 SLP182 T01191080 PA1504 DA1551=
0136008414999992015011715524+31000+061900FM-15+049099999V0203401N001019999999N999999999+01081-00721101831ADDMA1101691999999REMMET109MOBOB3 METAR XM18 //049 310619 171552Z AUTO 34002KT 11/M07 A3003 RMK      A02 SLP183 T01081072 PA1494 DA1411=
0136008414999992015011716524+31000+061900FM-15+049099999V0202901N000519999999N999999999+00881-00701101831ADDMA1101761999999REMMET109MOBOB3 METAR XM18 //049 310619 171652Z AUTO 29001KT 09/M07 A3005 RMK      A02 SLP183 T00881070 PA1484 DA1161=
0136008414999992015011717524+31000+061900FM-15+049099999V0202701N001019999999N999999999+01011-00841101751ADDMA1101691999999REMMET109MOBOB3 METAR XM18 //049 310619 171752Z AUTO 27002KT 10/M08 A3003 RMK      A02 SLP175 T01011084 PA1494 DA1323=
0136008414999992015011718524+31000+061900FM-15+049099999V0202901N000519999999N999999999+00941-00921101691ADDMA1101661999999REMMET109MOBOB3 METAR XM18 //049 310619 171852Z AUTO 29001KT 09/M09 A3002 RMK      A02 SLP169 T00941092 PA1504 DA1249=
0136008414999992015011719524+31000+061900FM-15+049099999V0209999C000019999999N999999999+00881-00841101681ADDMA1101661999999REMMET109MOBOB3 METAR XM18 //049 310619 171952Z AUTO 00000KT 09/M08 A3002 RMK      A02 SLP168 T00881084 PA1504 DA1179=
0136008414999992015011720524+31000+061900FM-15+049099999V0200901N000519999999N999999999+00921-00911101631ADDMA1101631999999REMMET109MOBOB3 METAR XM18 //049 310619 172052Z AUTO 09001KT 09/M09 A3001 RMK      A02 SLP163 T00921091 PA1513 DA1237=
0136008414999992015011721524+31000+061900FM-15+049099999V0203501N000519999999N999999999+00791-00971101611ADDMA1101591999999REMMET109MOBOB3 METAR XM18 //049 310619 172152Z AUTO 35001KT 08/M10 A3000 RMK      A02 SLP161 T00791097 PA1523 DA1091=
0136008414999992015011722524+31000+061900FM-15+049099999V0201401N001019999999N999999999+00831-01161101531ADDMA1101521999999REMMET109MOBOB3 METAR XM18 //049 310619 172252Z AUTO 14002KT 08/M12 A2998 RMK      A02 SLP153 T00831116 PA1542 DA1158=
0136008414999992015011723524+31000+061900FM-15+049099999V0201601N000519999999N999999999+00811-01131101551ADDMA1101521999999REMMET109MOBOB3 METAR XM18 //049 310619 172352Z AUTO 16001KT 08/M11 A2998 RMK      A02 SLP155 T00811113 PA1542 DA1134=
0136008414999992015011800524+31000+061900FM-15+049099999V0202801N000519999999N999999999+00791-01211101651ADDMA1101591999999REMMET109MOBOB3 METAR XM18 //049 310619 180052Z AUTO 28001KT 08/M12 A3000 RMK      A02 SLP165 T00791121 PA1523 DA1084=
0136008414999992015011801524+31000+061900FM-15+049099999V0203101N000519999999N999999999+00671-00691101731ADDMA1101631999999REMMET109MOBOB3 METAR XM18 //049 310619 180152Z AUTO 31001KT 07/M07 A3001 RMK      A02 SLP173 T00671069 PA1513 DA0943=
0136008414999992015011802524+31000+061900FM-15+049099999V0203301N000519999999N999999999+00631-00601101891ADDMA1101791999999REMMET109MOBOB3 METAR XM18 //049 310619 180252Z AUTO 33001KT 06/M06 A3006 RMK      A02 SLP189 T00631060 PA1475 DA0850=
0136008414999992015011803524+31000+061900FM-15+049099999V0203301N001019999999N999999999+00911-00761101981ADDMA1101901999999REMMET109MOBOB3 METAR XM18 //049 310619 180352Z AUTO 33002KT 09/M08 A3009 RMK      A02 SLP198 T00911076 PA1446 DA1147=
0136008414999992015011804524+31000+061900FM-15+049099999V0203001N002619999999N999999999+01221-00911102001ADDMA1101931999999REMMET109MOBOB3 METAR XM18 //049 310619 180452Z AUTO 30005KT 12/M09 A3010 RMK      A02 SLP200 T01221091 PA1436 DA1499=
0136008414999992015011805524+31000+061900FM-15+049099999V0203101N002119999999N999999999+01551-00941101881ADDMA1101861999999REMMET109MOBOB3 METAR XM18 //049 310619 180552Z AUTO 31004KT 16/M09 A3008 RMK      A02 SLP188 T01551094 PA1455 DA1910=
0136008414999992015011806524+31000+061900FM-15+049099999V0202901N002119999999N999999999+01721-00731101801ADDMA1101791999999REMMET109MOBOB3 METAR XM18 //049 310619 180652Z AUTO 29004KT 17/M07 A3006 RMK      A02 SLP180 T01721073 PA1475 DA2139=
0136008414999992015011807524+31000+061900FM-15+049099999V0203301N001519999999N999999999+01911-00731101641ADDMA1101631999999REMMET109MOBOB3 METAR XM18 //049 310619 180752Z AUTO 33003KT 19/M07 A3001 RMK      A02 SLP164 T01911073 PA1513 DA2406=
0136008414999992015011808524+31000+061900FM-15+049099999V0203401N001519999999N999999999+02041-00851101561ADDMA1101561999999REMMET109MOBOB3 METAR XM18 //049 310619 180852Z AUTO 34003KT 20/M08 A2999 RMK      A02 SLP156 T02041085 PA1533 DA2575=
0136008414999992015011809524+31000+061900FM-15+049099999V0203201N000519999999N999999999+02141-00851101521ADDMA1101521999999REMMET109MOBOB3 METAR XM18 //049 310619 180952Z AUTO 32001KT 21/M09 A2998 RMK      A02 SLP152 T02141085 PA1542 DA2700=
