0144008415999992015102002394+07300+134200FM-16+000099999V0200301N006719999999N999999999+02881+02281999999ADDMA1100951999999OC100821REMMET109MOBOB2 SPECI XM21 //000 073342 200239Z AUTO 03013G16KT 29/23 A2981      RMK A02 SLPNO T02880228 PA103 DA2084=
0144008415999992015102002534+07300+134200FM-15+000099999V0200301N007219999999N999999999+02881+02281999999ADDMA1100911999999OC100821REMMET109MOBOB2 METAR XM21 //000 073342 200253Z AUTO 03014G16KT 29/23 A2980      RMK A02 SLPNO T02880228 PA112 DA2095=
0144008415999992015102003534+07300+134200FM-15+000099999V0200301N007719999999N999999999+02881+02251999999ADDMA1100851999999OC100931REMMET109MOBOB2 METAR XM21 //000 073342 200353Z AUTO 03015G18KT 29/23 A2978      RMK A02 SLPNO T02880225 PA131 DA2112=
0144008415999992015102004534+07300+134200FM-15+000099999V0200301N007719999999N999999999+02891+02291999999ADDMA1100741999999OC100931REMMET109MOBOB2 METAR XM21 //000 073342 200453Z AUTO 03015G18KT 29/23 A2975      RMK A02 SLPNO T02890229 PA159 DA2166=
0144008415999992015102005534+07300+134200FM-15+000099999V0200301N007719999999N999999999+02861+02391999999ADDMA1100711999999OC100931REMMET109MOBOB2 METAR XM21 //000 073342 200553Z AUTO 03015G18KT 29/24 A2974      RMK A02 SLPNO T02860239 PA168 DA2165=
0144008415999992015102006534+07300+134200FM-15+000099999V0200301N007719999999N999999999+02851+02351999999ADDMA1100711999999OC100931REMMET109MOBOB2 METAR XM21 //000 073342 200653Z AUTO 03015G18KT 29/23 A2974      RMK A02 SLPNO T02850235 PA168 DA2145=
0144008415999992015102007534+07300+134200FM-15+000099999V0200201N007719999999N999999999+02831+02361999999ADDMA1100741999999OC100931REMMET109MOBOB2 METAR XM21 //000 073342 200753Z AUTO 02015G18KT 28/24 A2975      RMK A02 SLPNO T02830236 PA159 DA2115=
0144008415999992015102008534+07300+134200FM-15+000099999V0200301N007719999999N999999999+02831+02331999999ADDMA1100811999999OC100881REMMET109MOBOB2 METAR XM21 //000 073342 200853Z AUTO 03015G17KT 28/23 A2977      RMK A02 SLPNO T02830233 PA140 DA2085=
0144008415999992015102009534+07300+134200FM-15+000099999V0200201N007219999999N999999999+02831+02341999999ADDMA1100881999999OC100821REMMET109MOBOB2 METAR XM21 //000 073342 200953Z AUTO 02014G16KT 28/23 A2979      RMK A02 SLPNO T02830234 PA122 DA2065=
0144008415999992015102010534+07300+134200FM-15+000099999V0200201N006719999999N999999999+02841+02331999999ADDMA1100951999999OC100821REMMET109MOBOB2 METAR XM21 //000 073342 201053Z AUTO 02013G16KT 28/23 A2981      RMK A02 SLPNO T02840233 PA103 DA2050=
0144008415999992015102011534+07300+134200FM-15+000099999V0200201N006719999999N999999999+02831+02331999999ADDMA1100981999999OC100821REMMET109MOBOB2 METAR XM21 //000 073342 201153Z AUTO 02013G16KT 28/23 A2982      RMK A02 SLPNO T02830233 PA094 DA2029=
0144008415999992015102012534+07300+134200FM-15+000099999V0200201N006719999999N999999999+02831+02401999999ADDMA1101021999999OC100821REMMET109MOBOB2 METAR XM21 //000 073342 201253Z AUTO 02013G16KT 28/24 A2983      RMK A02 SLPNO T02830240 PA084 DA2033=
0144008415999992015102013534+07300+134200FM-15+000099999V0200201N007219999999N999999999+02821+02381999999ADDMA1100951999999OC100881REMMET109MOBOB2 METAR XM21 //000 073342 201353Z AUTO 02014G17KT 28/24 A2981      RMK A02 SLPNO T02820238 PA103 DA2039=
0145008415999992015102014534+07300+134200FM-15+000099999V0200201N006719999999N999999999+02821+02461100951ADDMA1100951999999OC100881REMMET110MOBOB2 METAR XM21 //000 073342 201453Z AUTO 02013G17KT 28/25 A2981      RMK A02 SLP095 T02820246 PA103 DA2057=
0145008415999992015102015534+07300+134200FM-15+000099999V0200101N007219999999N999999999+02811+02371100891ADDMA1100881999999OC100981REMMET110MOBOB2 METAR XM21 //000 073342 201553Z AUTO 01014G19KT 28/24 A2979      RMK A02 SLP089 T02810237 PA122 DA2048=
0145008415999992015102016534+07300+134200FM-15+000099999V0200101N006719999999N999999999+02811+02401100851ADDMA1100851999999OC100821REMMET110MOBOB2 METAR XM21 //000 073342 201653Z AUTO 01013G16KT 28/24 A2978      RMK A02 SLP085 T02810240 PA131 DA2066=
0145008415999992015102017534+07300+134200FM-15+000099999V0200101N007219999999N999999999+02811+02401100821ADDMA1100811999999OC100881REMMET110MOBOB2 METAR XM21 //000 073342 201753Z AUTO 01014G17KT 28/24 A2977      RMK A02 SLP082 T02810240 PA140 DA2078=
0145008415999992015102018534+07300+134200FM-15+000099999V0200201N007219999999N999999999+02811+02351100821ADDMA1100811999999OC100821REMMET110MOBOB2 METAR XM21 //000 073342 201853Z AUTO 02014G16KT 28/23 A2977      RMK A02 SLP082 T02810235 PA140 DA2067=
0145008415999992015102019534+07300+134200FM-15+000099999V0200101N007219999999N999999999+02801+02301100851ADDMA1100851999999OC100821REMMET110MOBOB2 METAR XM21 //000 073342 201953Z AUTO 01014G16KT 28/23 A2978      RMK A02 SLP085 T02800230 PA131 DA2034=
0145008415999992015102020534+07300+134200FM-15+000099999V0200101N006719999999N999999999+02811+02391100951ADDMA1100951999999OC100771REMMET110MOBOB2 METAR XM21 //000 073342 202053Z AUTO 01013G15KT 28/24 A2981      RMK A02 SLP095 T02810239 PA103 DA2031=
0145008415999992015102021534+07300+134200FM-15+000099999V0203601N005719999999N999999999+02811+02381101021ADDMA1101021999999OC100621REMMET110MOBOB2 METAR XM21 //000 073342 202153Z AUTO 36011G12KT 28/24 A2983      RMK A02 SLP102 T02810238 PA084 DA2005=
0145008415999992015102022534+07300+134200FM-15+000099999V0203601N005119999999N999999999+02841+02401101091ADDMA1101081999999OC100621REMMET110MOBOB2 METAR XM21 //000 073342 202253Z AUTO 36010G12KT 28/24 A2985      RMK A02 SLP109 T02840240 PA066 DA2019=
0145008415999992015102023534+07300+134200FM-15+000099999V0203601N006219999999N999999999+02861+02301101091ADDMA1101081999999OC100721REMMET110MOBOB2 METAR XM21 //000 073342 202353Z AUTO 36012G14KT 29/23 A2985      RMK A02 SLP109 T02860230 PA066 DA2022=
0145008415999992015102100534+07300+134200FM-15+000099999V0200101N005119999999N999999999+02881+02391101121ADDMA1101121999999OC100621REMMET110MOBOB2 METAR XM21 //000 073342 210053Z AUTO 01010G12KT 29/24 A2986      RMK A02 SLP112 T02880239 PA057 DA2051=
0145008415999992015102101534+07300+134200FM-15+000099999V0200101N005719999999N999999999+02891+02391101091ADDMA1101081999999OC100721REMMET110MOBOB2 METAR XM21 //000 073342 210153Z AUTO 01011G14KT 29/24 A2985      RMK A02 SLP109 T02890239 PA066 DA2073=
0145008415999992015102102534+07300+134200FM-15+000099999V0200201N005119999999N999999999+02881+02301101021ADDMA1101021999999OC100621REMMET110MOBOB2 METAR XM21 //000 073342 210253Z AUTO 02010G12KT 29/23 A2983      RMK A02 SLP102 T02880230 PA084 DA2066=
0134008415999992015102103534+07300+134200FM-15+000099999V0200201N004119999999N999999999+02891+02431100951ADDMA1100951999999REMMET107MOBOB2 METAR XM21 //000 073342 210353Z AUTO 02008KT 29/24 A2981 RMK      A02 SLP095 T02890243 PA103 DA2129=
0134008415999992015102104534+07300+134200FM-15+000099999V0200201N004119999999N999999999+02891+02421100921ADDMA1100911999999REMMET107MOBOB2 METAR XM21 //000 073342 210453Z AUTO 02008KT 29/24 A2980 RMK      A02 SLP092 T02890242 PA112 DA2138=
0134008415999992015102105534+07300+134200FM-15+000099999V0200201N004619999999N999999999+02881+02351100891ADDMA1100881999999REMMET107MOBOB2 METAR XM21 //000 073342 210553Z AUTO 02009KT 29/24 A2979 RMK      A02 SLP089 T02880235 PA122 DA2123=
0134008415999992015102106534+07300+134200FM-15+000099999V0200301N004119999999N999999999+02881+02391100891ADDMA1100881999999REMMET107MOBOB2 METAR XM21 //000 073342 210653Z AUTO 03008KT 29/24 A2979 RMK      A02 SLP089 T02880239 PA122 DA2130=
0145008415999992015102107534+07300+134200FM-15+000099999V0200301N005119999999N999999999+02871+02351100951ADDMA1100951999999OC100671REMMET110MOBOB2 METAR XM21 //000 073342 210753Z AUTO 03010G13KT 29/23 A2981      RMK A02 SLP095 T02870235 PA103 DA2087=
0134008415999992015102108534+07300+134200FM-15+000099999V0200201N005119999999N999999999+02851+02391100991ADDMA1100981999999REMMET107MOBOB2 METAR XM21 //000 073342 210853Z AUTO 02010KT 29/24 A2982 RMK      A02 SLP099 T02850239 PA094 DA2064=
0134008415999992015102109534+07300+134200FM-15+000099999V0200101N004619999999N999999999+02841+02411101061ADDMA1101051999999REMMET107MOBOB2 METAR XM21 //000 073342 210953Z AUTO 01009KT 28/24 A2984 RMK      A02 SLP106 T02840241 PA075 DA2034=
0145008415999992015102110534+07300+134200FM-15+000099999V0203601N005119999999N999999999+02841+02361101121ADDMA1101121999999OC100621REMMET110MOBOB2 METAR XM21 //000 073342 211053Z AUTO 36010G12KT 28/24 A2986      RMK A02 SLP112 T02840236 PA057 DA1999=
0145008415999992015102111534+07300+134200FM-15+000099999V0203601N005119999999N999999999+02841+02411101161ADDMA1101151999999OC100671REMMET110MOBOB2 METAR XM21 //000 073342 211153Z AUTO 36010G13KT 28/24 A2987      RMK A02 SLP116 T02840241 PA047 DA1999=
0134008415999992015102112534+07300+134200FM-15+000099999V0203601N004619999999N999999999+02831+02351101161ADDMA1101151999999REMMET107MOBOB2 METAR XM21 //000 073342 211253Z AUTO 36009KT 28/24 A2987 RMK      A02 SLP116 T02830235 PA047 DA1976=
0134008415999992015102113534+07300+134200FM-15+000099999V0203601N004619999999N999999999+02821+02421101121ADDMA1101121999999REMMET107MOBOB2 METAR XM21 //000 073342 211353Z AUTO 36009KT 28/24 A2986 RMK      A02 SLP112 T02820242 PA057 DA1992=
0134008415999992015102114534+07300+134200FM-15+000099999V0200101N003619999999N999999999+02811+02411101121ADDMA1101121999999REMMET107MOBOB2 METAR XM21 //000 073342 211453Z AUTO 01007KT 28/24 A2986 RMK      A02 SLP112 T02810241 PA057 DA1978=
0134008415999992015102115534+07300+134200FM-15+000099999V0203401N004119999999N999999999+02801+02441101061ADDMA1101051999999REMMET107MOBOB2 METAR XM21 //000 073342 211553Z AUTO 34008KT 28/24 A2984 RMK      A02 SLP106 T02800244 PA075 DA1997=
0134008415999992015102116534+07300+134200FM-15+000099999V0203401N004119999999N999999999+02791+02371100991ADDMA1100981999999REMMET107MOBOB2 METAR XM21 //000 073342 211653Z AUTO 34008KT 28/24 A2982 RMK      A02 SLP099 T02790237 PA094 DA1992=
0145008415999992015102117534+07300+134200FM-15+000099999V0203501N004619999999N999999999+02781+02381100991ADDMA1100981999999OC100621REMMET110MOBOB2 METAR XM21 //000 073342 211753Z AUTO 35009G12KT 28/24 A2982      RMK A02 SLP099 T02780238 PA094 DA1983=
0134008415999992015102118534+07300+134200FM-15+000099999V0203501N004119999999N999999999+02791+02361100991ADDMA1100981999999REMMET107MOBOB2 METAR XM21 //000 073342 211853Z AUTO 35008KT 28/24 A2982 RMK      A02 SLP099 T02790236 PA094 DA1990=
0134008415999992015102119534+07300+134200FM-15+000099999V0203501N004119999999N999999999+02791+02361101021ADDMA1101021999999REMMET107MOBOB2 METAR XM21 //000 073342 211953Z AUTO 35008KT 28/24 A2983 RMK      A02 SLP102 T02790236 PA084 DA1977=
0134008415999992015102120534+07300+134200FM-15+000099999V0203501N004619999999N999999999+02781+02461101061ADDMA1101051999999REMMET107MOBOB2 METAR XM21 //000 073342 212053Z AUTO 35009KT 28/25 A2984 RMK      A02 SLP106 T02780246 PA075 DA1979=
0134008415999992015102121534+07300+134200FM-15+000099999V0203401N005119999999N999999999+02801+02371101121ADDMA1101121999999REMMET107MOBOB2 METAR XM21 //000 073342 212153Z AUTO 34010KT 28/24 A2986 RMK      A02 SLP112 T02800237 PA057 DA1958=
0145008415999992015102122534+07300+134200FM-15+000099999V0203401N005119999999N999999999+02841+02381101191ADDMA1101181999999OC100621REMMET110MOBOB2 METAR XM21 //000 073342 212253Z AUTO 34010G12KT 28/24 A2988      RMK A02 SLP119 T02840238 PA038 DA1983=
0134008415999992015102123534+07300+134200FM-15+000099999V0203301N004119999999N999999999+02861+02371101221ADDMA1101221999999REMMET107MOBOB2 METAR XM21 //000 073342 212353Z AUTO 33008KT 29/24 A2989 RMK      A02 SLP122 T02860237 PA029 DA1991=
0134008415999992015102200534+07300+134200FM-15+000099999V0203401N004619999999N999999999+02881+02391101221ADDMA1101221999999REMMET107MOBOB2 METAR XM21 //000 073342 220053Z AUTO 34009KT 29/24 A2989 RMK      A02 SLP122 T02880239 PA029 DA2017=
0134008415999992015102201534+07300+134200FM-15+000099999V0203401N005119999999N999999999+02891+02361101161ADDMA1101151999999REMMET107MOBOB2 METAR XM21 //000 073342 220153Z AUTO 34010KT 29/24 A2987 RMK      A02 SLP116 T02890236 PA047 DA2045=
0134008415999992015102202534+07300+134200FM-15+000099999V0203301N004619999999N999999999+02901+02371101091ADDMA1101081999999REMMET107MOBOB2 METAR XM21 //000 073342 220253Z AUTO 33009KT 29/24 A2985 RMK      A02 SLP109 T02900237 PA066 DA2081=
0134008415999992015102203534+07300+134200FM-15+000099999V0203301N005119999999N999999999+02901+02371101021ADDMA1101021999999REMMET107MOBOB2 METAR XM21 //000 073342 220353Z AUTO 33010KT 29/24 A2983 RMK      A02 SLP102 T02900237 PA084 DA2102=
0134008415999992015102204534+07300+134200FM-15+000099999V0203301N004619999999N999999999+02901+02381100951ADDMA1100951999999REMMET107MOBOB2 METAR XM21 //000 073342 220453Z AUTO 33009KT 29/24 A2981 RMK      A02 SLP095 T02900238 PA103 DA2128=
0134008415999992015102205534+07300+134200FM-15+000099999V0203301N005119999999N999999999+02901+02371100951ADDMA1100951999999REMMET107MOBOB2 METAR XM21 //000 073342 220553Z AUTO 33010KT 29/24 A2981 RMK      A02 SLP095 T02900237 PA103 DA2125=
0145008415999992015102206534+07300+134200FM-15+000099999V0203301N005719999999N999999999+02881+02411100951ADDMA1100951999999OC100671REMMET110MOBOB2 METAR XM21 //000 073342 220653Z AUTO 33011G13KT 29/24 A2981      RMK A02 SLP095 T02880241 PA103 DA2112=
0134008415999992015102207534+07300+134200FM-15+000099999V0203301N005119999999N999999999+02871+02401101021ADDMA1101021999999REMMET107MOBOB2 METAR XM21 //000 073342 220753Z AUTO 33010KT 29/24 A2983 RMK      A02 SLP102 T02870240 PA084 DA2076=
0134008415999992015102208534+07300+134200FM-15+000099999V0203201N004619999999N999999999+02861+02401101121ADDMA1101121999999REMMET107MOBOB2 METAR XM21 //000 073342 220853Z AUTO 32009KT 29/24 A2986 RMK      A02 SLP112 T02860240 PA057 DA2031=
0134008415999992015102209534+07300+134200FM-15+000099999V0203201N004619999999N999999999+02861+02441101161ADDMA1101151999999REMMET107MOBOB2 METAR XM21 //000 073342 220953Z AUTO 32009KT 29/24 A2987 RMK      A02 SLP116 T02860244 PA047 DA2029=
0134008415999992015102210534+07300+134200FM-15+000099999V0203201N004119999999N999999999+02851+02411101261ADDMA1101251999999REMMET107MOBOB2 METAR XM21 //000 073342 221053Z AUTO 32008KT 29/24 A2990 RMK      A02 SLP126 T02850241 PA020 DA1976=
0134008415999992015102211534+07300+134200FM-15+000099999V0203201N004119999999N999999999+02841+02401101291ADDMA1101291999999REMMET107MOBOB2 METAR XM21 //000 073342 221153Z AUTO 32008KT 28/24 A2991 RMK      A02 SLP129 T02840240 PA010 DA1951=
0134008415999992015102212534+07300+134200FM-15+000099999V0203101N003619999999N999999999+02831+02411101291ADDMA1101291999999REMMET107MOBOB2 METAR XM21 //000 073342 221253Z AUTO 31007KT 28/24 A2991 RMK      A02 SLP129 T02830241 PA010 DA1943=
0134008415999992015102213534+07300+134200FM-15+000099999V0203201N004119999999N999999999+02831+02391101291ADDMA1101291999999REMMET107MOBOB2 METAR XM21 //000 073342 221353Z AUTO 32008KT 28/24 A2991 RMK      A02 SLP129 T02830239 PA010 DA1939=
0134008415999992015102214534+07300+134200FM-15+000099999V0203101N003619999999N999999999+02811+02431101261ADDMA1101251999999REMMET107MOBOB2 METAR XM21 //000 073342 221453Z AUTO 31007KT 28/24 A2990 RMK      A02 SLP126 T02810243 PA020 DA1936=
0134008415999992015102215534+07300+134200FM-15+000099999V0203101N004119999999N999999999+02811+02411101191ADDMA1101181999999REMMET107MOBOB2 METAR XM21 //000 073342 221553Z AUTO 31008KT 28/24 A2988 RMK      A02 SLP119 T02810241 PA038 DA1954=
0134008415999992015102216534+07300+134200FM-15+000099999V0203101N004119999999N999999999+02801+02391101121ADDMA1101121999999REMMET107MOBOB2 METAR XM21 //000 073342 221653Z AUTO 31008KT 28/24 A2986 RMK      A02 SLP112 T02800239 PA057 DA1963=
0134008415999992015102217534+07300+134200FM-15+000099999V0203101N002619999999N999999999+02801+02371101091ADDMA1101081999999REMMET107MOBOB2 METAR XM21 //000 073342 221753Z AUTO 31005KT 28/24 A2985 RMK      A02 SLP109 T02800237 PA066 DA1969=
0134008415999992015102218534+07300+134200FM-15+000099999V0203101N003119999999N999999999+02791+02391101121ADDMA1101121999999REMMET107MOBOB2 METAR XM21 //000 073342 221853Z AUTO 31006KT 28/24 A2986 RMK      A02 SLP112 T02790239 PA057 DA1950=
0134008415999992015102219534+07300+134200FM-15+000099999V0203001N004119999999N999999999+02781+02431101121ADDMA1101121999999REMMET107MOBOB2 METAR XM21 //000 073342 221953Z AUTO 30008KT 28/24 A2986 RMK      A02 SLP112 T02780243 PA057 DA1949=
0134008415999992015102220534+07300+134200FM-15+000099999V0203001N004619999999N999999999+02801+02381101191ADDMA1101181999999REMMET107MOBOB2 METAR XM21 //000 073342 222053Z AUTO 30009KT 28/24 A2988 RMK      A02 SLP119 T02800238 PA038 DA1937=
0145008415999992015102221534+07300+134200FM-15+000099999V0202901N005119999999N999999999+02811+02361101261ADDMA1101251999999OC100621REMMET110MOBOB2 METAR XM21 //000 073342 222153Z AUTO 29010G12KT 28/24 A2990      RMK A02 SLP126 T02810236 PA020 DA1920=
0134008415999992015102222534+07300+134200FM-15+000099999V0202901N004619999999N999999999+02841+02381101331ADDMA1101321999999REMMET107MOBOB2 METAR XM21 //000 073342 222253Z AUTO 29009KT 28/24 A2992 RMK      A02 SLP133 T02840238 PA001 DA1936=
0134008415999992015102223534+07300+134200FM-15+000099999V0201101N004619999999N999999999+02861+02391101391ADDMA1101391999999REMMET107MOBOB2 METAR XM21 //000 073342 222353Z AUTO 11009KT 29/24 A2994 RMK      A02 SLP139 T02860239 PA-17 DA1938=
0134008415999992015102300534+07300+134200FM-15+000099999V0201201N004619999999N999999999+02861+02451101361ADDMA1101351999999REMMET107MOBOB2 METAR XM21 //000 073342 230053Z AUTO 12009KT 29/25 A2993 RMK      A02 SLP136 T02860245 PA-08 DA1963=
0145008415999992015102301534+07300+134200FM-15+000099999V0201201N005719999999N999999999+02881+02441101291ADDMA1101291999999OC100721REMMET110MOBOB2 METAR XM21 //000 073342 230153Z AUTO 12011G14KT 29/24 A2991      RMK A02 SLP129 T02880244 PA010 DA2006=
0145008415999992015102302534+07300+134200FM-15+000099999V0201201N006219999999N999999999+02881+02351101191ADDMA1101181999999OC100721REMMET110MOBOB2 METAR XM21 //000 073342 230253Z AUTO 12012G14KT 29/24 A2988      RMK A02 SLP119 T02880235 PA038 DA2020=
0145008415999992015102303534+07300+134200FM-15+000099999V0201201N005719999999N999999999+02881+02311101091ADDMA1101081999999OC100721REMMET110MOBOB2 METAR XM21 //000 073342 230353Z AUTO 12011G14KT 29/23 A2985      RMK A02 SLP109 T02880231 PA066 DA2045=
0145008415999992015102304534+07300+134200FM-15+000099999V0201101N005719999999N999999999+02901+02291101061ADDMA1101051999999OC100721REMMET110MOBOB2 METAR XM21 //000 073342 230453Z AUTO 11011G14KT 29/23 A2984      RMK A02 SLP106 T02900229 PA075 DA2074=
0145008415999992015102305534+07300+134200FM-15+000099999V0201001N005119999999N999999999+02901+02291101021ADDMA1101021999999OC100671REMMET110MOBOB2 METAR XM21 //000 073342 230553Z AUTO 10010G13KT 29/23 A2983      RMK A02 SLP102 T02900229 PA084 DA2087=
0145008415999992015102306534+07300+134200FM-15+000099999V0201101N005119999999N999999999+02891+02321101021ADDMA1101021999999OC100621REMMET110MOBOB2 METAR XM21 //000 073342 230653Z AUTO 11010G12KT 29/23 A2983      RMK A02 SLP102 T02890232 PA084 DA2082=
0145008415999992015102307534+07300+134200FM-15+000099999V0200901N005119999999N999999999+02891+02251101061ADDMA1101051999999OC100621REMMET110MOBOB2 METAR XM21 //000 073342 230753Z AUTO 09010G12KT 29/23 A2984      RMK A02 SLP106 T02890225 PA075 DA2055=
0134008415999992015102308534+07300+134200FM-15+000099999V0200901N004119999999N999999999+02861+02341101121ADDMA1101121999999REMMET107MOBOB2 METAR XM21 //000 073342 230853Z AUTO 09008KT 29/23 A2986 RMK      A02 SLP112 T02860234 PA057 DA2019=
0134008415999992015102309534+07300+134200FM-15+000099999V0200801N004119999999N999999999+02841+02341101191ADDMA1101181999999REMMET107MOBOB2 METAR XM21 //000 073342 230953Z AUTO 08008KT 28/23 A2988 RMK      A02 SLP119 T02840234 PA038 DA1972=
0134008415999992015102310534+07300+134200FM-15+000099999V0200801N005119999999N999999999+02851+02351101291ADDMA1101291999999REMMET107MOBOB2 METAR XM21 //000 073342 231053Z AUTO 08010KT 29/24 A2991 RMK      A02 SLP129 T02850235 PA010 DA1953=
0134008415999992015102311534+07300+134200FM-15+000099999V0200801N004619999999N999999999+02841+02351101331ADDMA1101321999999REMMET107MOBOB2 METAR XM21 //000 073342 231153Z AUTO 08009KT 28/23 A2992 RMK      A02 SLP133 T02840235 PA001 DA1929=
0134008415999992015102312534+07300+134200FM-15+000099999V0200901N003619999999N999999999+02831+02401101291ADDMA1101291999999REMMET107MOBOB2 METAR XM21 //000 073342 231253Z AUTO 09007KT 28/24 A2991 RMK      A02 SLP129 T02830240 PA010 DA1941=
0134008415999992015102313534+07300+134200FM-15+000099999V0200801N004119999999N999999999+02831+02401101291ADDMA1101291999999REMMET107MOBOB2 METAR XM21 //000 073342 231353Z AUTO 08008KT 28/24 A2991 RMK      A02 SLP129 T02830240 PA010 DA1940=
0134008415999992015102314534+07300+134200FM-15+000099999V0200901N004119999999N999999999+02831+02391101291ADDMA1101291999999REMMET107MOBOB2 METAR XM21 //000 073342 231453Z AUTO 09008KT 28/24 A2991 RMK      A02 SLP129 T02830239 PA010 DA1937=
0134008415999992015102315534+07300+134200FM-15+000099999V0200901N004119999999N999999999+02811+02421101221ADDMA1101221999999REMMET107MOBOB2 METAR XM21 //000 073342 231553Z AUTO 09008KT 28/24 A2989 RMK      A02 SLP122 T02810242 PA029 DA1946=
0145008415999992015102316534+07300+134200FM-15+000099999V0200701N005119999999N999999999+02811+02431101191ADDMA1101181999999OC100671REMMET110MOBOB2 METAR XM21 //000 073342 231653Z AUTO 07010G13KT 28/24 A2988      RMK A02 SLP119 T02810243 PA038 DA1960=
0145008415999992015102317534+07300+134200FM-15+000099999V0200901N005719999999N999999999+02821+02391101161ADDMA1101151999999OC100671REMMET110MOBOB2 METAR XM21 //000 073342 231753Z AUTO 09011G13KT 28/24 A2987      RMK A02 SLP116 T02820239 PA047 DA1973=
0134008415999992015102318534+07300+134200FM-15+000099999V0200801N004119999999N999999999+02811+02381101161ADDMA1101151999999REMMET107MOBOB2 METAR XM21 //000 073342 231853Z AUTO 08008KT 28/24 A2987 RMK      A02 SLP116 T02810238 PA047 DA1959=
0161008415999992015102319534+07300+134200FM-15+000099999V0200601N004119999999N999999999+02791+02451101221ADDAA101000021AW1611MA1101221999999REMMET117MOBOB2 METAR XM21 //000 073342 231953Z AUTO 06008KT -RA 28/25 A2989      RMK A02 SLP122 P0000 T02790245 PA029 DA1931=
0134008415999992015102320534+07300+134200FM-15+000099999V0200701N004119999999N999999999+02811+02421101291ADDMA1101291999999REMMET107MOBOB2 METAR XM21 //000 073342 232053Z AUTO 07008KT 28/24 A2991 RMK      A02 SLP129 T02810242 PA010 DA1923=
0134008415999992015102321534+07300+134200FM-15+000099999V0200501N004119999999N999999999+02811+02481101331ADDMA1101321999999REMMET107MOBOB2 METAR XM21 //000 073342 232153Z AUTO 05008KT 28/25 A2992 RMK      A02 SLP133 T02810248 PA001 DA1925=
0145008415999992015102322534+07300+134200FM-15+000099999V0200901N005119999999N999999999+02871+02431101391ADDMA1101391999999OC100621REMMET110MOBOB2 METAR XM21 //000 073342 232253Z AUTO 09010G12KT 29/24 A2994      RMK A02 SLP139 T02870243 PA-17 DA1957=
0161008415999992015102323534+07300+134200FM-15+000099999V0200901N004619999999N999999999+02851+02411101431ADDAA101000531AW1611MA1101421999999REMMET117MOBOB2 METAR XM21 //000 073342 232353Z AUTO 09009KT -RA 29/24 A2995      RMK A02 SLP143 P0002 T02850241 PA-27 DA1920=
0145008415999992015102400534+07300+134200FM-15+000099999V0200901N005119999999N999999999+02911+02411101431ADDMA1101421999999OC100671REMMET110MOBOB2 METAR XM21 //000 073342 240053Z AUTO 09010G13KT 29/24 A2995      RMK A02 SLP143 T02910241 PA-27 DA1987=
0134008415999992015102401534+07300+134200FM-15+000099999V0200901N004619999999N999999999+02941+02381101361ADDMA1101351999999REMMET107MOBOB2 METAR XM21 //000 073342 240153Z AUTO 09009KT 29/24 A2993 RMK      A02 SLP136 T02940238 PA-08 DA2037=
0161008415999992015102402534+07300+134200FM-15+000099999V0200901N004119999999N999999999+02891+02381101261ADDAA101000531AW1611MA1101251999999REMMET117MOBOB2 METAR XM21 //000 073342 240253Z AUTO 09008KT -RA 29/24 A2990      RMK A02 SLP126 P0002 T02890238 PA020 DA2014=
0134008415999992015102403534+07300+134200FM-15+000099999V0200901N004619999999N999999999+02941+02431101161ADDMA1101151999999REMMET107MOBOB2 METAR XM21 //000 073342 240353Z AUTO 09009KT 29/24 A2987 RMK      A02 SLP116 T02940243 PA047 DA2116=
0145008415999992015102404534+07300+134200FM-15+000099999V0200801N005719999999N999999999+02941+02361101121ADDMA1101121999999OC100721REMMET110MOBOB2 METAR XM21 //000 073342 240453Z AUTO 08011G14KT 29/24 A2986      RMK A02 SLP112 T02940236 PA057 DA2112=
0145008415999992015102405534+07300+134200FM-15+000099999V0200701N005719999999N999999999+02931+02281101061ADDMA1101051999999OC100721REMMET110MOBOB2 METAR XM21 //000 073342 240553Z AUTO 07011G14KT 29/23 A2984      RMK A02 SLP106 T02930228 PA075 DA2107=
0134008415999992015102406534+07300+134200FM-15+000099999V0200801N004619999999N999999999+02911+02411101061ADDMA1101051999999REMMET107MOBOB2 METAR XM21 //000 073342 240653Z AUTO 08009KT 29/24 A2984 RMK      A02 SLP106 T02910241 PA075 DA2113=
0145008415999992015102407534+07300+134200FM-15+000099999V0200901N005719999999N999999999+02901+02351101091ADDMA1101081999999OC100671REMMET110MOBOB2 METAR XM21 //000 073342 240753Z AUTO 09011G13KT 29/24 A2985      RMK A02 SLP109 T02900235 PA066 DA2077=
0145008415999992015102408534+07300+134200FM-15+000099999V0200801N005719999999N999999999+02891+02351101161ADDMA1101151999999OC100671REMMET110MOBOB2 METAR XM21 //000 073342 240853Z AUTO 08011G13KT 29/24 A2987      RMK A02 SLP116 T02890235 PA047 DA2043=
0145008415999992015102409534+07300+134200FM-15+000099999V0200601N005119999999N999999999+02851+02421101221ADDMA1101221999999OC100671REMMET110MOBOB2 METAR XM21 //000 073342 240953Z AUTO 06010G13KT 29/24 A2989      RMK A02 SLP122 T02850242 PA029 DA1991=
0145008415999992015102410534+07300+134200FM-15+000099999V0200701N004619999999N999999999+02851+02431101291ADDMA1101291999999OC100621REMMET110MOBOB2 METAR XM21 //000 073342 241053Z AUTO 07009G12KT 29/24 A2991      RMK A02 SLP129 T02850243 PA010 DA1970=
0145008415999992015102411534+07300+134200FM-15+000099999V0200601N005719999999N999999999+02841+02431101331ADDMA1101321999999OC100671REMMET110MOBOB2 METAR XM21 //000 073342 241153Z AUTO 06011G13KT 28/24 A2992      RMK A02 SLP133 T02840243 PA001 DA1947=
0145008415999992015102412534+07300+134200FM-15+000099999V0200701N004619999999N999999999+02831+02461101291ADDMA1101291999999OC100671REMMET110MOBOB2 METAR XM21 //000 073342 241253Z AUTO 07009G13KT 28/25 A2991      RMK A02 SLP129 T02830246 PA010 DA1955=
0145008415999992015102413534+07300+134200FM-15+000099999V0200601N005119999999N999999999+02821+02481101291ADDMA1101291999999OC100621REMMET110MOBOB2 METAR XM21 //000 073342 241353Z AUTO 06010G12KT 28/25 A2991      RMK A02 SLP129 T02820248 PA010 DA1949=
0145008415999992015102414534+07300+134200FM-15+000099999V0200501N005719999999N999999999+02821+02491101261ADDMA1101251999999OC100671REMMET110MOBOB2 METAR XM21 //000 073342 241453Z AUTO 05011G13KT 28/25 A2990      RMK A02 SLP126 T02820249 PA020 DA1963=
0145008415999992015102415534+07300+134200FM-15+000099999V0200601N006219999999N999999999+02811+02491101221ADDMA1101221999999OC100771REMMET110MOBOB2 METAR XM21 //000 073342 241553Z AUTO 06012G15KT 28/25 A2989      RMK A02 SLP122 T02810249 PA029 DA1963=
0145008415999992015102416534+07300+134200FM-15+000099999V0200501N006719999999N999999999+02791+02471101161ADDMA1101151999999OC100821REMMET110MOBOB2 METAR XM21 //000 073342 241653Z AUTO 05013G16KT 28/25 A2987      RMK A02 SLP116 T02790247 PA047 DA1957=
0145008415999992015102417534+07300+134200FM-15+000099999V0200501N005719999999N999999999+02781+02441101091ADDMA1101081999999OC100721REMMET110MOBOB2 METAR XM21 //000 073342 241753Z AUTO 05011G14KT 28/24 A2985      RMK A02 SLP109 T02780244 PA066 DA1961=
0145008415999992015102418534+07300+134200FM-15+000099999V0200501N006719999999N999999999+02791+02451101121ADDMA1101121999999OC100821REMMET110MOBOB2 METAR XM21 //000 073342 241853Z AUTO 05013G16KT 28/24 A2986      RMK A02 SLP112 T02790245 PA057 DA1964=
0134008415999992015102419534+07300+134200FM-15+000099999V0200601N004619999999N999999999+02771+02411101121ADDMA1101121999999REMMET107MOBOB2 METAR XM21 //000 073342 241953Z AUTO 06009KT 28/24 A2986 RMK      A02 SLP112 T02770241 PA057 DA1934=
0145008415999992015102420534+07300+134200FM-15+000099999V0200701N005119999999N999999999+02781+02401101221ADDMA1101221999999OC100671REMMET110MOBOB2 METAR XM21 //000 073342 242053Z AUTO 07010G13KT 28/24 A2989      RMK A02 SLP122 T02780240 PA029 DA1907=
0134008415999992015102421534+07300+134200FM-15+000099999V0200701N004619999999N999999999+02801+02411101261ADDMA1101251999999REMMET107MOBOB2 METAR XM21 //000 073342 242153Z AUTO 07009KT 28/24 A2990 RMK      A02 SLP126 T02800241 PA020 DA1920=
0134008415999992015102422534+07300+134200FM-15+000099999V0200701N003619999999N999999999+02831+02401101331ADDMA1101321999999REMMET107MOBOB2 METAR XM21 //000 073342 242253Z AUTO 07007KT 28/24 A2992 RMK      A02 SLP133 T02830240 PA001 DA1930=
0145008415999992015102423534+07300+134200FM-15+000099999V0200701N005119999999N999999999+02861+02411101331ADDMA1101321999999OC100671REMMET110MOBOB2 METAR XM21 //000 073342 242353Z AUTO 07010G13KT 29/24 A2992      RMK A02 SLP133 T02860241 PA001 DA1965=
0134008415999992015102500534+07300+134200FM-15+000099999V0200801N003619999999N999999999+02911+02341101291ADDMA1101291999999REMMET107MOBOB2 METAR XM21 //000 073342 250053Z AUTO 08007KT 29/23 A2991 RMK      A02 SLP129 T02910234 PA010 DA2017=
0145008415999992015102501534+07300+134200FM-15+000099999V0200901N004619999999N999999999+02941+02341101221ADDMA1101221999999OC100621REMMET110MOBOB2 METAR XM21 //000 073342 250153Z AUTO 09009G12KT 29/23 A2989      RMK A02 SLP122 T02940234 PA029 DA2072=
0134008415999992015102502534+07300+134200FM-15+000099999V0201001N004119999999N999999999+02961+02271101161ADDMA1101151999999REMMET107MOBOB2 METAR XM21 //000 073342 250253Z AUTO 10008KT 30/23 A2987 RMK      A02 SLP116 T02960227 PA047 DA2103=
0134008415999992015102503534+07300+134200FM-15+000099999V0201001N005119999999N999999999+02961+02221101061ADDMA1101051999999REMMET107MOBOB2 METAR XM21 //000 073342 250353Z AUTO 10010KT 30/22 A2984 RMK      A02 SLP106 T02960222 PA075 DA2126=
0145008415999992015102504534+07300+134200FM-15+000099999V0200901N005119999999N999999999+02961+02131101021ADDMA1101021999999OC100671REMMET110MOBOB2 METAR XM21 //000 073342 250453Z AUTO 09010G13KT 30/21 A2983      RMK A02 SLP102 T02960213 PA084 DA2120=
0145008415999992015102505534+07300+134200FM-15+000099999V0200901N006719999999N999999999+02931+02231100991ADDMA1100981999999OC100881REMMET110MOBOB2 METAR XM21 //000 073342 250553Z AUTO 09013G17KT 29/22 A2982      RMK A02 SLP099 T02930223 PA094 DA2117=
0145008415999992015102506534+07300+134200FM-15+000099999V0200901N005719999999N999999999+02901+02341100991ADDMA1100981999999OC100671REMMET110MOBOB2 METAR XM21 //000 073342 250653Z AUTO 09011G13KT 29/23 A2982      RMK A02 SLP099 T02900234 PA094 DA2107=
0145008415999992015102507534+07300+134200FM-15+000099999V0200901N005119999999N999999999+02901+02271101061ADDMA1101051999999OC100621REMMET110MOBOB2 METAR XM21 //000 073342 250753Z AUTO 09010G12KT 29/23 A2984      RMK A02 SLP106 T02900227 PA075 DA2069=
0134008415999992015102508534+07300+134200FM-15+000099999V0200801N004619999999N999999999+02871+02321101091ADDMA1101081999999REMMET107MOBOB2 METAR XM21 //000 073342 250853Z AUTO 08009KT 29/23 A2985 RMK      A02 SLP109 T02870232 PA066 DA2035=
0134008415999992015102509534+07300+134200FM-15+000099999V0200601N004619999999N999999999+02861+02301101161ADDMA1101151999999REMMET107MOBOB2 METAR XM21 //000 073342 250953Z AUTO 06009KT 29/23 A2987 RMK      A02 SLP116 T02860230 PA047 DA1997=
0134008415999992015102510534+07300+134200FM-15+000099999V0200701N004619999999N999999999+02841+02371101261ADDMA1101251999999REMMET107MOBOB2 METAR XM21 //000 073342 251053Z AUTO 07009KT 28/24 A2990 RMK      A02 SLP126 T02840237 PA020 DA1956=
0145008415999992015102511534+07300+134200FM-15+000099999V0200601N005119999999N999999999+02831+02421101291ADDMA1101291999999OC100721REMMET110MOBOB2 METAR XM21 //000 073342 251153Z AUTO 06010G14KT 28/24 A2991      RMK A02 SLP129 T02830242 PA010 DA1946=
0145008415999992015102512534+07300+134200FM-15+000099999V0200701N005119999999N999999999+02821+02401101291ADDMA1101291999999OC100721REMMET110MOBOB2 METAR XM21 //000 073342 251253Z AUTO 07010G14KT 28/24 A2991      RMK A02 SLP129 T02820240 PA010 DA1928=
0145008415999992015102513534+07300+134200FM-15+000099999V0200601N004619999999N999999999+02811+02371101261ADDMA1101251999999OC100621REMMET110MOBOB2 METAR XM21 //000 073342 251353Z AUTO 06009G12KT 28/24 A2990      RMK A02 SLP126 T02810237 PA020 DA1922=
0134008415999992015102514534+07300+134200FM-15+000099999V0200701N003619999999N999999999+02811+02351101221ADDMA1101221999999REMMET107MOBOB2 METAR XM21 //000 073342 251453Z AUTO 07007KT 28/24 A2989 RMK      A02 SLP122 T02810235 PA029 DA1930=
0134008415999992015102515534+07300+134200FM-15+000099999V0200501N004119999999N999999999+02791+02401101121ADDMA1101121999999REMMET107MOBOB2 METAR XM21 //000 073342 251553Z AUTO 05008KT 28/24 A2986 RMK      A02 SLP112 T02790240 PA057 DA1954=
0134008415999992015102516534+07300+134200FM-15+000099999V0200601N004619999999N999999999+02771+02441101061ADDMA1101051999999REMMET107MOBOB2 METAR XM21 //000 073342 251653Z AUTO 06009KT 28/24 A2984 RMK      A02 SLP106 T02770244 PA075 DA1963=
0134008415999992015102517534+07300+134200FM-15+000099999V0200701N004119999999N999999999+02771+02391101061ADDMA1101051999999REMMET107MOBOB2 METAR XM21 //000 073342 251753Z AUTO 07008KT 28/24 A2984 RMK      A02 SLP106 T02770239 PA075 DA1950=
0134008415999992015102518534+07300+134200FM-15+000099999V0200601N004119999999N999999999+02781+02431101061ADDMA1101051999999REMMET107MOBOB2 METAR XM21 //000 073342 251853Z AUTO 06008KT 28/24 A2984 RMK      A02 SLP106 T02780243 PA075 DA1972=
0134008415999992015102519534+07300+134200FM-15+000099999V0200501N004119999999N999999999+02761+02401101061ADDMA1101051999999REMMET107MOBOB2 METAR XM21 //000 073342 251953Z AUTO 05008KT 28/24 A2984 RMK      A02 SLP106 T02760240 PA075 DA1942=
0134008415999992015102520534+07300+134200FM-15+000099999V0200601N004119999999N999999999+02771+02381101061ADDMA1101051999999REMMET107MOBOB2 METAR XM21 //000 073342 252053Z AUTO 06008KT 28/24 A2984 RMK      A02 SLP106 T02770238 PA075 DA1949=
0134008415999992015102521534+07300+134200FM-15+000099999V0200501N004619999999N999999999+02801+02351101161ADDMA1101151999999REMMET107MOBOB2 METAR XM21 //000 073342 252153Z AUTO 05009KT 28/23 A2987 RMK      A02 SLP116 T02800235 PA047 DA1941=
0134008415999992015102522534+07300+134200FM-15+000099999V0200601N005119999999N999999999+02821+02351101191ADDMA1101181999999REMMET107MOBOB2 METAR XM21 //000 073342 252253Z AUTO 06010KT 28/23 A2988 RMK      A02 SLP119 T02820235 PA038 DA1952=
0134008415999992015102523534+07300+134200FM-15+000099999V0200601N003619999999N999999999+02841+02361101221ADDMA1101221999999REMMET107MOBOB2 METAR XM21 //000 073342 252353Z AUTO 06007KT 28/24 A2989 RMK      A02 SLP122 T02840236 PA029 DA1967=
0134008415999992015102600534+07300+134200FM-15+000099999V0200501N003619999999N999999999+02861+02301101221ADDMA1101221999999REMMET107MOBOB2 METAR XM21 //000 073342 260053Z AUTO 05007KT 29/23 A2989 RMK      A02 SLP122 T02860230 PA029 DA1976=
0134008415999992015102601534+07300+134200FM-15+000099999V0200101N003119999999N999999999+02891+02351101191ADDMA1101181999999REMMET107MOBOB2 METAR XM21 //000 073342 260153Z AUTO 01006KT 29/23 A2988 RMK      A02 SLP119 T02890235 PA038 DA2030=
0134008415999992015102602534+07300+134200FM-15+000099999V0200101N003619999999N999999999+02891+02371101121ADDMA1101121999999REMMET107MOBOB2 METAR XM21 //000 073342 260253Z AUTO 01007KT 29/24 A2986 RMK      A02 SLP112 T02890237 PA057 DA2057=
0161008415999992015102603534+07300+134200FM-15+000099999V0200501N002119999999N999999999+02791+02421101061ADDAA101000231AW1611MA1101051999999REMMET117MOBOB2 METAR XM21 //000 073342 260353Z AUTO 05004KT -RA 28/24 A2984      RMK A02 SLP106 P0001 T02790242 PA075 DA1982=
0161008415999992015102604534+07300+134200FM-15+000099999V0201001N001519999999N999999999+02721+02491100991ADDAA101005031AW1611MA1100981999999REMMET117MOBOB2 METAR XM21 //000 073342 260453Z AUTO 10003KT -RA 27/25 A2982      RMK A02 SLP099 P0020 T02720249 PA094 DA1941=
0172008415999992015102605534+07300+134200FM-15+000099999V0202201N004619999999N999999999+02761+02401100951ADDAA101000021AW1611MA1100951999999OC100621REMMET120MOBOB2 METAR XM21 //000 073342 260553Z AUTO 22009G12KT -RA 28/24 A2981      RMK A02 SLP095 P0000 T02760240 PA103 DA1976=
0134008415999992015102606534+07300+134200FM-15+000099999V0202601N003619999999N999999999+02781+02391100991ADDMA1100981999999REMMET107MOBOB2 METAR XM21 //000 073342 260653Z AUTO 26007KT 28/24 A2982 RMK      A02 SLP099 T02780239 PA094 DA1985=
0134008415999992015102607534+07300+134200FM-15+000099999V0202301N001519999999N999999999+02831+02401101061ADDMA1101051999999REMMET107MOBOB2 METAR XM21 //000 073342 260753Z AUTO 23003KT 28/24 A2984 RMK      A02 SLP106 T02830240 PA075 DA2020=
0134008415999992015102608534+07300+134200FM-15+000099999V0203301N001519999999N999999999+02801+02371101121ADDMA1101121999999REMMET107MOBOB2 METAR XM21 //000 073342 260853Z AUTO 33003KT 28/24 A2986 RMK      A02 SLP112 T02800237 PA057 DA1957=
0134008415999992015102609534+07300+134200FM-15+000099999V0202901N001019999999N999999999+02791+02391101161ADDMA1101151999999REMMET107MOBOB2 METAR XM21 //000 073342 260953Z AUTO 29002KT 28/24 A2987 RMK      A02 SLP116 T02790239 PA047 DA1939=
0134008415999992015102610534+07300+134200FM-15+000099999V0200601N004119999999N999999999+02851+02391101221ADDMA1101221999999REMMET107MOBOB2 METAR XM21 //000 073342 261053Z AUTO 06008KT 29/24 A2989 RMK      A02 SLP122 T02850239 PA029 DA1982=
0134008415999992015102611534+07300+134200FM-15+000099999V0200701N003619999999N999999999+02831+02441101291ADDMA1101291999999REMMET107MOBOB2 METAR XM21 //000 073342 261153Z AUTO 07007KT 28/24 A2991 RMK      A02 SLP129 T02830244 PA010 DA1950=
0134008415999992015102612534+07300+134200FM-15+000099999V0200501N003619999999N999999999+02831+02421101291ADDMA1101291999999REMMET107MOBOB2 METAR XM21 //000 073342 261253Z AUTO 05007KT 28/24 A2991 RMK      A02 SLP129 T02830242 PA010 DA1946=
0134008415999992015102613534+07300+134200FM-15+000099999V0200601N003619999999N999999999+02831+02411101291ADDMA1101291999999REMMET107MOBOB2 METAR XM21 //000 073342 261353Z AUTO 06007KT 28/24 A2991 RMK      A02 SLP129 T02830241 PA010 DA1942=
0134008415999992015102614534+07300+134200FM-15+000099999V0200601N003119999999N999999999+02821+02411101221ADDMA1101221999999REMMET107MOBOB2 METAR XM21 //000 073342 261453Z AUTO 06006KT 28/24 A2989 RMK      A02 SLP122 T02820241 PA029 DA1956=
0134008415999992015102615534+07300+134200FM-15+000099999V0200501N004619999999N999999999+02801+02411101161ADDMA1101151999999REMMET107MOBOB2 METAR XM21 //000 073342 261553Z AUTO 05009KT 28/24 A2987 RMK      A02 SLP116 T02800241 PA047 DA1956=
0134008415999992015102616534+07300+134200FM-15+000099999V0200601N003619999999N999999999+02801+02411101091ADDMA1101081999999REMMET107MOBOB2 METAR XM21 //000 073342 261653Z AUTO 06007KT 28/24 A2985 RMK      A02 SLP109 T02800241 PA066 DA1977=
0134008415999992015102617534+07300+134200FM-15+000099999V0200601N003119999999N999999999+02791+02431101061ADDMA1101051999999REMMET107MOBOB2 METAR XM21 //000 073342 261753Z AUTO 06006KT 28/24 A2984 RMK      A02 SLP106 T02790243 PA075 DA1983=
0134008415999992015102618534+07300+134200FM-15+000099999V0200401N003619999999N999999999+02791+02421101021ADDMA1101021999999REMMET107MOBOB2 METAR XM21 //000 073342 261853Z AUTO 04007KT 28/24 A2983 RMK      A02 SLP102 T02790242 PA084 DA1992=
0134008415999992015102619534+07300+134200FM-15+000099999V0200401N004619999999N999999999+02791+02401101061ADDMA1101051999999REMMET107MOBOB2 METAR XM21 //000 073342 261953Z AUTO 04009KT 28/24 A2984 RMK      A02 SLP106 T02790240 PA075 DA1975=
0134008415999992015102620534+07300+134200FM-15+000099999V0200601N004619999999N999999999+02791+02411101091ADDMA1101081999999REMMET107MOBOB2 METAR XM21 //000 073342 262053Z AUTO 06009KT 28/24 A2985 RMK      A02 SLP109 T02790241 PA066 DA1968=
0134008415999992015102621534+07300+134200FM-15+000099999V0200401N004119999999N999999999+02811+02371101161ADDMA1101151999999REMMET107MOBOB2 METAR XM21 //000 073342 262153Z AUTO 04008KT 28/24 A2987 RMK      A02 SLP116 T02810237 PA047 DA1957=
0134008415999992015102622534+07300+134200FM-15+000099999V0200401N004119999999N999999999+02821+02371101221ADDMA1101221999999REMMET107MOBOB2 METAR XM21 //000 073342 262253Z AUTO 04008KT 28/24 A2989 RMK      A02 SLP122 T02820237 PA029 DA1946=
0134008415999992015102623534+07300+134200FM-15+000099999V0200401N004119999999N999999999+02841+02381101191ADDMA1101181999999REMMET107MOBOB2 METAR XM21 //000 073342 262353Z AUTO 04008KT 28/24 A2988 RMK      A02 SLP119 T02840238 PA038 DA1983=
0134008415999992015102700534+07300+134200FM-15+000099999V0200401N004119999999N999999999+02861+02351101191ADDMA1101181999999REMMET107MOBOB2 METAR XM21 //000 073342 270053Z AUTO 04008KT 29/24 A2988 RMK      A02 SLP119 T02860235 PA038 DA1997=
0134008415999992015102701534+07300+134200FM-15+000099999V0200201N003119999999N999999999+02881+02381101161ADDMA1101151999999REMMET107MOBOB2 METAR XM21 //000 073342 270153Z AUTO 02006KT 29/24 A2987 RMK      A02 SLP116 T02880238 PA047 DA2038=
0134008415999992015102702534+07300+134200FM-15+000099999V0200201N004119999999N999999999+02891+02341101091ADDMA1101081999999REMMET107MOBOB2 METAR XM21 //000 073342 270253Z AUTO 02008KT 29/23 A2985 RMK      A02 SLP109 T02890234 PA066 DA2063=
0134008415999992015102703534+07300+134200FM-15+000099999V0200201N005119999999N999999999+02891+02451101021ADDMA1101021999999REMMET107MOBOB2 METAR XM21 //000 073342 270353Z AUTO 02010KT 29/24 A2983 RMK      A02 SLP102 T02890245 PA084 DA2110=
0134008415999992015102704534+07300+134200FM-15+000099999V0201501N003119999999N999999999+02951+02401100951ADDMA1100951999999REMMET107MOBOB2 METAR XM21 //000 073342 270453Z AUTO 15006KT 30/24 A2981 RMK      A02 SLP095 T02950240 PA103 DA2188=
0134008415999992015102705534+07300+134200FM-15+000099999V0201001N003119999999N999999999+02961+02341100921ADDMA1100911999999REMMET107MOBOB2 METAR XM21 //000 073342 270553Z AUTO 10006KT 30/23 A2980 RMK      A02 SLP092 T02960234 PA112 DA2197=
0134008415999992015102706534+07300+134200FM-15+000099999V0201001N004119999999N999999999+02931+02411100921ADDMA1100911999999REMMET107MOBOB2 METAR XM21 //000 073342 270653Z AUTO 10008KT 29/24 A2980 RMK      A02 SLP092 T02930241 PA112 DA2180=
0145008415999992015102707534+07300+134200FM-15+000099999V0200801N005119999999N999999999+02901+02321100951ADDMA1100951999999OC100621REMMET110MOBOB2 METAR XM21 //000 073342 270753Z AUTO 08010G12KT 29/23 A2981      RMK A02 SLP095 T02900232 PA103 DA2116=
0145008415999992015102708534+07300+134200FM-15+000099999V0200901N004619999999N999999999+02871+02401100991ADDMA1100981999999OC100621REMMET110MOBOB2 METAR XM21 //000 073342 270853Z AUTO 09009G12KT 29/24 A2982      RMK A02 SLP099 T02870240 PA094 DA2088=
0134008415999992015102709534+07300+134200FM-15+000099999V0200801N004619999999N999999999+02851+02401101061ADDMA1101051999999REMMET107MOBOB2 METAR XM21 //000 073342 270953Z AUTO 08009KT 29/24 A2984 RMK      A02 SLP106 T02850240 PA075 DA2043=
0134008415999992015102710534+07300+134200FM-15+000099999V0200601N004619999999N999999999+02851+02401101121ADDMA1101121999999REMMET107MOBOB2 METAR XM21 //000 073342 271053Z AUTO 06009KT 29/24 A2986 RMK      A02 SLP112 T02850240 PA057 DA2021=
0134008415999992015102711534+07300+134200FM-15+000099999V0200701N004119999999N999999999+02851+02401101191ADDMA1101181999999REMMET107MOBOB2 METAR XM21 //000 073342 271153Z AUTO 07008KT 29/24 A2988 RMK      A02 SLP119 T02850240 PA038 DA1998=
0134008415999992015102712534+07300+134200FM-15+000099999V0200701N004119999999N999999999+02851+02421101221ADDMA1101221999999REMMET107MOBOB2 METAR XM21 //000 073342 271253Z AUTO 07008KT 29/24 A2989 RMK      A02 SLP122 T02850242 PA029 DA1990=
0172008415999992015102713534+07300+134200FM-15+000099999V0200701N005119999999N999999999+02561+02291101191ADDAA101002531AW1631MA1101181999999OC100771REMMET120MOBOB2 METAR XM21 //000 073342 271353Z AUTO 07010G15KT +RA 26/23 A2988      RMK A02 SLP119 P0010 T02560229 PA038 DA1646=
0172008415999992015102714534+07300+134200FM-15+000099999V0200701N005719999999N999999999+02701+02421101191ADDAA101000531AW1631MA1101181999999OC101081REMMET120MOBOB2 METAR XM21 //000 073342 271453Z AUTO 07011G21KT +RA 27/24 A2988      RMK A02 SLP119 P0002 T02700242 PA038 DA1833=
0172008415999992015102715534+07300+134200FM-15+000099999V0200501N006219999999N999999999+02671+02401101161ADDAA101002531AW1611MA1101151999999OC100721REMMET120MOBOB2 METAR XM21 //000 073342 271553Z AUTO 05012G14KT -RA 27/24 A2987      RMK A02 SLP116 P0010 T02670240 PA047 DA1807=
0134008415999992015102716534+07300+134200FM-15+000099999V0200701N004119999999N999999999+02711+02421101091ADDMA1101081999999REMMET107MOBOB2 METAR XM21 //000 073342 271653Z AUTO 07008KT 27/24 A2985 RMK      A02 SLP109 T02710242 PA066 DA1878=
0145008415999992015102717534+07300+134200FM-15+000099999V0200501N004619999999N999999999+02741+02451101061ADDMA1101051999999OC100621REMMET110MOBOB2 METAR XM21 //000 073342 271753Z AUTO 05009G12KT 27/25 A2984      RMK A02 SLP106 T02740245 PA075 DA1932=
0134008415999992015102718534+07300+134200FM-15+000099999V0200401N004619999999N999999999+02761+02461101061ADDMA1101051999999REMMET107MOBOB2 METAR XM21 //000 073342 271853Z AUTO 04009KT 28/25 A2984 RMK      A02 SLP106 T02760246 PA075 DA1956=
0145008415999992015102719534+07300+134200FM-15+000099999V0200501N004119999999N999999999+02771+02481101061ADDMA1101051999999OC100621REMMET110MOBOB2 METAR XM21 //000 073342 271953Z AUTO 05008G12KT 28/25 A2984      RMK A02 SLP106 T02770248 PA075 DA1972=
0134008415999992015102720534+07300+134200FM-15+000099999V0200601N004119999999N999999999+02761+02441101121ADDMA1101121999999REMMET107MOBOB2 METAR XM21 //000 073342 272053Z AUTO 06008KT 28/24 A2986 RMK      A02 SLP112 T02760244 PA057 DA1929=
0134008415999992015102721534+07300+134200FM-15+000099999V0200601N004119999999N999999999+02791+02421101221ADDMA1101221999999REMMET107MOBOB2 METAR XM21 //000 073342 272153Z AUTO 06008KT 28/24 A2989 RMK      A02 SLP122 T02790242 PA029 DA1924=
0134008415999992015102722534+07300+134200FM-15+000099999V0200601N003619999999N999999999+02821+02461101261ADDMA1101251999999REMMET107MOBOB2 METAR XM21 //000 073342 272253Z AUTO 06007KT 28/25 A2990 RMK      A02 SLP126 T02820246 PA020 DA1954=
0134008415999992015102723534+07300+134200FM-15+000099999V0200601N004119999999N999999999+02851+02431101331ADDMA1101321999999REMMET107MOBOB2 METAR XM21 //000 073342 272353Z AUTO 06008KT 29/24 A2992 RMK      A02 SLP133 T02850243 PA001 DA1959=
0134008415999992015102800534+07300+134200FM-15+000099999V0200501N003119999999N999999999+02871+02441101291ADDMA1101291999999REMMET107MOBOB2 METAR XM21 //000 073342 280053Z AUTO 05006KT 29/24 A2991 RMK      A02 SLP129 T02870244 PA010 DA1995=
0134008415999992015102801534+07300+134200FM-15+000099999V0200301N002119999999N999999999+02901+02421101221ADDMA1101221999999REMMET107MOBOB2 METAR XM21 //000 073342 280153Z AUTO 03004KT 29/24 A2989 RMK      A02 SLP122 T02900242 PA029 DA2047=
0145008415999992015102802534+07300+134200FM-15+000099999V0201101N004619999999N999999999+02891+02441101161ADDMA1101151999999OC100721REMMET110MOBOB2 METAR XM21 //000 073342 280253Z AUTO 11009G14KT 29/24 A2987      RMK A02 SLP116 T02890244 PA047 DA2063=
0134008415999992015102803534+07300+134200FM-15+000099999V0200101N003619999999N999999999+02801+02361101121ADDMA1101121999999REMMET107MOBOB2 METAR XM21 //000 073342 280353Z AUTO 01007KT 28/24 A2986 RMK      A02 SLP112 T02800236 PA057 DA1954=
0134008415999992015102804534+07300+134200FM-15+000099999V0203201N001019999999N999999999+03001+02381101061ADDMA1101051999999REMMET107MOBOB2 METAR XM21 //000 073342 280453Z AUTO 32002KT 30/24 A2984 RMK      A02 SLP106 T03000238 PA075 DA2205=
0134008415999992015102805534+07300+134200FM-15+000099999V0203201N001019999999N999999999+03021+02371101021ADDMA1101021999999REMMET107MOBOB2 METAR XM21 //000 073342 280553Z AUTO 32002KT 30/24 A2983 RMK      A02 SLP102 T03020237 PA084 DA2236=
0134008415999992015102806534+07300+134200FM-15+000099999V0200101N003619999999N999999999+02781+02461101021ADDMA1101021999999REMMET107MOBOB2 METAR XM21 //000 073342 280653Z AUTO 01007KT 28/25 A2983 RMK      A02 SLP102 T02780246 PA084 DA1991=
0134008415999992015102807534+07300+134200FM-15+000099999V0200201N003619999999N999999999+02761+02351101061ADDMA1101051999999REMMET107MOBOB2 METAR XM21 //000 073342 280753Z AUTO 02007KT 28/24 A2984 RMK      A02 SLP106 T02760235 PA075 DA1931=
0134008415999992015102808534+07300+134200FM-15+000099999V0200301N002119999999N999999999+02801+02461101091ADDMA1101081999999REMMET107MOBOB2 METAR XM21 //000 073342 280853Z AUTO 03004KT 28/25 A2985 RMK      A02 SLP109 T02800246 PA066 DA1990=
0161008415999992015102809534+07300+134200FM-15+000099999V0200501N003119999999N999999999+02781+02441101161ADDAA101000021AW1611MA1101151999999REMMET117MOBOB2 METAR XM21 //000 073342 280953Z AUTO 05006KT -RA 28/24 A2987      RMK A02 SLP116 P0000 T02780244 PA047 DA1940=
0134008415999992015102810534+07300+134200FM-15+000099999V0200701N002619999999N999999999+02821+02411101221ADDMA1101221999999REMMET107MOBOB2 METAR XM21 //000 073342 281053Z AUTO 07005KT 28/24 A2989 RMK      A02 SLP122 T02820241 PA029 DA1954=
0134008415999992015102811534+07300+134200FM-15+000099999V0200601N002619999999N999999999+02821+02441101221ADDMA1101221999999REMMET107MOBOB2 METAR XM21 //000 073342 281153Z AUTO 06005KT 28/24 A2989 RMK      A02 SLP122 T02820244 PA029 DA1962=
0134008415999992015102812534+07300+134200FM-15+000099999V0200701N002619999999N999999999+02821+02421101261ADDMA1101251999999REMMET107MOBOB2 METAR XM21 //000 073342 281253Z AUTO 07005KT 28/24 A2990 RMK      A02 SLP126 T02820242 PA020 DA1945=
0134008415999992015102813534+07300+134200FM-15+000099999V0200701N003119999999N999999999+02811+02461101261ADDMA1101251999999REMMET107MOBOB2 METAR XM21 //000 073342 281353Z AUTO 07006KT 28/25 A2990 RMK      A02 SLP126 T02810246 PA020 DA1944=
0134008415999992015102814534+07300+134200FM-15+000099999V0200801N002619999999N999999999+02791+02441101221ADDMA1101221999999REMMET107MOBOB2 METAR XM21 //000 073342 281453Z AUTO 08005KT 28/24 A2989 RMK      A02 SLP122 T02790244 PA029 DA1929=
0134008415999992015102815534+07300+134200FM-15+000099999V0200801N002619999999N999999999+02791+02441101161ADDMA1101151999999REMMET107MOBOB2 METAR XM21 //000 073342 281553Z AUTO 08005KT 28/24 A2987 RMK      A02 SLP116 T02790244 PA047 DA1950=
0134008415999992015102816534+07300+134200FM-15+000099999V0200801N002619999999N999999999+02791+02431101121ADDMA1101121999999REMMET107MOBOB2 METAR XM21 //000 073342 281653Z AUTO 08005KT 28/24 A2986 RMK      A02 SLP112 T02790243 PA057 DA1961=
0134008415999992015102817534+07300+134200FM-15+000099999V0200701N002119999999N999999999+02781+02451101061ADDMA1101051999999REMMET107MOBOB2 METAR XM21 //000 073342 281753Z AUTO 07004KT 28/25 A2984 RMK      A02 SLP106 T02780245 PA075 DA1977=
0134008415999992015102818534+07300+134200FM-15+000099999V0200601N002619999999N999999999+02781+02431101061ADDMA1101051999999REMMET107MOBOB2 METAR XM21 //000 073342 281853Z AUTO 06005KT 28/24 A2984 RMK      A02 SLP106 T02780243 PA075 DA1971=
0134008415999992015102819534+07300+134200FM-15+000099999V0200601N003119999999N999999999+02791+02431101091ADDMA1101081999999REMMET107MOBOB2 METAR XM21 //000 073342 281953Z AUTO 06006KT 28/24 A2985 RMK      A02 SLP109 T02790243 PA066 DA1972=
0134008415999992015102820534+07300+134200FM-15+000099999V0200601N003119999999N999999999+02791+02421101121ADDMA1101121999999REMMET107MOBOB2 METAR XM21 //000 073342 282053Z AUTO 06006KT 28/24 A2986 RMK      A02 SLP112 T02790242 PA057 DA1957=
0134008415999992015102821534+07300+134200FM-15+000099999V0200501N003619999999N999999999+02821+02431101191ADDMA1101181999999REMMET107MOBOB2 METAR XM21 //000 073342 282153Z AUTO 05007KT 28/24 A2988 RMK      A02 SLP119 T02820243 PA038 DA1971=
0134008415999992015102822534+07300+134200FM-15+000099999V0200401N004119999999N999999999+02831+02421101221ADDMA1101221999999REMMET107MOBOB2 METAR XM21 //000 073342 282253Z AUTO 04008KT 28/24 A2989 RMK      A02 SLP122 T02830242 PA029 DA1968=
0134008415999992015102823534+07300+134200FM-15+000099999V0200301N004119999999N999999999+02841+02401101221ADDMA1101221999999REMMET107MOBOB2 METAR XM21 //000 073342 282353Z AUTO 03008KT 28/24 A2989 RMK      A02 SLP122 T02840240 PA029 DA1975=
0134008415999992015102900534+07300+134200FM-15+000099999V0200401N004119999999N999999999+02871+02421101261ADDMA1101251999999REMMET107MOBOB2 METAR XM21 //000 073342 290053Z AUTO 04008KT 29/24 A2990 RMK      A02 SLP126 T02870242 PA020 DA2002=
0134008415999992015102901534+07300+134200FM-15+000099999V0200301N003619999999N999999999+02891+02371101221ADDMA1101221999999REMMET107MOBOB2 METAR XM21 //000 073342 290153Z AUTO 03007KT 29/24 A2989 RMK      A02 SLP122 T02890237 PA029 DA2024=
0134008415999992015102902534+07300+134200FM-15+000099999V0200301N003619999999N999999999+02901+02401101121ADDMA1101121999999REMMET107MOBOB2 METAR XM21 //000 073342 290253Z AUTO 03007KT 29/24 A2986 RMK      A02 SLP112 T02900240 PA057 DA2076=
0134008415999992015102903534+07300+134200FM-15+000099999V0200201N004619999999N999999999+02911+02431101061ADDMA1101051999999REMMET107MOBOB2 METAR XM21 //000 073342 290353Z AUTO 02009KT 29/24 A2984 RMK      A02 SLP106 T02910243 PA075 DA2117=
0172008415999992015102904534+07300+134200FM-15+000099999V0200201N005119999999N999999999+02831+02441100991ADDAA101000021AW1611MA1100981999999OC100621REMMET120MOBOB2 METAR XM21 //000 073342 290453Z AUTO 02010G12KT -RA 28/24 A2982      RMK A02 SLP099 P0000 T02830244 PA094 DA2052=
0172008415999992015102905534+07300+134200FM-15+000099999V0200201N006719999999N999999999+02921+02411100921ADDAA101001531AW1611MA1100911999999OC100821REMMET120MOBOB2 METAR XM21 //000 073342 290553Z AUTO 02013G16KT -RA 29/24 A2980      RMK A02 SLP092 P0006 T02920241 PA112 DA2168=
0145008415999992015102906534+07300+134200FM-15+000099999V0200201N006219999999N999999999+02901+02501100951ADDMA1100951999999OC100771REMMET110MOBOB2 METAR XM21 //000 073342 290653Z AUTO 02012G15KT 29/25 A2981      RMK A02 SLP095 T02900250 PA103 DA2157=
0172008415999992015102907534+07300+134200FM-15+000099999V0200301N006219999999N999999999+02871+02471100991ADDAA101000021AW1611MA1100981999999OC100771REMMET120MOBOB2 METAR XM21 //000 073342 290753Z AUTO 03012G15KT -RA 29/25 A2982      RMK A02 SLP099 P0000 T02870247 PA094 DA2105=
0161008415999992015102908534+07300+134200FM-15+000099999V0200701N004119999999N999999999+02911+02311101021ADDAA101000021AW1611MA1101021999999REMMET117MOBOB2 METAR XM21 //000 073342 290853Z AUTO 07008KT -RA 29/23 A2983      RMK A02 SLP102 P0000 T02910231 PA084 DA2100=
0145008415999992015102909534+07300+134200FM-15+000099999V0200601N004619999999N999999999+02891+02421101061ADDMA1101051999999OC100621REMMET110MOBOB2 METAR XM21 //000 073342 290953Z AUTO 06009G12KT 29/24 A2984      RMK A02 SLP106 T02890242 PA075 DA2092=
0145008415999992015102910534+07300+134200FM-15+000099999V0200501N006719999999N999999999+02861+02451101091ADDMA1101081999999OC100821REMMET110MOBOB2 METAR XM21 //000 073342 291053Z AUTO 05013G16KT 29/25 A2985      RMK A02 SLP109 T02860245 PA066 DA2055=
0145008415999992015102911534+07300+134200FM-15+000099999V0200501N005719999999N999999999+02851+02481101161ADDMA1101151999999OC100721REMMET110MOBOB2 METAR XM21 //000 073342 291153Z AUTO 05011G14KT 29/25 A2987      RMK A02 SLP116 T02850248 PA047 DA2028=
0145008415999992015102912534+07300+134200FM-15+000099999V0200401N006219999999N999999999+02851+02411101161ADDMA1101151999999OC100721REMMET110MOBOB2 METAR XM21 //000 073342 291253Z AUTO 04012G14KT 29/24 A2987      RMK A02 SLP116 T02850241 PA047 DA2012=
0145008415999992015102913534+07300+134200FM-15+000099999V0200501N006219999999N999999999+02831+02361101191ADDMA1101181999999OC100721REMMET110MOBOB2 METAR XM21 //000 073342 291353Z AUTO 05012G14KT 28/24 A2988      RMK A02 SLP119 T02830236 PA038 DA1967=
0145008415999992015102914534+07300+134200FM-15+000099999V0200401N006719999999N999999999+02821+02461101121ADDMA1101121999999OC100721REMMET110MOBOB2 METAR XM21 //000 073342 291453Z AUTO 04013G14KT 28/25 A2986      RMK A02 SLP112 T02820246 PA057 DA2001=
0145008415999992015102915534+07300+134200FM-15+000099999V0200401N006219999999N999999999+02811+02441101091ADDMA1101081999999OC100721REMMET110MOBOB2 METAR XM21 //000 073342 291553Z AUTO 04012G14KT 28/24 A2985      RMK A02 SLP109 T02810244 PA066 DA1997=
0145008415999992015102916534+07300+134200FM-15+000099999V0200401N006719999999N999999999+02811+02431101021ADDMA1101021999999OC100821REMMET110MOBOB2 METAR XM21 //000 073342 291653Z AUTO 04013G16KT 28/24 A2983      RMK A02 SLP102 T02810243 PA084 DA2016=
0145008415999992015102917534+07300+134200FM-15+000099999V0200401N005719999999N999999999+02811+02451100951ADDMA1100951999999OC100771REMMET110MOBOB2 METAR XM21 //000 073342 291753Z AUTO 04011G15KT 28/25 A2981      RMK A02 SLP095 T02810245 PA103 DA2045=
0145008415999992015102918534+07300+134200FM-15+000099999V0200501N007219999999N999999999+02801+02471100951ADDMA1100951999999OC100821REMMET110MOBOB2 METAR XM21 //000 073342 291853Z AUTO 05014G16KT 28/25 A2981      RMK A02 SLP095 T02800247 PA103 DA2037=
0145008415999992015102919534+07300+134200FM-15+000099999V0200501N006219999999N999999999+02771+02501100991ADDMA1100981999999OC100771REMMET110MOBOB2 METAR XM21 //000 073342 291953Z AUTO 05012G15KT 28/25 A2982      RMK A02 SLP099 T02770250 PA094 DA1999=
0134008415999992015102920534+07300+134200FM-15+000099999V0200501N005119999999N999999999+02781+02481101021ADDMA1101021999999REMMET107MOBOB2 METAR XM21 //000 073342 292053Z AUTO 05010KT 28/25 A2983 RMK      A02 SLP102 T02780248 PA084 DA1995=
0134008415999992015102921534+07300+134200FM-15+000099999V0200701N003619999999N999999999+02821+02471101121ADDMA1101121999999REMMET107MOBOB2 METAR XM21 //000 073342 292153Z AUTO 07007KT 28/25 A2986 RMK      A02 SLP112 T02820247 PA057 DA2002=
0134008415999992015102922534+07300+134200FM-15+000099999V0200601N004119999999N999999999+02851+02471101161ADDMA1101151999999REMMET107MOBOB2 METAR XM21 //000 073342 292253Z AUTO 06008KT 29/25 A2987 RMK      A02 SLP116 T02850247 PA047 DA2025=
0172008415999992015102923534+07300+134200FM-15+000099999V0200501N004619999999N999999999+02811+02391101191ADDAA101000021AW1611MA1101181999999OC100621REMMET120MOBOB2 METAR XM21 //000 073342 292353Z AUTO 05009G12KT -RA 28/24 A2988      RMK A02 SLP119 P0000 T02810239 PA038 DA1951=
0145008415999992015103000534+07300+134200FM-15+000099999V0200601N005719999999N999999999+02861+02391101161ADDMA1101151999999OC100981REMMET110MOBOB2 METAR XM21 //000 073342 300053Z AUTO 06011G19KT 29/24 A2987      RMK A02 SLP116 T02860239 PA047 DA2018=
0145008415999992015103001534+07300+134200FM-15+000099999V0200901N005719999999N999999999+02931+02371101091ADDMA1101081999999OC100671REMMET110MOBOB2 METAR XM21 //000 073342 300153Z AUTO 09011G13KT 29/24 A2985      RMK A02 SLP109 T02930237 PA066 DA2113=
0145008415999992015103002534+07300+134200FM-15+000099999V0200901N006219999999N999999999+02951+02291100991ADDMA1100981999999OC100771REMMET110MOBOB2 METAR XM21 //000 073342 300253Z AUTO 09012G15KT 30/23 A2982      RMK A02 SLP099 T02950229 PA094 DA2154=
0134008415999992015103003534+07300+134200FM-15+000099999V0201001N004119999999N999999999+02961+02271100891ADDMA1100881999999REMMET107MOBOB2 METAR XM21 //000 073342 300353Z AUTO 10008KT 30/23 A2979 RMK      A02 SLP089 T02960227 PA122 DA2194=
0145008415999992015103004534+07300+134200FM-15+000099999V0200701N005119999999N999999999+02961+02351100821ADDMA1100811999999OC100621REMMET110MOBOB2 METAR XM21 //000 073342 300453Z AUTO 07010G12KT 30/24 A2977      RMK A02 SLP082 T02960235 PA140 DA2234=
0145008415999992015103005534+07300+134200FM-15+000099999V0201001N005119999999N999999999+02971+02231100781ADDMA1100781999999OC100671REMMET110MOBOB2 METAR XM21 //000 073342 300553Z AUTO 10010G13KT 30/22 A2976      RMK A02 SLP078 T02970223 PA149 DA2231=
0145008415999992015103006534+07300+134200FM-15+000099999V0200901N005719999999N999999999+02951+02271100781ADDMA1100781999999OC100721REMMET110MOBOB2 METAR XM21 //000 073342 300653Z AUTO 09011G14KT 30/23 A2976      RMK A02 SLP078 T02950227 PA149 DA2217=
0145008415999992015103007534+07300+134200FM-15+000099999V0200901N005719999999N999999999+02931+02181100821ADDMA1100811999999OC100671REMMET110MOBOB2 METAR XM21 //000 073342 300753Z AUTO 09011G13KT 29/22 A2977      RMK A02 SLP082 T02930218 PA140 DA2164=
0134008415999992015103008534+07300+134200FM-15+000099999V0200901N004619999999N999999999+02891+02401100891ADDMA1100881999999REMMET107MOBOB2 METAR XM21 //000 073342 300853Z AUTO 09009KT 29/24 A2979 RMK      A02 SLP089 T02890240 PA122 DA2145=
0145008415999992015103009534+07300+134200FM-15+000099999V0200801N005119999999N999999999+02881+02321100951ADDMA1100951999999OC100721REMMET110MOBOB2 METAR XM21 //000 073342 300953Z AUTO 08010G14KT 29/23 A2981      RMK A02 SLP095 T02880232 PA103 DA2094=
0145008415999992015103010534+07300+134200FM-15+000099999V0200701N005719999999N999999999+02871+02351101021ADDMA1101021999999OC100721REMMET110MOBOB2 METAR XM21 //000 073342 301053Z AUTO 07011G14KT 29/24 A2983      RMK A02 SLP102 T02870235 PA084 DA2066=
0145008415999992015103011534+07300+134200FM-15+000099999V0200601N005119999999N999999999+02861+02421101061ADDMA1101051999999OC100721REMMET110MOBOB2 METAR XM21 //000 073342 301153Z AUTO 06010G14KT 29/24 A2984      RMK A02 SLP106 T02860242 PA075 DA2058=
0145008415999992015103012534+07300+134200FM-15+000099999V0200701N005119999999N999999999+02851+02431101091ADDMA1101081999999OC100721REMMET110MOBOB2 METAR XM21 //000 073342 301253Z AUTO 07010G14KT 29/24 A2985      RMK A02 SLP109 T02850243 PA066 DA2039=
0172008415999992015103013534+07300+134200FM-15+000099999V0200601N005119999999N999999999+02821+02441101091ADDAA101000021AW1611MA1101081999999OC100671REMMET120MOBOB2 METAR XM21 //000 073342 301353Z AUTO 06010G13KT -RA 28/24 A2985      RMK A02 SLP109 P0000 T02820244 PA066 DA2007=
0145008415999992015103014534+07300+134200FM-15+000099999V0200501N005719999999N999999999+02841+02431101091ADDMA1101081999999OC100721REMMET110MOBOB2 METAR XM21 //000 073342 301453Z AUTO 05011G14KT 28/24 A2985      RMK A02 SLP109 T02840243 PA066 DA2028=
0145008415999992015103015534+07300+134200FM-15+000099999V0200601N006219999999N999999999+02821+02451100991ADDMA1100981999999OC100771REMMET110MOBOB2 METAR XM21 //000 073342 301553Z AUTO 06012G15KT 28/25 A2982      RMK A02 SLP099 T02820245 PA094 DA2044=
0134008415999992015103016534+07300+134200FM-15+000099999V0200601N003619999999N999999999+02801+02441100891ADDMA1100881999999REMMET107MOBOB2 METAR XM21 //000 073342 301653Z AUTO 06007KT 28/24 A2979 RMK      A02 SLP089 T02800244 PA122 DA2053=
0134008415999992015103017534+07300+134200FM-15+000099999V0200501N005119999999N999999999+02801+02481100851ADDMA1100851999999REMMET107MOBOB2 METAR XM21 //000 073342 301753Z AUTO 05010KT 28/25 A2978 RMK      A02 SLP085 T02800248 PA131 DA2075=
0172008415999992015103018534+07300+134200FM-15+000099999V0200501N005719999999N999999999+02811+02491100851ADDAA101000021AW1611MA1100851999999OC100721REMMET120MOBOB2 METAR XM21 //000 073342 301853Z AUTO 05011G14KT -RA 28/25 A2978      RMK A02 SLP085 P0000 T02810249 PA131 DA2089=
0161008415999992015103019534+07300+134200FM-15+000099999V0200701N004119999999N999999999+02681+02421100851ADDAA101000021AW1611MA1100851999999REMMET117MOBOB2 METAR XM21 //000 073342 301953Z AUTO 07008KT -RA 27/24 A2978      RMK A02 SLP085 P0000 T02680242 PA131 DA1926=
0134008415999992015103020534+07300+134200FM-15+000099999V0200601N004119999999N999999999+02781+02411100921ADDMA1100911999999REMMET107MOBOB2 METAR XM21 //000 073342 302053Z AUTO 06008KT 28/24 A2980 RMK      A02 SLP092 T02780241 PA112 DA2013=
0134008415999992015103021534+07300+134200FM-15+000099999V0200701N004619999999N999999999+02831+02401100991ADDMA1100981999999REMMET107MOBOB2 METAR XM21 //000 073342 302153Z AUTO 07009KT 28/24 A2982 RMK      A02 SLP099 T02830240 PA094 DA2044=
0134008415999992015103022534+07300+134200FM-15+000099999V0200701N004619999999N999999999+02841+02461101091ADDMA1101081999999REMMET107MOBOB2 METAR XM21 //000 073342 302253Z AUTO 07009KT 28/25 A2985 RMK      A02 SLP109 T02840246 PA066 DA2034=
0145008415999992015103023534+07300+134200FM-15+000099999V0200701N005119999999N999999999+02891+02381101121ADDMA1101121999999OC100671REMMET110MOBOB2 METAR XM21 //000 073342 302353Z AUTO 07010G13KT 29/24 A2986      RMK A02 SLP112 T02890238 PA057 DA2061=
0134008415999992015103100534+07300+134200FM-15+000099999V0200801N004619999999N999999999+02921+02321101091ADDMA1101081999999REMMET107MOBOB2 METAR XM21 //000 073342 310053Z AUTO 08009KT 29/23 A2985 RMK      A02 SLP109 T02920232 PA066 DA2091=
0134008415999992015103101534+07300+134200FM-15+000099999V0200901N005119999999N999999999+02931+02341101021ADDMA1101021999999REMMET107MOBOB2 METAR XM21 //000 073342 310153Z AUTO 09010KT 29/23 A2983 RMK      A02 SLP102 T02930234 PA084 DA2130=
0134008415999992015103102534+07300+134200FM-15+000099999V0200901N003119999999N999999999+02971+02371100991ADDMA1100981999999REMMET107MOBOB2 METAR XM21 //000 073342 310253Z AUTO 09006KT 30/24 A2982 RMK      A02 SLP099 T02970237 PA094 DA2192=
0171008415999992015103103534+07300+134200FM-15+000099999V0200801N005119999999N999999999+02771+02311100951ADDAA101000231AW1621MA1100951999999OC100671REMMET119MOBOB2 METAR XM21 //000 073342 310353Z AUTO 08010G13KT RA 28/23 A2981      RMK A02 SLP095 P0001 T02770231 PA103 DA1967=
0145008415999992015103104534+07300+134200FM-15+000099999V0201301N006219999999N999999999+02901+02471100851ADDMA1100851999999OC100771REMMET110MOBOB2 METAR XM21 //000 073342 310453Z AUTO 13012G15KT 29/25 A2978      RMK A02 SLP085 T02900247 PA131 DA2184=
0161008415999992015103105534+07300+134200FM-15+000099999V0200401N002119999999N999999999+02601+02241100851ADDAA101003331AW1611MA1100851999999REMMET117MOBOB2 METAR XM21 //000 073342 310553Z AUTO 04004KT -RA 26/22 A2978      RMK A02 SLP085 P0013 T02600224 PA131 DA1796=
0145008415999992015103106534+07300+134200FM-15+000099999V0200701N004619999999N999999999+02751+02431100781ADDMA1100781999999OC100621REMMET110MOBOB2 METAR XM21 //000 073342 310653Z AUTO 07009G12KT 28/24 A2976      RMK A02 SLP078 T02750243 PA149 DA2029=
0145008415999992015103107534+07300+134200FM-15+000099999V0200701N006219999999N999999999+02761+02461100851ADDMA1100851999999OC100771REMMET110MOBOB2 METAR XM21 //000 073342 310753Z AUTO 07012G15KT 28/25 A2978      RMK A02 SLP085 T02760246 PA131 DA2024=
0134008415999992015103108534+07300+134200FM-15+000099999V0200801N004619999999N999999999+02781+02331100921ADDMA1100911999999REMMET107MOBOB2 METAR XM21 //000 073342 310853Z AUTO 08009KT 28/23 A2980 RMK      A02 SLP092 T02780233 PA112 DA1995=
0145008415999992015103109534+07300+134200FM-15+000099999V0200701N005119999999N999999999+02811+02371100991ADDMA1100981999999OC100671REMMET110MOBOB2 METAR XM21 //000 073342 310953Z AUTO 07010G13KT 28/24 A2982      RMK A02 SLP099 T02810237 PA094 DA2014=
0172008415999992015103110534+07300+134200FM-15+000099999V0200801N005719999999N999999999+02721+02421101061ADDAA101001231AW1611MA1101051999999OC100721REMMET120MOBOB2 METAR XM21 //000 073342 311053Z AUTO 08011G14KT -RA 27/24 A2984      RMK A02 SLP106 P0005 T02720242 PA075 DA1901=
0161008415999992015103111534+07300+134200FM-15+000099999V0200901N005119999999N999999999+02751+02491101091ADDAA101000021AW1611MA1101081999999REMMET117MOBOB2 METAR XM21 //000 073342 311153Z AUTO 09010KT -RA 28/25 A2985      RMK A02 SLP109 P0000 T02750249 PA066 DA1941=
0145008415999992015103112534+07300+134200FM-15+000099999V0200801N006219999999N999999999+02831+02441101121ADDMA1101121999999OC100821REMMET110MOBOB2 METAR XM21 //000 073342 311253Z AUTO 08012G16KT 28/24 A2986      RMK A02 SLP112 T02830244 PA057 DA2008=
0145008415999992015103113534+07300+134200FM-15+000099999V0201001N006719999999N999999999+02841+02381101091ADDMA1101081999999OC100821REMMET110MOBOB2 METAR XM21 //000 073342 311353Z AUTO 10013G16KT 28/24 A2985      RMK A02 SLP109 T02840238 PA066 DA2017=
0172008415999992015103114534+07300+134200FM-15+000099999V0200801N004619999999N999999999+02601+02361101061ADDAA101007831AW1611MA1101051999999OC100621REMMET120MOBOB2 METAR XM21 //000 073342 311453Z AUTO 08009G12KT -RA 26/24 A2984      RMK A02 SLP106 P0031 T02600236 PA075 DA1754=
0161008415999992015103115534+07300+134200FM-15+000099999V0200801N004119999999N999999999+02651+02341100991ADDAA101000531AW1611MA1100981999999REMMET117MOBOB2 METAR XM21 //000 073342 311553Z AUTO 08008KT -RA 27/23 A2982      RMK A02 SLP099 P0002 T02650234 PA094 DA1829=
0134008415999992015103116534+07300+134200FM-15+000099999V0200601N004119999999N999999999+02661+02401100851ADDMA1100851999999REMMET107MOBOB2 METAR XM21 //000 073342 311653Z AUTO 06008KT 27/24 A2978 RMK      A02 SLP085 T02660240 PA131 DA1900=
0134008415999992015103117534+07300+134200FM-15+000099999V0200901N004619999999N999999999+02731+02441100821ADDMA1100811999999REMMET107MOBOB2 METAR XM21 //000 073342 311753Z AUTO 09009KT 27/24 A2977 RMK      A02 SLP082 T02730244 PA140 DA1997=
0134008415999992015103118534+07300+134200FM-15+000099999V0200901N004119999999N999999999+02751+02381100821ADDMA1100811999999REMMET107MOBOB2 METAR XM21 //000 073342 311853Z AUTO 09008KT 28/24 A2977 RMK      A02 SLP082 T02750238 PA140 DA2007=
0134008415999992015103119534+07300+134200FM-15+000099999V0200801N003619999999N999999999+02771+02381100851ADDMA1100851999999REMMET107MOBOB2 METAR XM21 //000 073342 311953Z AUTO 08007KT 28/24 A2978 RMK      A02 SLP085 T02770238 PA131 DA2017=
0161008415999992015103120534+07300+134200FM-15+000099999V0201301N003619999999N999999999+02631+02401100921ADDAA101001031AW1611MA1100911999999REMMET117MOBOB2 METAR XM21 //000 073342 312053Z AUTO 13007KT -RA 26/24 A2980      RMK A02 SLP092 P0004 T02630240 PA112 DA1843=
0161008415999992015103121534+07300+134200FM-15+000099999V0201401N003619999999N999999999+02701+02461100991ADDAA101000021AW1611MA1100981999999REMMET117MOBOB2 METAR XM21 //000 073342 312153Z AUTO 14007KT -RA 27/25 A2982      RMK A02 SLP099 P0000 T02700246 PA094 DA1911=
0134008415999992015103122534+07300+134200FM-15+000099999V0200801N005119999999N999999999+02821+02391101091ADDMA1101081999999REMMET107MOBOB2 METAR XM21 //000 073342 312253Z AUTO 08010KT 28/24 A2985 RMK      A02 SLP109 T02820239 PA066 DA1995=
0145008415999992015103123534+07300+134200FM-15+000099999V0200701N005119999999N999999999+02831+02421101121ADDMA1101121999999OC100881REMMET110MOBOB2 METAR XM21 //000 073342 312353Z AUTO 07010G17KT 28/24 A2986      RMK A02 SLP112 T02830242 PA057 DA2002=
0145008415999992015110100534+07300+134200FM-15+000099999V0200701N005119999999N999999999+02821+02341101091ADDMA1101081999999OC100671REMMET110MOBOB2 METAR XM21 //000 073342 010053Z AUTO 07010G13KT 28/23 A2985      RMK A02 SLP109 T02820234 PA066 DA1985=
0172008415999992015110101534+07300+134200FM-15+000099999V0201101N007719999999N999999999+02611+02371101091ADDAA101000021AW1611MA1101081999999OC101031REMMET120MOBOB2 METAR XM21 //000 073342 010153Z AUTO 11015G20KT -RA 26/24 A2985      RMK A02 SLP109 P0000 T02610237 PA066 DA1755=
0172008415999992015110102534+07300+134200FM-15+000099999V0200801N007219999999N999999999+02611+02271100951ADDAA101002031AW1611MA1100951999999OC100881REMMET120MOBOB2 METAR XM21 //000 073342 010253Z AUTO 08014G17KT -RA 26/23 A2981      RMK A02 SLP095 P0008 T02610227 PA103 DA1780=
0145008415999992015110103534+07300+134200FM-15+000099999V0200701N005719999999N999999999+02691+02291100891ADDMA1100881999999OC100771REMMET110MOBOB2 METAR XM21 //000 073342 010353Z AUTO 07011G15KT 27/23 A2979      RMK A02 SLP089 T02690229 PA122 DA1896=
0145008415999992015110104534+07300+134200FM-15+000099999V0200801N005719999999N999999999+02701+02231100851ADDMA1100851999999OC100721REMMET110MOBOB2 METAR XM21 //000 073342 010453Z AUTO 08011G14KT 27/22 A2978      RMK A02 SLP085 T02700223 PA131 DA1907=
0145008415999992015110105534+07300+134200FM-15+000099999V0200901N006719999999N999999999+02791+02261100851ADDMA1100851999999OC100881REMMET110MOBOB2 METAR XM21 //000 073342 010553Z AUTO 09013G17KT 28/23 A2978      RMK A02 SLP085 T02790226 PA131 DA2013=
0145008415999992015110106534+07300+134200FM-15+000099999V0200801N007219999999N999999999+02761+02351100851ADDMA1100851999999OC100881REMMET110MOBOB2 METAR XM21 //000 073342 010653Z AUTO 08014G17KT 28/23 A2978      RMK A02 SLP085 T02760235 PA131 DA1999=
0145008415999992015110107534+07300+134200FM-15+000099999V0200801N006719999999N999999999+02751+02331100891ADDMA1100881999999OC100931REMMET110MOBOB2 METAR XM21 //000 073342 010753Z AUTO 08013G18KT 28/23 A2979      RMK A02 SLP089 T02750233 PA122 DA1973=
0145008415999992015110108534+07300+134200FM-15+000099999V0200701N006219999999N999999999+02741+02391100921ADDMA1100911999999OC100721REMMET110MOBOB2 METAR XM21 //000 073342 010853Z AUTO 07012G14KT 27/24 A2980      RMK A02 SLP092 T02740239 PA112 DA1962=
0145008415999992015110109534+07300+134200FM-15+000099999V0200701N006719999999N999999999+02791+02361101021ADDMA1101021999999OC100931REMMET110MOBOB2 METAR XM21 //000 073342 010953Z AUTO 07013G18KT 28/24 A2983      RMK A02 SLP102 T02790236 PA084 DA1978=
0145008415999992015110110534+07300+134200FM-15+000099999V0200501N006219999999N999999999+02771+02371101061ADDMA1101051999999OC100771REMMET110MOBOB2 METAR XM21 //000 073342 011053Z AUTO 05012G15KT 28/24 A2984      RMK A02 SLP106 T02770237 PA075 DA1946=
0134008415999992015110111534+07300+134200FM-15+000099999V0200701N004119999999N999999999+02751+02411101091ADDMA1101081999999REMMET107MOBOB2 METAR XM21 //000 073342 011153Z AUTO 07008KT 28/24 A2985 RMK      A02 SLP109 T02750241 PA066 DA1921=
0134008415999992015110112534+07300+134200FM-15+000099999V0200601N004619999999N999999999+02771+02431101121ADDMA1101121999999REMMET107MOBOB2 METAR XM21 //000 073342 011253Z AUTO 06009KT 28/24 A2986 RMK      A02 SLP112 T02770243 PA057 DA1937=
0134008415999992015110113534+07300+134200FM-15+000099999V0200601N003619999999N999999999+02771+02491101091ADDMA1101081999999REMMET107MOBOB2 METAR XM21 //000 073342 011353Z AUTO 06007KT 28/25 A2985 RMK      A02 SLP109 T02770249 PA066 DA1964=
0145008415999992015110114534+07300+134200FM-15+000099999V0200801N004119999999N999999999+02821+02431101091ADDMA1101081999999OC100621REMMET110MOBOB2 METAR XM21 //000 073342 011453Z AUTO 08008G12KT 28/24 A2985      RMK A02 SLP109 T02820243 PA066 DA2005=
0145008415999992015110115534+07300+134200FM-15+000099999V0200801N005719999999N999999999+02831+02451101021ADDMA1101021999999OC100721REMMET110MOBOB2 METAR XM21 //000 073342 011553Z AUTO 08011G14KT 28/24 A2983      RMK A02 SLP102 T02830245 PA084 DA2043=
0172008415999992015110116534+07300+134200FM-15+000099999V0200901N005719999999N999999999+02761+02421100951ADDAA101000021AW1611MA1100951999999OC100771REMMET120MOBOB2 METAR XM21 //000 073342 011653Z AUTO 09011G15KT -RA 28/24 A2981      RMK A02 SLP095 P0000 T02760242 PA103 DA1980=
0145008415999992015110117534+07300+134200FM-15+000099999V0200801N006219999999N999999999+02821+02441100851ADDMA1100851999999OC100771REMMET110MOBOB2 METAR XM21 //000 073342 011753Z AUTO 08012G15KT 28/24 A2978      RMK A02 SLP085 T02820244 PA131 DA2086=
0172008415999992015110118534+07300+134200FM-15+000099999V0200501N012419999999N999999999+02581+02341100851ADDAA101002231AW1631MA1100851999999OC101541REMMET120MOBOB2 METAR XM21 //000 073342 011853Z AUTO 05024G30KT +RA 26/23 A2978      RMK A02 SLP085 P0009 T02580234 PA131 DA1796=
0172008415999992015110119534+07300+134200FM-15+000099999V0200701N007719999999N999999999+02731+02391100891ADDAA101000021AW1611MA1100881999999OC101031REMMET120MOBOB2 METAR XM21 //000 073342 011953Z AUTO 07015G20KT -RA 27/24 A2979      RMK A02 SLP089 P0000 T02730239 PA122 DA1964=
0145008415999992015110120534+07300+134200FM-15+000099999V0200801N006219999999N999999999+02781+02391100921ADDMA1100911999999OC100771REMMET110MOBOB2 METAR XM21 //000 073342 012053Z AUTO 08012G15KT 28/24 A2980      RMK A02 SLP092 T02780239 PA112 DA2009=
0145008415999992015110121534+07300+134200FM-15+000099999V0200801N006719999999N999999999+02811+02421101021ADDMA1101021999999OC100931REMMET110MOBOB2 METAR XM21 //000 073342 012153Z AUTO 08013G18KT 28/24 A2983      RMK A02 SLP102 T02810242 PA084 DA2015=
0145008415999992015110122534+07300+134200FM-15+000099999V0200801N006219999999N999999999+02871+02411101061ADDMA1101051999999OC100821REMMET110MOBOB2 METAR XM21 //000 073342 012253Z AUTO 08012G16KT 29/24 A2984      RMK A02 SLP106 T02870241 PA075 DA2067=
0145008415999992015110123534+07300+134200FM-15+000099999V0200901N007219999999N999999999+02901+02351101061ADDMA1101051999999OC100931REMMET110MOBOB2 METAR XM21 //000 073342 012353Z AUTO 09014G18KT 29/24 A2984      RMK A02 SLP106 T02900235 PA075 DA2088=
0145008415999992015110200534+07300+134200FM-15+000099999V0200801N006719999999N999999999+02911+02441101061ADDMA1101051999999OC100881REMMET110MOBOB2 METAR XM21 //000 073342 020053Z AUTO 08013G17KT 29/24 A2984      RMK A02 SLP106 T02910244 PA075 DA2118=
0145008415999992015110201534+07300+134200FM-15+000099999V0201001N006219999999N999999999+02921+02421101021ADDMA1101021999999OC100821REMMET110MOBOB2 METAR XM21 //000 073342 020153Z AUTO 10012G16KT 29/24 A2983      RMK A02 SLP102 T02920242 PA084 DA2138=
0172008415999992015110202534+07300+134200FM-15+000099999V0200901N007219999999N999999999+02701+02461100951ADDAA101001531AW1631MA1100951999999OC100931REMMET120MOBOB2 METAR XM21 //000 073342 020253Z AUTO 09014G18KT +RA 27/25 A2981      RMK A02 SLP095 P0006 T02700246 PA103 DA1923=
0145008415999992015110203534+07300+134200FM-15+000099999V0201001N004619999999N999999999+02911+02371100851ADDMA1100851999999OC100621REMMET110MOBOB2 METAR XM21 //000 073342 020353Z AUTO 10009G12KT 29/24 A2978      RMK A02 SLP085 T02910237 PA131 DA2172=
0145008415999992015110204534+07300+134200FM-15+000099999V0201001N005119999999N999999999+02921+02371100821ADDMA1100811999999OC100671REMMET110MOBOB2 METAR XM21 //000 073342 020453Z AUTO 10010G13KT 29/24 A2977      RMK A02 SLP082 T02920237 PA140 DA2194=
0161008415999992015110205534+07300+134200FM-15+000099999V0201001N004619999999N999999999+02881+02411100781ADDAA101000021AW1611MA1100781999999REMMET117MOBOB2 METAR XM21 //000 073342 020553Z AUTO 10009KT -RA 29/24 A2976      RMK A02 SLP078 P0000 T02880241 PA149 DA2170=
0134008415999992015110206534+07300+134200FM-15+000099999V0200801N004619999999N999999999+02901+02411100821ADDMA1100811999999REMMET107MOBOB2 METAR XM21 //000 073342 020653Z AUTO 08009KT 29/24 A2977 RMK      A02 SLP082 T02900241 PA140 DA2181=
0134008415999992015110207534+07300+134200FM-15+000099999V0200801N003619999999N999999999+02891+02351100851ADDMA1100851999999REMMET107MOBOB2 METAR XM21 //000 073342 020753Z AUTO 08007KT 29/23 A2978 RMK      A02 SLP085 T02890235 PA131 DA2145=
0134008415999992015110208534+07300+134200FM-15+000099999V0200901N004119999999N999999999+02861+02441100921ADDMA1100911999999REMMET107MOBOB2 METAR XM21 //000 073342 020853Z AUTO 09008KT 29/24 A2980 RMK      A02 SLP092 T02860244 PA112 DA2109=
0134008415999992015110209534+07300+134200FM-15+000099999V0200701N003619999999N999999999+02831+02411100991ADDMA1100981999999REMMET107MOBOB2 METAR XM21 //000 073342 020953Z AUTO 07007KT 28/24 A2982 RMK      A02 SLP099 T02830241 PA094 DA2045=
0134008415999992015110210534+07300+134200FM-15+000099999V0200901N003119999999N999999999+02831+02451101061ADDMA1101051999999REMMET107MOBOB2 METAR XM21 //000 073342 021053Z AUTO 09006KT 28/25 A2984 RMK      A02 SLP106 T02830245 PA075 DA2033=
0134008415999992015110211534+07300+134200FM-15+000099999V0200701N003619999999N999999999+02811+02451101121ADDMA1101121999999REMMET107MOBOB2 METAR XM21 //000 073342 021153Z AUTO 07007KT 28/25 A2986 RMK      A02 SLP112 T02810245 PA057 DA1988=
0134008415999992015110212534+07300+134200FM-15+000099999V0200701N003619999999N999999999+02821+02451101091ADDMA1101081999999REMMET107MOBOB2 METAR XM21 //000 073342 021253Z AUTO 07007KT 28/24 A2985 RMK      A02 SLP109 T02820245 PA066 DA2010=
0161008415999992015110213534+07300+134200FM-15+000099999V0200801N002619999999N999999999+02811+02491101061ADDAA101000021AW1611MA1101051999999REMMET117MOBOB2 METAR XM21 //000 073342 021353Z AUTO 08005KT -RA 28/25 A2984      RMK A02 SLP106 P0000 T02810249 PA075 DA2019=
0134008415999992015110214534+07300+134200FM-15+000099999V0200501N002619999999N999999999+02771+02431101021ADDMA1101021999999REMMET107MOBOB2 METAR XM21 //000 073342 021453Z AUTO 05005KT 28/24 A2983 RMK      A02 SLP102 T02770243 PA084 DA1971=
0134008415999992015110215534+07300+134200FM-15+000099999V0200601N002619999999N999999999+02791+02461100991ADDMA1100981999999REMMET107MOBOB2 METAR XM21 //000 073342 021553Z AUTO 06005KT 28/25 A2982 RMK      A02 SLP099 T02790246 PA094 DA2013=
0145008415999992015110216534+07300+134200FM-15+000099999V0200701N005119999999N999999999+02751+02451100921ADDMA1100911999999OC100621REMMET110MOBOB2 METAR XM21 //000 073342 021653Z AUTO 07010G12KT 28/25 A2980      RMK A02 SLP092 T02750245 PA112 DA1989=
0134008415999992015110217534+07300+134200FM-15+000099999V0200501N003119999999N999999999+02771+02411100891ADDMA1100881999999REMMET107MOBOB2 METAR XM21 //000 073342 021753Z AUTO 05006KT 28/24 A2979 RMK      A02 SLP089 T02770241 PA122 DA2013=
0134008415999992015110218534+07300+134200FM-15+000099999V0200501N003619999999N999999999+02771+02481100851ADDMA1100851999999REMMET107MOBOB2 METAR XM21 //000 073342 021853Z AUTO 05007KT 28/25 A2978 RMK      A02 SLP085 T02770248 PA131 DA2040=
0134008415999992015110219534+07300+134200FM-15+000099999V0200501N004619999999N999999999+02791+02451100921ADDMA1100911999999REMMET107MOBOB2 METAR XM21 //000 073342 021953Z AUTO 05009KT 28/25 A2980 RMK      A02 SLP092 T02790245 PA112 DA2034=
0161008415999992015110220534+07300+134200FM-15+000099999V0200501N004619999999N999999999+02761+02461100991ADDAA101001031AW1611MA1100981999999REMMET117MOBOB2 METAR XM21 //000 073342 022053Z AUTO 05009KT -RA 28/25 A2982      RMK A02 SLP099 P0004 T02760246 PA094 DA1980=
0145008415999992015110221534+07300+134200FM-15+000099999V0200501N005119999999N999999999+02781+02441101061ADDMA1101051999999OC100671REMMET110MOBOB2 METAR XM21 //000 073342 022153Z AUTO 05010G13KT 28/24 A2984      RMK A02 SLP106 T02780244 PA075 DA1973=
0134008415999992015110222534+07300+134200FM-15+000099999V0200501N004619999999N999999999+02811+02421101091ADDMA1101081999999REMMET107MOBOB2 METAR XM21 //000 073342 022253Z AUTO 05009KT 28/24 A2985 RMK      A02 SLP109 T02810242 PA066 DA1992=
0134008415999992015110223534+07300+134200FM-15+000099999V0200501N004619999999N999999999+02821+02401101121ADDMA1101121999999REMMET107MOBOB2 METAR XM21 //000 073342 022353Z AUTO 05009KT 28/24 A2986 RMK      A02 SLP112 T02820240 PA057 DA1985=
0134008415999992015110300534+07300+134200FM-15+000099999V0200501N003119999999N999999999+02851+02441101091ADDMA1101081999999REMMET107MOBOB2 METAR XM21 //000 073342 030053Z AUTO 05006KT 29/24 A2985 RMK      A02 SLP109 T02850244 PA066 DA2040=
0172008415999992015110301534+07300+134200FM-15+000099999V0200501N007719999999N999999999+02601+02411101061ADDAA101002731AW1631MA1101051999999OC101131REMMET120MOBOB2 METAR XM21 //000 073342 030153Z AUTO 05015G22KT +RA 26/24 A2984      RMK A02 SLP106 P0011 T02600241 PA075 DA1765=
0161008415999992015110302534+07300+134200FM-15+000099999V0201501N003619999999N999999999+02761+02421100951ADDAA101000021AW1611MA1100951999999REMMET117MOBOB2 METAR XM21 //000 073342 030253Z AUTO 15007KT -RA 28/24 A2981      RMK A02 SLP095 P0000 T02760242 PA103 DA1982=
0134008415999992015110303534+07300+134200FM-15+000099999V0201101N001019999999N999999999+02891+02381100891ADDMA1100881999999REMMET107MOBOB2 METAR XM21 //000 073342 030353Z AUTO 11002KT 29/24 A2979 RMK      A02 SLP089 T02890238 PA122 DA2140=
0134008415999992015110304534+07300+134200FM-15+000099999V0200801N002619999999N999999999+02921+02321100851ADDMA1100851999999REMMET107MOBOB2 METAR XM21 //000 073342 030453Z AUTO 08005KT 29/23 A2978 RMK      A02 SLP085 T02920232 PA131 DA2172=
0134008415999992015110305534+07300+134200FM-15+000099999V0201201N002619999999N999999999+02881+02491100851ADDMA1100851999999REMMET107MOBOB2 METAR XM21 //000 073342 030553Z AUTO 12005KT 29/25 A2978 RMK      A02 SLP085 T02880249 PA131 DA2167=
0134008415999992015110306534+07300+134200FM-15+000099999V0203001N003619999999N999999999+02761+02421100851ADDMA1100851999999REMMET107MOBOB2 METAR XM21 //000 073342 030653Z AUTO 30007KT 28/24 A2978 RMK      A02 SLP085 T02760242 PA131 DA2015=
0134008415999992015110307534+07300+134200FM-15+000099999V0201101N003619999999N999999999+02781+02341100851ADDMA1100851999999REMMET107MOBOB2 METAR XM21 //000 073342 030753Z AUTO 11007KT 28/23 A2978 RMK      A02 SLP085 T02780234 PA131 DA2020=
0134008415999992015110308534+07300+134200FM-15+000099999V0201001N004119999999N999999999+02811+02361100951ADDMA1100951999999REMMET107MOBOB2 METAR XM21 //000 073342 030853Z AUTO 10008KT 28/24 A2981 RMK      A02 SLP095 T02810236 PA103 DA2022=
0134008415999992015110309534+07300+134200FM-15+000099999V0200601N004119999999N999999999+02831+02401101061ADDMA1101051999999REMMET107MOBOB2 METAR XM21 //000 073342 030953Z AUTO 06008KT 28/24 A2984 RMK      A02 SLP106 T02830240 PA075 DA2021=
0134008415999992015110310534+07300+134200FM-15+000099999V0201101N003619999999N999999999+02751+02351101121ADDMA1101121999999REMMET107MOBOB2 METAR XM21 //000 073342 031053Z AUTO 11007KT 28/24 A2986 RMK      A02 SLP112 T02750235 PA057 DA1898=
0134008415999992015110311534+07300+134200FM-15+000099999V0200801N004119999999N999999999+02801+02451101121ADDMA1101121999999REMMET107MOBOB2 METAR XM21 //000 073342 031153Z AUTO 08008KT 28/25 A2986 RMK      A02 SLP112 T02800245 PA057 DA1976=
0161008415999992015110312534+07300+134200FM-15+000099999V0200801N003619999999N999999999+02751+02341101121ADDAA101000021AW1611MA1101121999999REMMET117MOBOB2 METAR XM21 //000 073342 031253Z AUTO 08007KT -RA 28/23 A2986      RMK A02 SLP112 P0000 T02750234 PA057 DA1894=
0134008415999992015110313534+07300+134200FM-15+000099999V0200801N003119999999N999999999+02741+02401101091ADDMA1101081999999REMMET107MOBOB2 METAR XM21 //000 073342 031353Z AUTO 08006KT 27/24 A2985 RMK      A02 SLP109 T02740240 PA066 DA1909=
0134008415999992015110314534+07300+134200FM-15+000099999V0200801N002619999999N999999999+02761+02431101061ADDMA1101051999999REMMET107MOBOB2 METAR XM21 //000 073342 031453Z AUTO 08005KT 28/24 A2984 RMK      A02 SLP106 T02760243 PA075 DA1950=
0134008415999992015110315534+07300+134200FM-15+000099999V0200801N003119999999N999999999+02781+02451100991ADDMA1100981999999REMMET107MOBOB2 METAR XM21 //000 073342 031553Z AUTO 08006KT 28/25 A2982 RMK      A02 SLP099 T02780245 PA094 DA2000=
0161008415999992015110316534+07300+134200FM-15+000099999V0201201N003619999999N999999999+02711+02441100951ADDAA101004531AW1611MA1100951999999REMMET117MOBOB2 METAR XM21 //000 073342 031653Z AUTO 12007KT -RA 27/24 A2981      RMK A02 SLP095 P0018 T02710244 PA103 DA1929=
0134008415999992015110317534+07300+134200FM-15+000099999V0200801N003619999999N999999999+02771+02431100891ADDMA1100881999999REMMET107MOBOB2 METAR XM21 //000 073342 031753Z AUTO 08007KT 28/24 A2979 RMK      A02 SLP089 T02770243 PA122 DA2017=
0134008415999992015110318534+07300+134200FM-15+000099999V0200701N003619999999N999999999+02791+02421100891ADDMA1100881999999REMMET107MOBOB2 METAR XM21 //000 073342 031853Z AUTO 07007KT 28/24 A2979 RMK      A02 SLP089 T02790242 PA122 DA2038=
0161008415999992015110319534+07300+134200FM-15+000099999V0200601N002619999999N999999999+02651+02391100921ADDAA101001531AW1611MA1100911999999REMMET117MOBOB2 METAR XM21 //000 073342 031953Z AUTO 06005KT -RA 27/24 A2980      RMK A02 SLP092 P0006 T02650239 PA112 DA1862=
0134008415999992015110320534+07300+134200FM-15+000099999V0200501N003619999999N999999999+02751+02471100951ADDMA1100951999999REMMET107MOBOB2 METAR XM21 //000 073342 032053Z AUTO 05007KT 28/25 A2981 RMK      A02 SLP095 T02750247 PA103 DA1981=
0145008415999992015110321534+07300+134200FM-15+000099999V0200501N006219999999N999999999+02771+02441101021ADDMA1101021999999OC100771REMMET110MOBOB2 METAR XM21 //000 073342 032153Z AUTO 05012G15KT 28/24 A2983      RMK A02 SLP102 T02770244 PA084 DA1975=
0145008415999992015110322534+07300+134200FM-15+000099999V0200601N005719999999N999999999+02751+02411101061ADDMA1101051999999OC100721REMMET110MOBOB2 METAR XM21 //000 073342 032253Z AUTO 06011G14KT 28/24 A2984      RMK A02 SLP106 T02750241 PA075 DA1933=
0145008415999992015110323534+07300+134200FM-15+000099999V0200601N005119999999N999999999+02801+02381101061ADDMA1101051999999OC100621REMMET110MOBOB2 METAR XM21 //000 073342 032353Z AUTO 06010G12KT 28/24 A2984      RMK A02 SLP106 T02800238 PA075 DA1982=
0145008415999992015110400534+07300+134200FM-15+000099999V0200601N006219999999N999999999+02871+02391101061ADDMA1101051999999OC100821REMMET110MOBOB2 METAR XM21 //000 073342 040053Z AUTO 06012G16KT 29/24 A2984      RMK A02 SLP106 T02870239 PA075 DA2064=
0134008415999992015110401534+07300+134200FM-15+000099999V0200701N003619999999N999999999+02851+02411100951ADDMA1100951999999REMMET107MOBOB2 METAR XM21 //000 073342 040153Z AUTO 07007KT 29/24 A2981 RMK      A02 SLP095 T02850241 PA103 DA2079=
0145008415999992015110402534+07300+134200FM-15+000099999V0200801N005719999999N999999999+02931+02331100851ADDMA1100851999999OC100721REMMET110MOBOB2 METAR XM21 //000 073342 040253Z AUTO 08011G14KT 29/23 A2978      RMK A02 SLP085 T02930233 PA131 DA2184=
0145008415999992015110403534+07300+134200FM-15+000099999V0200901N006219999999N999999999+02941+02341100821ADDMA1100811999999OC100771REMMET110MOBOB2 METAR XM21 //000 073342 040353Z AUTO 09012G15KT 29/23 A2977      RMK A02 SLP082 T02940234 PA140 DA2209=
0172008415999992015110404534+07300+134200FM-15+000099999V0200601N005119999999N999999999+02701+02331100781ADDAA101000021AW1611MA1100781999999OC100621REMMET120MOBOB2 METAR XM21 //000 073342 040453Z AUTO 06010G12KT -RA 27/23 A2976      RMK A02 SLP078 P0000 T02700233 PA149 DA1951=
0145008415999992015110405534+07300+134200FM-15+000099999V0200701N006719999999N999999999+02781+02311100781ADDMA1100781999999OC100821REMMET110MOBOB2 METAR XM21 //000 073342 040553Z AUTO 07013G16KT 28/23 A2976      RMK A02 SLP078 T02780231 PA149 DA2037=
0145008415999992015110406534+07300+134200FM-15+000099999V0200801N005119999999N999999999+02821+02381100781ADDMA1100781999999OC100671REMMET110MOBOB2 METAR XM21 //000 073342 040653Z AUTO 08010G13KT 28/24 A2976      RMK A02 SLP078 T02820238 PA149 DA2097=
0134008415999992015110407534+07300+134200FM-15+000099999V0200901N005119999999N999999999+02811+02431100851ADDMA1100851999999REMMET107MOBOB2 METAR XM21 //000 073342 040753Z AUTO 09010KT 28/24 A2978 RMK      A02 SLP085 T02810243 PA131 DA2075=
0134008415999992015110408534+07300+134200FM-15+000099999V0200701N003119999999N999999999+02821+02491100891ADDMA1100881999999REMMET107MOBOB2 METAR XM21 //000 073342 040853Z AUTO 07006KT 28/25 A2979 RMK      A02 SLP089 T02820249 PA122 DA2087=
0134008415999992015110409534+07300+134200FM-15+000099999V0200801N004619999999N999999999+02841+02451100921ADDMA1100911999999REMMET107MOBOB2 METAR XM21 //000 073342 040953Z AUTO 08009KT 28/25 A2980 RMK      A02 SLP092 T02840245 PA112 DA2090=
0145008415999992015110410534+07300+134200FM-15+000099999V0201501N006219999999N999999999+02731+02331100991ADDMA1100981999999OC100821REMMET110MOBOB2 METAR XM21 //000 073342 041053Z AUTO 15012G16KT 27/23 A2982      RMK A02 SLP099 T02730233 PA094 DA1916=
0161008415999992015110411534+07300+134200FM-15+000099999V0200901N004619999999N999999999+02791+02441101061ADDAA101000021AW1611MA1101051999999REMMET117MOBOB2 METAR XM21 //000 073342 041153Z AUTO 09009KT -RA 28/24 A2984      RMK A02 SLP106 P0000 T02790244 PA075 DA1985=
0145008415999992015110412534+07300+134200FM-15+000099999V0200801N005719999999N999999999+02841+02421101061ADDMA1101051999999OC100671REMMET110MOBOB2 METAR XM21 //000 073342 041253Z AUTO 08011G13KT 28/24 A2984      RMK A02 SLP106 T02840242 PA075 DA2037=
0134008415999992015110413534+07300+134200FM-15+000099999V0200901N004619999999N999999999+02831+02451101021ADDMA1101021999999REMMET107MOBOB2 METAR XM21 //000 073342 041353Z AUTO 09009KT 28/24 A2983 RMK      A02 SLP102 T02830245 PA084 DA2043=
0145008415999992015110414534+07300+134200FM-15+000099999V0201201N005119999999N999999999+02791+02441100991ADDMA1100981999999OC100671REMMET110MOBOB2 METAR XM21 //000 073342 041453Z AUTO 12010G13KT 28/24 A2982      RMK A02 SLP099 T02790244 PA094 DA2007=
0134008415999992015110415534+07300+134200FM-15+000099999V0201001N004619999999N999999999+02821+02381100921ADDMA1100911999999REMMET107MOBOB2 METAR XM21 //000 073342 041553Z AUTO 10009KT 28/24 A2980 RMK      A02 SLP092 T02820238 PA112 DA2052=
0134008415999992015110416534+07300+134200FM-15+000099999V0201001N004619999999N999999999+02811+02451100851ADDMA1100851999999REMMET107MOBOB2 METAR XM21 //000 073342 041653Z AUTO 10009KT 28/25 A2978 RMK      A02 SLP085 T02810245 PA131 DA2079=
0145008415999992015110417534+07300+134200FM-15+000099999V0201001N005719999999N999999999+02811+02391100821ADDMA1100811999999OC100721REMMET110MOBOB2 METAR XM21 //000 073342 041753Z AUTO 10011G14KT 28/24 A2977      RMK A02 SLP082 T02810239 PA140 DA2077=
0145008415999992015110418534+07300+134200FM-15+000099999V0201001N005719999999N999999999+02811+02331100821ADDMA1100811999999OC100721REMMET110MOBOB2 METAR XM21 //000 073342 041853Z AUTO 10011G14KT 28/23 A2977      RMK A02 SLP082 T02810233 PA140 DA2063=
0145008415999992015110419534+07300+134200FM-15+000099999V0201001N005119999999N999999999+02811+02381100851ADDMA1100851999999OC100671REMMET110MOBOB2 METAR XM21 //000 073342 041953Z AUTO 10010G13KT 28/24 A2978      RMK A02 SLP085 T02810238 PA131 DA2062=
0145008415999992015110420534+07300+134200FM-15+000099999V0200901N005719999999N999999999+02811+02381100921ADDMA1100911999999OC100721REMMET110MOBOB2 METAR XM21 //000 073342 042053Z AUTO 09011G14KT 28/24 A2980      RMK A02 SLP092 T02810238 PA112 DA2040=
0145008415999992015110421534+07300+134200FM-15+000099999V0201201N006719999999N999999999+02831+02381100991ADDMA1100981999999OC100881REMMET110MOBOB2 METAR XM21 //000 073342 042153Z AUTO 12013G17KT 28/24 A2982      RMK A02 SLP099 T02830238 PA094 DA2040=
0145008415999992015110422534+07300+134200FM-15+000099999V0201201N005719999999N999999999+02861+02391101061ADDMA1101051999999OC100721REMMET110MOBOB2 METAR XM21 //000 073342 042253Z AUTO 12011G14KT 29/24 A2984      RMK A02 SLP106 T02860239 PA075 DA2052=
0145008415999992015110423534+07300+134200FM-15+000099999V0201101N004619999999N999999999+02891+02411101091ADDMA1101081999999OC100721REMMET110MOBOB2 METAR XM21 //000 073342 042353Z AUTO 11009G14KT 29/24 A2985      RMK A02 SLP109 T02890241 PA066 DA2079=
0134008415999992015110500534+07300+134200FM-15+000099999V0201101N004619999999N999999999+02901+02361101061ADDMA1101051999999REMMET107MOBOB2 METAR XM21 //000 073342 050053Z AUTO 11009KT 29/24 A2984 RMK      A02 SLP106 T02900236 PA075 DA2090=
0145008415999992015110501534+07300+134200FM-15+000099999V0201101N005119999999N999999999+02921+02331100991ADDMA1100981999999OC100621REMMET110MOBOB2 METAR XM21 //000 073342 050153Z AUTO 11010G12KT 29/23 A2982      RMK A02 SLP099 T02920233 PA094 DA2127=
0134008415999992015110502534+07300+134200FM-15+000099999V0201101N004619999999N999999999+02941+02351100951ADDMA1100951999999REMMET107MOBOB2 METAR XM21 //000 073342 050253Z AUTO 11009KT 29/23 A2981 RMK      A02 SLP095 T02940235 PA103 DA2166=
0145008415999992015110503534+07300+134200FM-15+000099999V0201301N005119999999N999999999+02901+02361100891ADDMA1100881999999OC100621REMMET110MOBOB2 METAR XM21 //000 073342 050353Z AUTO 13010G12KT 29/24 A2979      RMK A02 SLP089 T02900236 PA122 DA2147=
0161008415999992015110504534+07300+134200FM-15+000099999V0201201N003619999999N999999999+02861+02401100781ADDAA101000021AW1611MA1100781999999REMMET117MOBOB2 METAR XM21 //000 073342 050453Z AUTO 12007KT -RA 29/24 A2976      RMK A02 SLP078 P0000 T02860240 PA149 DA2145=
0145008415999992015110505534+07300+134200FM-15+000099999V0201201N005719999999N999999999+02901+02411100781ADDMA1100781999999OC100671REMMET110MOBOB2 METAR XM21 //000 073342 050553Z AUTO 12011G13KT 29/24 A2976      RMK A02 SLP078 T02900241 PA149 DA2192=
0134008415999992015110506534+07300+134200FM-15+000099999V0201101N004619999999N999999999+02891+02381100781ADDMA1100781999999REMMET107MOBOB2 METAR XM21 //000 073342 050653Z AUTO 11009KT 29/24 A2976 RMK      A02 SLP078 T02890238 PA149 DA2174=
0145008415999992015110507534+07300+134200FM-15+000099999V0200801N005719999999N999999999+02901+02321100821ADDMA1100811999999OC100671REMMET110MOBOB2 METAR XM21 //000 073342 050753Z AUTO 08011G13KT 29/23 A2977      RMK A02 SLP082 T02900232 PA140 DA2161=
0145008415999992015110508534+07300+134200FM-15+000099999V0200901N005119999999N999999999+02881+02431100851ADDMA1100851999999OC100671REMMET110MOBOB2 METAR XM21 //000 073342 050853Z AUTO 09010G13KT 29/24 A2978      RMK A02 SLP085 T02880243 PA131 DA2153=
0134008415999992015110509534+07300+134200FM-15+000099999V0200901N004119999999N999999999+02861+02371100851ADDMA1100851999999REMMET107MOBOB2 METAR XM21 //000 073342 050953Z AUTO 09008KT 29/24 A2978 RMK      A02 SLP085 T02860237 PA131 DA2116=
0134008415999992015110510534+07300+134200FM-15+000099999V0200601N004119999999N999999999+02841+02431100951ADDMA1100951999999REMMET107MOBOB2 METAR XM21 //000 073342 051053Z AUTO 06008KT 28/24 A2981 RMK      A02 SLP095 T02840243 PA103 DA2074=
0145008415999992015110511534+07300+134200FM-15+000099999V0200601N005719999999N999999999+02831+02431100991ADDMA1100981999999OC100721REMMET110MOBOB2 METAR XM21 //000 073342 051153Z AUTO 06011G14KT 28/24 A2982      RMK A02 SLP099 T02830243 PA094 DA2051=
0145008415999992015110512534+07300+134200FM-15+000099999V0200601N004619999999N999999999+02821+02431101021ADDMA1101021999999OC100621REMMET110MOBOB2 METAR XM21 //000 073342 051253Z AUTO 06009G12KT 28/24 A2983      RMK A02 SLP102 T02820243 PA084 DA2027=
0134008415999992015110513534+07300+134200FM-15+000099999V0200601N005119999999N999999999+02801+02511101021ADDMA1101021999999REMMET107MOBOB2 METAR XM21 //000 073342 051353Z AUTO 06010KT 28/25 A2983 RMK      A02 SLP102 T02800251 PA084 DA2024=
0134008415999992015110514534+07300+134200FM-15+000099999V0200801N003619999999N999999999+02761+02461100991ADDMA1100981999999REMMET107MOBOB2 METAR XM21 //000 073342 051453Z AUTO 08007KT 28/25 A2982 RMK      A02 SLP099 T02760246 PA094 DA1979=
0134008415999992015110515534+07300+134200FM-15+000099999V0200801N003119999999N999999999+02761+02431100921ADDMA1100911999999REMMET107MOBOB2 METAR XM21 //000 073342 051553Z AUTO 08006KT 28/24 A2980 RMK      A02 SLP092 T02760243 PA112 DA1996=
0134008415999992015110516534+07300+134200FM-15+000099999V0200601N003619999999N999999999+02781+02451100851ADDMA1100851999999REMMET107MOBOB2 METAR XM21 //000 073342 051653Z AUTO 06007KT 28/24 A2978 RMK      A02 SLP085 T02780245 PA131 DA2044=
0134008415999992015110517544+07300+134200FM-15+000099999V0200701N004119999999N999999999+02781+02431100821ADDMA1100811999999REMMET107MOBOB2 METAR XM21 //000 073342 051754Z AUTO 07008KT 28/24 A2977 RMK      A02 SLP082 T02780243 PA140 DA2051=
0134008415999992015110518534+07300+134200FM-15+000099999V0200701N003119999999N999999999+02791+02431100821ADDMA1100811999999REMMET107MOBOB2 METAR XM21 //000 073342 051853Z AUTO 07006KT 28/24 A2977 RMK      A02 SLP082 T02790243 PA140 DA2062=
0134008415999992015110519534+07300+134200FM-15+000099999V0200701N003119999999N999999999+02771+02431100851ADDMA1100851999999REMMET107MOBOB2 METAR XM21 //000 073342 051953Z AUTO 07006KT 28/24 A2978 RMK      A02 SLP085 T02770243 PA131 DA2028=
